{
  "address": "0x9F282aaC372d965a61439630fd343fa6DC8d6DEb",
  "abi": [
    {
      "inputs": [
        {
          "internalType": "contract IEtherTokenV06",
          "name": "weth",
          "type": "address"
        }
      ],
      "stateMutability": "nonpayable",
      "type": "constructor"
    },
    {
      "anonymous": false,
      "inputs": [
        {
          "indexed": false,
          "internalType": "bytes32",
          "name": "source",
          "type": "bytes32"
        },
        {
          "indexed": false,
          "internalType": "contract IERC20TokenV06",
          "name": "inputToken",
          "type": "address"
        },
        {
          "indexed": false,
          "internalType": "contract IERC20TokenV06",
          "name": "outputToken",
          "type": "address"
        },
        {
          "indexed": false,
          "internalType": "uint256",
          "name": "inputTokenAmount",
          "type": "uint256"
        },
        {
          "indexed": false,
          "internalType": "uint256",
          "name": "outputTokenAmount",
          "type": "uint256"
        }
      ],
      "name": "BridgeFill",
      "type": "event"
    },
    {
      "inputs": [],
      "name": "BANCOR_ETH_ADDRESS",
      "outputs": [
        {
          "internalType": "contract IERC20TokenV06",
          "name": "",
          "type": "address"
        }
      ],
      "stateMutability": "view",
      "type": "function"
    },
    {
      "inputs": [
        {
          "components": [
            {
              "internalType": "bytes32",
              "name": "source",
              "type": "bytes32"
            },
            {
              "internalType": "uint256",
              "name": "takerTokenAmount",
              "type": "uint256"
            },
            {
              "internalType": "uint256",
              "name": "makerTokenAmount",
              "type": "uint256"
            },
            {
              "internalType": "bytes",
              "name": "bridgeData",
              "type": "bytes"
            }
          ],
          "internalType": "struct IBridgeAdapter.BridgeOrder",
          "name": "order",
          "type": "tuple"
        },
        {
          "internalType": "contract IERC20TokenV06",
          "name": "sellToken",
          "type": "address"
        },
        {
          "internalType": "contract IERC20TokenV06",
          "name": "buyToken",
          "type": "address"
        },
        {
          "internalType": "uint256",
          "name": "sellAmount",
          "type": "uint256"
        }
      ],
      "name": "trade",
      "outputs": [
        {
          "internalType": "uint256",
          "name": "boughtAmount",
          "type": "uint256"
        }
      ],
      "stateMutability": "nonpayable",
      "type": "function"
    }
  ],
  "transactionHash": "0x21505a5af0bb2f6e8e1333ab91e85aca642f86c4fdb342ea15f46b25adc46509",
  "args": [
    "0x4fac0386c4045b52756b206db3148201e42b3f62"
  ],
  "solcInputHash": "a85953f04d21c6f491b4f8b53fe86c22",
  "bytecode": "0x6101406040527feeeeeeeeeeeeeeeeeeeeeeeeeeeeeeeeeeeeeeee00000000000000000000000060c0523480156200003657600080fd5b506040516200479038038062004790833981016040819052620000599162000085565b60601b6001600160601b031916608081905260a081905260e081905261010081905261012052620000b5565b60006020828403121562000097578081fd5b81516001600160a01b0381168114620000ae578182fd5b9392505050565b60805160601c60a05160601c60c05160601c60e05160601c6101005160601c6101205160601c61461b6200017560003980610bf25280610c815280610d9c5280610ebc5280612f33525080611b155280611ba45280611c535280611caf5280611d845280611dd85250806112ee52806113a5528061142c52806114a852806115c15280611615525080611485528061150152508061043752806104c95280610725528061077c5250806125b152806126d05280612873525061461b6000f3fe608060405234801561001057600080fd5b50600436106100365760003560e01c80638dc669fa1461003b578063f712a14814610059575b600080fd5b610043610079565b6040516100509190613c11565b60405180910390f35b61006c6100673660046138ab565b610091565b60405161005091906143d6565b73eeeeeeeeeeeeeeeeeeeeeeeeeeeeeeeeeeeeeeee81565b835160009060801c60018114156100b9576100b28585858960600151610413565b91506103ca565b6fffffffffffffffffffffffffffffffff8116601214156100e3576100b28584886060015161089d565b6fffffffffffffffffffffffffffffffff81166002141561010d576100b2848488606001516109ae565b6fffffffffffffffffffffffffffffffff811660031415610138576100b28585858960600151610bc8565b6fffffffffffffffffffffffffffffffff811660041415610163576100b2858585896060015161101b565b6fffffffffffffffffffffffffffffffff81166011141561018e576100b2858585896060015161112c565b6fffffffffffffffffffffffffffffffff8116600514156101b9576100b285858589606001516112cd565b6fffffffffffffffffffffffffffffffff8116601014156101e4576100b285858589606001516116a0565b6fffffffffffffffffffffffffffffffff81166006141561020f576100b28585858960600151611af8565b6fffffffffffffffffffffffffffffffff81166007141561023a576100b28585858960600151611e61565b6fffffffffffffffffffffffffffffffff811660081415610265576100b28585858960600151611ef6565b6fffffffffffffffffffffffffffffffff811660091415610290576100b28585858960600151611f89565b6fffffffffffffffffffffffffffffffff8116600a14156102ba576100b285848860600151612020565b6fffffffffffffffffffffffffffffffff8116600b14156102e4576100b28584886060015161228d565b6fffffffffffffffffffffffffffffffff8116600c141561030e576100b2848488606001516123cc565b6fffffffffffffffffffffffffffffffff8116600d1415610338576100b2848488606001516124a5565b6fffffffffffffffffffffffffffffffff8116600e1415610363576100b285858589606001516128fc565b6fffffffffffffffffffffffffffffffff8116600f141561038d576100b2858488606001516129db565b6fffffffffffffffffffffffffffffffff8116601314156103b7576100b284848860600151612b63565b6103c78585858960600151612d88565b91505b85516040517fe59e71a14fe90157eedc866c4f8c767d3943d6b6b2e8cd64dddcc92ab4c55af891610402918890889088908890613cd2565b60405180910390a150949350505050565b600061041d613431565b82806020019051810190610431919061399c565b905060007f000000000000000000000000000000000000000000000000000000000000000073ffffffffffffffffffffffffffffffffffffffff168773ffffffffffffffffffffffffffffffffffffffff16141561053557506040517f2e1a7d4d000000000000000000000000000000000000000000000000000000008152849073ffffffffffffffffffffffffffffffffffffffff7f00000000000000000000000000000000000000000000000000000000000000001690632e1a7d4d906104fe9084906004016143d6565b600060405180830381600087803b15801561051857600080fd5b505af115801561052c573d6000803e3d6000fd5b50505050610559565b81516105599073ffffffffffffffffffffffffffffffffffffffff89169087612e22565b6040517f70a0823100000000000000000000000000000000000000000000000000000000815260009073ffffffffffffffffffffffffffffffffffffffff8816906370a08231906105ae903090600401613c11565b60206040518083038186803b1580156105c657600080fd5b505afa1580156105da573d6000803e3d6000fd5b505050506040513d601f19601f820116820180604052508101906105fe91906139f9565b905060006060846000015173ffffffffffffffffffffffffffffffffffffffff16848660200151876040015188606001518c60016040516024016106459493929190613ee3565b604080517fffffffffffffffffffffffffffffffffffffffffffffffffffffffffffffffe08184030181529181526020820180517bffffffffffffffffffffffffffffffffffffffffffffffffffffffff167fffffffff000000000000000000000000000000000000000000000000000000009094169390931790925290516106ce9190613bf5565b60006040518083038185875af1925050503d806000811461070b576040519150601f19603f3d011682016040523d82523d6000602084013e610710565b606091505b5091509150816107235761072381612efe565b7f000000000000000000000000000000000000000000000000000000000000000073ffffffffffffffffffffffffffffffffffffffff168973ffffffffffffffffffffffffffffffffffffffff1614156107fc574795507f000000000000000000000000000000000000000000000000000000000000000073ffffffffffffffffffffffffffffffffffffffff1663d0e30db0876040518263ffffffff1660e01b81526004016000604051808303818588803b1580156107e257600080fd5b505af11580156107f6573d6000803e3d6000fd5b50505050505b61088f838a73ffffffffffffffffffffffffffffffffffffffff166370a08231306040518263ffffffff1660e01b81526004016108399190613c11565b60206040518083038186803b15801561085157600080fd5b505afa158015610865573d6000803e3d6000fd5b505050506040513d601f19601f8201168201806040525081019061088991906139f9565b90612f06565b9a9950505050505050505050565b6000806060838060200190518101906108b6919061382b565b90925090506108dc73ffffffffffffffffffffffffffffffffffffffff87168387612e22565b6040805160a0810182528281523060208201524281830152606081018790526001608082015290517fc04b8d5900000000000000000000000000000000000000000000000000000000815273ffffffffffffffffffffffffffffffffffffffff84169163c04b8d599161095291906004016142de565b602060405180830381600087803b15801561096c57600080fd5b505af1158015610980573d6000803e3d6000fd5b505050506040513d601f19601f820116820180604052508101906109a491906139f9565b9695505050505050565b600080606080848060200190518101906109c8919061374f565b80519194509250600211159050610a14576040517f08c379a0000000000000000000000000000000000000000000000000000000008152600401610a0b906140b0565b60405180910390fd5b8573ffffffffffffffffffffffffffffffffffffffff1681600183510381518110610a3b57fe5b602002602001015173ffffffffffffffffffffffffffffffffffffffff1614610a90576040517f08c379a0000000000000000000000000000000000000000000000000000000008152600401610a0b90614224565b610acf828683600081518110610aa257fe5b602002602001015173ffffffffffffffffffffffffffffffffffffffff16612e229092919063ffffffff16565b6040517f38ed173900000000000000000000000000000000000000000000000000000000815260609073ffffffffffffffffffffffffffffffffffffffff8416906338ed173990610b2d90899060019087903090429060040161443c565b600060405180830381600087803b158015610b4757600080fd5b505af1158015610b5b573d6000803e3d6000fd5b505050506040513d6000823e601f3d9081017fffffffffffffffffffffffffffffffffffffffffffffffffffffffffffffffe0168201604052610ba191908101906136bf565b905080600182510381518110610bb357fe5b602002602001015193505050505b9392505050565b60008082806020019051810190610bdf919061362f565b90506000610bee828888612f2f565b90507f000000000000000000000000000000000000000000000000000000000000000073ffffffffffffffffffffffffffffffffffffffff168773ffffffffffffffffffffffffffffffffffffffff161415610d9a576040517f2e1a7d4d00000000000000000000000000000000000000000000000000000000815273ffffffffffffffffffffffffffffffffffffffff7f00000000000000000000000000000000000000000000000000000000000000001690632e1a7d4d90610cb69088906004016143d6565b600060405180830381600087803b158015610cd057600080fd5b505af1158015610ce4573d6000803e3d6000fd5b50506040517fad65d76d00000000000000000000000000000000000000000000000000000000815273ffffffffffffffffffffffffffffffffffffffff8416925063ad65d76d91508790610d419060019042903090600401613f36565b6020604051808303818588803b158015610d5a57600080fd5b505af1158015610d6e573d6000803e3d6000fd5b50505050506040513d601f19601f82011682018060405250810190610d9391906139f9565b9250611011565b7f000000000000000000000000000000000000000000000000000000000000000073ffffffffffffffffffffffffffffffffffffffff168673ffffffffffffffffffffffffffffffffffffffff161415610f4057610e0f73ffffffffffffffffffffffffffffffffffffffff88168287612e22565b6040517f95e3c50b00000000000000000000000000000000000000000000000000000000815273ffffffffffffffffffffffffffffffffffffffff8216906395e3c50b90610e6690889060019042906004016144e6565b602060405180830381600087803b158015610e8057600080fd5b505af1158015610e94573d6000803e3d6000fd5b505050506040513d601f19601f82011682018060405250810190610eb891906139f9565b92507f000000000000000000000000000000000000000000000000000000000000000073ffffffffffffffffffffffffffffffffffffffff1663d0e30db0846040518263ffffffff1660e01b81526004016000604051808303818588803b158015610f2257600080fd5b505af1158015610f36573d6000803e3d6000fd5b5050505050611011565b610f6173ffffffffffffffffffffffffffffffffffffffff88168287612e22565b6040517fddf7e1a700000000000000000000000000000000000000000000000000000000815273ffffffffffffffffffffffffffffffffffffffff82169063ddf7e1a790610fbc908890600190819042908d906004016144ad565b602060405180830381600087803b158015610fd657600080fd5b505af1158015610fea573d6000803e3d6000fd5b505050506040513d601f19601f8201168201806040525081019061100e91906139f9565b92505b5050949350505050565b60008082806020019051810190611032919061362f565b905061105573ffffffffffffffffffffffffffffffffffffffff87168286612e22565b6040517f8201aa3f00000000000000000000000000000000000000000000000000000000815273ffffffffffffffffffffffffffffffffffffffff821690638201aa3f906110d090899088908a906001907fffffffffffffffffffffffffffffffffffffffffffffffffffffffffffffffff90600401613e72565b6040805180830381600087803b1580156110e957600080fd5b505af11580156110fd573d6000803e3d6000fd5b505050506040513d601f19601f820116820180604052508101906111219190613a35565b509695505050505050565b6000611136613458565b8280602001905181019061114a9190613870565b80519091506111719073ffffffffffffffffffffffffffffffffffffffff88169086612e22565b61117961346f565b6040805160c0810190915260208084015182528101600081526020018873ffffffffffffffffffffffffffffffffffffffff1681526020018773ffffffffffffffffffffffffffffffffffffffff1681526020018681526020016040518060200160405280600081525081525090506111f0613431565b506040805160808101825230808252600060208301819052828401919091526060820152835191517f52bbbe29000000000000000000000000000000000000000000000000000000008152909173ffffffffffffffffffffffffffffffffffffffff16906352bbbe299061126f90859085906001904290600401614344565b602060405180830381600087803b15801561128957600080fd5b505af115801561129d573d6000803e3d6000fd5b505050506040513d601f19601f820116820180604052508101906112c191906139f9565b98975050505050505050565b6000806060838060200190518101906112e6919061382b565b9150915060007f000000000000000000000000000000000000000000000000000000000000000073ffffffffffffffffffffffffffffffffffffffff168873ffffffffffffffffffffffffffffffffffffffff16146113655761136073ffffffffffffffffffffffffffffffffffffffff89168488612e22565b61140d565b506040517f2e1a7d4d000000000000000000000000000000000000000000000000000000008152859073ffffffffffffffffffffffffffffffffffffffff7f00000000000000000000000000000000000000000000000000000000000000001690632e1a7d4d906113da9084906004016143d6565b600060405180830381600087803b1580156113f457600080fd5b505af1158015611408573d6000803e3d6000fd5b505050505b8273ffffffffffffffffffffffffffffffffffffffff166329589f61827f000000000000000000000000000000000000000000000000000000000000000073ffffffffffffffffffffffffffffffffffffffff168b73ffffffffffffffffffffffffffffffffffffffff1614611483578a6114a5565b7f00000000000000000000000000000000000000000000000000000000000000005b897f000000000000000000000000000000000000000000000000000000000000000073ffffffffffffffffffffffffffffffffffffffff168c73ffffffffffffffffffffffffffffffffffffffff16146114ff578b611521565b7f00000000000000000000000000000000000000000000000000000000000000005b307fffffffffffffffffffffffffffffffffffffffffffffffffffffffffffffffff600160008b6040518a63ffffffff1660e01b815260040161156b989796959493929190613dd0565b6020604051808303818588803b15801561158457600080fd5b505af1158015611598573d6000803e3d6000fd5b50505050506040513d601f19601f820116820180604052508101906115bd91906139f9565b93507f000000000000000000000000000000000000000000000000000000000000000073ffffffffffffffffffffffffffffffffffffffff168773ffffffffffffffffffffffffffffffffffffffff161415611695577f000000000000000000000000000000000000000000000000000000000000000073ffffffffffffffffffffffffffffffffffffffff1663d0e30db0856040518263ffffffff1660e01b81526004016000604051808303818588803b15801561167b57600080fd5b505af115801561168f573d6000803e3d6000fd5b50505050505b505050949350505050565b60006116aa613458565b828060200190518101906116be91906139b7565b905060008573ffffffffffffffffffffffffffffffffffffffff166370a08231306040518263ffffffff1660e01b81526004016116fb9190613c11565b60206040518083038186803b15801561171357600080fd5b505afa158015611727573d6000803e3d6000fd5b505050506040513d601f19601f8201168201806040525081019061174b91906139f9565b825160208401519192509073ffffffffffffffffffffffffffffffffffffffff898116911614156118a0576118158173ffffffffffffffffffffffffffffffffffffffff166301664f666040518163ffffffff1660e01b815260040160206040518083038186803b1580156117bf57600080fd5b505afa1580156117d3573d6000803e3d6000fd5b505050506040513d601f19601f820116820180604052508101906117f7919061362f565b73ffffffffffffffffffffffffffffffffffffffff8a169088612e22565b6040517f9599127600000000000000000000000000000000000000000000000000000000815273ffffffffffffffffffffffffffffffffffffffff8216906395991276906118699030908a90600401613c59565b600060405180830381600087803b15801561188357600080fd5b505af1158015611897573d6000803e3d6000fd5b50505050611abb565b826020015173ffffffffffffffffffffffffffffffffffffffff168773ffffffffffffffffffffffffffffffffffffffff161415611abb57600061196a8273ffffffffffffffffffffffffffffffffffffffff1663fae036d56040518163ffffffff1660e01b815260040160206040518083038186803b15801561192357600080fd5b505afa158015611937573d6000803e3d6000fd5b505050506040513d601f19601f8201168201806040525081019061195b91906139f9565b670de0b6b3a76400009061311c565b905060008873ffffffffffffffffffffffffffffffffffffffff1663313ce5676040518163ffffffff1660e01b815260040160206040518083038186803b1580156119b457600080fd5b505afa1580156119c8573d6000803e3d6000fd5b505050506040513d601f19601f820116820180604052508101906119ec9190613adc565b60ff16600a0a90506000611a0a83611a048b85613138565b90613169565b8651909150611a319073ffffffffffffffffffffffffffffffffffffffff8d16908b612e22565b6040517f8d7ef9bb00000000000000000000000000000000000000000000000000000000815273ffffffffffffffffffffffffffffffffffffffff851690638d7ef9bb90611a859030908590600401613c59565b600060405180830381600087803b158015611a9f57600080fd5b505af1158015611ab3573d6000803e3d6000fd5b505050505050505b6112c1828873ffffffffffffffffffffffffffffffffffffffff166370a08231306040518263ffffffff1660e01b81526004016108399190613c11565b60008082806020019051810190611b0f919061362f565b905060007f000000000000000000000000000000000000000000000000000000000000000073ffffffffffffffffffffffffffffffffffffffff168773ffffffffffffffffffffffffffffffffffffffff161415611c13576040517f2e1a7d4d00000000000000000000000000000000000000000000000000000000815273ffffffffffffffffffffffffffffffffffffffff7f00000000000000000000000000000000000000000000000000000000000000001690632e1a7d4d90611bd99088906004016143d6565b600060405180830381600087803b158015611bf357600080fd5b505af1158015611c07573d6000803e3d6000fd5b50505050849050611c34565b611c3473ffffffffffffffffffffffffffffffffffffffff88168387612e22565b8173ffffffffffffffffffffffffffffffffffffffff1663d5bcb9b5827f000000000000000000000000000000000000000000000000000000000000000073ffffffffffffffffffffffffffffffffffffffff168a73ffffffffffffffffffffffffffffffffffffffff1614611caa5789611cad565b60005b7f000000000000000000000000000000000000000000000000000000000000000073ffffffffffffffffffffffffffffffffffffffff168a73ffffffffffffffffffffffffffffffffffffffff1614611d065789611d09565b60005b89600160006040518763ffffffff1660e01b8152600401611d2e959493929190613d55565b6020604051808303818588803b158015611d4757600080fd5b505af1158015611d5b573d6000803e3d6000fd5b50505050506040513d601f19601f82011682018060405250810190611d8091906139f9565b92507f000000000000000000000000000000000000000000000000000000000000000073ffffffffffffffffffffffffffffffffffffffff168673ffffffffffffffffffffffffffffffffffffffff161415611011577f000000000000000000000000000000000000000000000000000000000000000073ffffffffffffffffffffffffffffffffffffffff1663d0e30db0846040518263ffffffff1660e01b81526004016000604051808303818588803b158015611e3e57600080fd5b505af1158015611e52573d6000803e3d6000fd5b50505050505050949350505050565b60008082806020019051810190611e78919061362f565b9050611e9b73ffffffffffffffffffffffffffffffffffffffff87168286612e22565b6040517fd5bcb9b500000000000000000000000000000000000000000000000000000000815273ffffffffffffffffffffffffffffffffffffffff82169063d5bcb9b590610952908990899089906001903090600401613d55565b60008082806020019051810190611f0d919061362f565b9050611f3073ffffffffffffffffffffffffffffffffffffffff87168286612e22565b6040517f0621b4f600000000000000000000000000000000000000000000000000000000815273ffffffffffffffffffffffffffffffffffffffff821690630621b4f69061095290899088908a90600190600401613e3b565b60008082806020019051810190611fa0919061362f565b9050611fc373ffffffffffffffffffffffffffffffffffffffff87168286612e22565b6040517f0b2583c800000000000000000000000000000000000000000000000000000000815273ffffffffffffffffffffffffffffffffffffffff821690630b2583c8906109529089908990899060019042820190600401613d92565b6000806000808480602001905181019061203a919061379e565b9194509250905061206273ffffffffffffffffffffffffffffffffffffffff88168388612e22565b801561212557604080516000815260208101918290527f8dae73330000000000000000000000000000000000000000000000000000000090915273ffffffffffffffffffffffffffffffffffffffff831690638dae7333906120cc90899060019060248101614485565b602060405180830381600087803b1580156120e657600080fd5b505af11580156120fa573d6000803e3d6000fd5b505050506040513d601f19601f8201168201806040525081019061211e91906139f9565b9350612283565b6040517fca19ebd900000000000000000000000000000000000000000000000000000000815273ffffffffffffffffffffffffffffffffffffffff84169063ca19ebd9906121799085908a90600401613c59565b60206040518083038186803b15801561219157600080fd5b505afa1580156121a5573d6000803e3d6000fd5b505050506040513d601f19601f820116820180604052508101906121c991906139f9565b604080516000815260208101918290527fe67ce7060000000000000000000000000000000000000000000000000000000090915290945073ffffffffffffffffffffffffffffffffffffffff83169063e67ce7069061222f9087908a9060248101614485565b602060405180830381600087803b15801561224957600080fd5b505af115801561225d573d6000803e3d6000fd5b505050506040513d601f19601f8201168201806040525081019061228191906139f9565b505b5050509392505050565b6000806000838060200190518101906122a691906137ee565b90925090506122cc73ffffffffffffffffffffffffffffffffffffffff87168387613193565b8061237a576040517fdd93f59a00000000000000000000000000000000000000000000000000000000815273ffffffffffffffffffffffffffffffffffffffff83169063dd93f59a90612323903090600401613c11565b602060405180830381600087803b15801561233d57600080fd5b505af1158015612351573d6000803e3d6000fd5b505050506040513d601f19601f8201168201806040525081019061237591906139f9565b6109a4565b6040517fbd6015b400000000000000000000000000000000000000000000000000000000815273ffffffffffffffffffffffffffffffffffffffff83169063bd6015b490610952903090600401613c11565b600080606080848060200190518101906123e6919061374f565b80519194509250600211159050612429576040517f08c379a0000000000000000000000000000000000000000000000000000000008152600401610a0b90614053565b8573ffffffffffffffffffffffffffffffffffffffff168160018351038151811061245057fe5b602002602001015173ffffffffffffffffffffffffffffffffffffffff1614610a90576040517f08c379a0000000000000000000000000000000000000000000000000000000008152600401610a0b90614281565b600080606080848060200190518101906124bf919061374f565b80519194509250600211159050612502576040517f08c379a0000000000000000000000000000000000000000000000000000000008152600401610a0b90613f99565b8573ffffffffffffffffffffffffffffffffffffffff168160018351038151811061252957fe5b602002602001015173ffffffffffffffffffffffffffffffffffffffff1614806125ff575073eeeeeeeeeeeeeeeeeeeeeeeeeeeeeeeeeeeeeeee73ffffffffffffffffffffffffffffffffffffffff168160018351038151811061258957fe5b602002602001015173ffffffffffffffffffffffffffffffffffffffff161480156125ff57507f000000000000000000000000000000000000000000000000000000000000000073ffffffffffffffffffffffffffffffffffffffff168673ffffffffffffffffffffffffffffffffffffffff16145b612635576040517f08c379a0000000000000000000000000000000000000000000000000000000008152600401610a0b9061416a565b600073eeeeeeeeeeeeeeeeeeeeeeeeeeeeeeeeeeeeeeee73ffffffffffffffffffffffffffffffffffffffff168260008151811061266f57fe5b602002602001015173ffffffffffffffffffffffffffffffffffffffff16141561273f576040517f2e1a7d4d00000000000000000000000000000000000000000000000000000000815273ffffffffffffffffffffffffffffffffffffffff7f00000000000000000000000000000000000000000000000000000000000000001690632e1a7d4d906127059089906004016143d6565b600060405180830381600087803b15801561271f57600080fd5b505af1158015612733573d6000803e3d6000fd5b5050505085905061275e565b61275e8260008151811061274f57fe5b60200260200101518488612e22565b6040517fb77d239b00000000000000000000000000000000000000000000000000000000815273ffffffffffffffffffffffffffffffffffffffff84169063b77d239b9083906127be9086908b9060019030906000908190600401613c7f565b6020604051808303818588803b1580156127d757600080fd5b505af11580156127eb573d6000803e3d6000fd5b50505050506040513d601f19601f8201168201806040525081019061281091906139f9565b935073eeeeeeeeeeeeeeeeeeeeeeeeeeeeeeeeeeeeeeee73ffffffffffffffffffffffffffffffffffffffff168260018451038151811061284d57fe5b602002602001015173ffffffffffffffffffffffffffffffffffffffff161415612283577f000000000000000000000000000000000000000000000000000000000000000073ffffffffffffffffffffffffffffffffffffffff1663d0e30db0856040518263ffffffff1660e01b81526004016000604051808303818588803b1580156128d957600080fd5b505af11580156128ed573d6000803e3d6000fd5b50505050505050509392505050565b6000806000838060200190518101906129159190613a11565b91509150612924878287613193565b6040517f9f44296a00000000000000000000000000000000000000000000000000000000815273ffffffffffffffffffffffffffffffffffffffff821690639f44296a90849061297a908a903090600401613c32565b60e0604051808303818588803b15801561299357600080fd5b505af11580156129a7573d6000803e3d6000fd5b50505050506040513d601f19601f820116820180604052508101906129cc9190613a58565b50909998505050505050505050565b60006129e5613431565b828060200190518101906129f9919061399c565b8051909150612a209073ffffffffffffffffffffffffffffffffffffffff87169086612e22565b60006060826000015173ffffffffffffffffffffffffffffffffffffffff1683602001518460400151856060015189600142604051602401612a66959493929190613f08565b604080517fffffffffffffffffffffffffffffffffffffffffffffffffffffffffffffffe08184030181529181526020820180517bffffffffffffffffffffffffffffffffffffffffffffffffffffffff167fffffffff00000000000000000000000000000000000000000000000000000000909416939093179092529051612aef9190613bf5565b6000604051808303816000865af19150503d8060008114612b2c576040519150601f19603f3d011682016040523d82523d6000602084013e612b31565b606091505b509150915081612b4457612b4481612efe565b80806020019051810190612b5891906139f9565b979650505050505050565b60008060608084806020019051810190612b7d919061364b565b8151929550909350915060011115612bc1576040517f08c379a0000000000000000000000000000000000000000000000000000000008152600401610a0b906141c7565b8151600101815114612bff576040517f08c379a0000000000000000000000000000000000000000000000000000000008152600401610a0b9061410d565b8673ffffffffffffffffffffffffffffffffffffffff1681600183510381518110612c2657fe5b602002602001015173ffffffffffffffffffffffffffffffffffffffff1614612c7b576040517f08c379a0000000000000000000000000000000000000000000000000000000008152600401610a0b90613ff6565b612c8d838783600081518110610aa257fe5b6040517fceb757d500000000000000000000000000000000000000000000000000000000815260609073ffffffffffffffffffffffffffffffffffffffff85169063ceb757d590612ced908a9060019088908890309042906004016143df565b600060405180830381600087803b158015612d0757600080fd5b505af1158015612d1b573d6000803e3d6000fd5b505050506040513d6000823e601f3d9081017fffffffffffffffffffffffffffffffffffffffffffffffffffffffffffffffe0168201604052612d6191908101906136bf565b905080600182510381518110612d7357fe5b60200260200101519450505050509392505050565b600080606083806020019051810190612da1919061382b565b9092509050612dc773ffffffffffffffffffffffffffffffffffffffff88168387613193565b6040517f65d02b0400000000000000000000000000000000000000000000000000000000815273ffffffffffffffffffffffffffffffffffffffff8316906365d02b0490610fbc908a908a9030906001908890600401613d0e565b6040517fdd62ed3e000000000000000000000000000000000000000000000000000000008152819073ffffffffffffffffffffffffffffffffffffffff85169063dd62ed3e90612e789030908790600401613c32565b60206040518083038186803b158015612e9057600080fd5b505afa158015612ea4573d6000803e3d6000fd5b505050506040513d601f19601f82011682018060405250810190612ec891906139f9565b1015612ef957612ef983837fffffffffffffffffffffffffffffffffffffffffffffffffffffffffffffffff61323f565b505050565b805160208201fd5b600082821115612f2457612f24612f1f6002858561325c565b612efe565b508082035b92915050565b60007f000000000000000000000000000000000000000000000000000000000000000073ffffffffffffffffffffffffffffffffffffffff168373ffffffffffffffffffffffffffffffffffffffff161461302b576040517f06f2bf6200000000000000000000000000000000000000000000000000000000815273ffffffffffffffffffffffffffffffffffffffff8516906306f2bf6290612fd6908690600401613c11565b60206040518083038186803b158015612fee57600080fd5b505afa158015613002573d6000803e3d6000fd5b505050506040513d601f19601f82011682018060405250810190613026919061362f565b6130cd565b6040517f06f2bf6200000000000000000000000000000000000000000000000000000000815273ffffffffffffffffffffffffffffffffffffffff8516906306f2bf629061307d908590600401613c11565b60206040518083038186803b15801561309557600080fd5b505afa1580156130a9573d6000803e3d6000fd5b505050506040513d601f19601f820116820180604052508101906130cd919061362f565b905073ffffffffffffffffffffffffffffffffffffffff8116610bc1576040517f08c379a0000000000000000000000000000000000000000000000000000000008152600401610a0b90613f62565b600082820183811015610bc157610bc1612f1f6000868661325c565b60008261314757506000612f29565b8282028284828161315457fe5b0414610bc157610bc1612f1f6001868661325c565b60008161317f5761317f612f1f6003858561325c565b600082848161318a57fe5b04949350505050565b606063a9059cbb60e01b83836040516024016131b0929190613c59565b604080517fffffffffffffffffffffffffffffffffffffffffffffffffffffffffffffffe08184030181529190526020810180517bffffffffffffffffffffffffffffffffffffffffffffffffffffffff167fffffffff000000000000000000000000000000000000000000000000000000009093169290921790915290506132398482613301565b50505050565b606063095ea7b360e01b83836040516024016131b0929190613c59565b606063e946c1bb60e01b84848460405160240161327b93929190613eb3565b604080517fffffffffffffffffffffffffffffffffffffffffffffffffffffffffffffffe08184030181529190526020810180517bffffffffffffffffffffffffffffffffffffffffffffffffffffffff167fffffffff000000000000000000000000000000000000000000000000000000009093169290921790915290509392505050565b600060608373ffffffffffffffffffffffffffffffffffffffff168360405161332a9190613bf5565b6000604051808303816000865af19150503d8060008114613367576040519150601f19603f3d011682016040523d82523d6000602084013e61336c565b606091505b509150915081801561338257506133828161339b565b1561338e575050613397565b61323981612efe565b5050565b60008151600014156133af575060016133dc565b60208251106133dc5760006133c58360006133e1565b905080600114156133da5760019150506133dc565b505b919050565b6000610bc183836000816020018351101561340957613409612f1f6005855185602001613412565b50016020015190565b6060632800659560e01b84848460405160240161327b93929190613ed5565b60408051608081018252600080825260208201819052918101829052606081019190915290565b604080518082019091526000808252602082015290565b6040805160c08101909152600080825260208201908152602001600073ffffffffffffffffffffffffffffffffffffffff168152602001600073ffffffffffffffffffffffffffffffffffffffff16815260200160008152602001606081525090565b600082601f8301126134e2578081fd5b81516134f56134f082614523565b6144fc565b81815291506020808301908481018184028601820187101561351657600080fd5b60005b8481101561353e57815161352c816145b1565b84529282019290820190600101613519565b505050505092915050565b600082601f830112613559578081fd5b81516135676134f082614543565b915080825283602082850101111561357e57600080fd5b61358f816020840160208601614585565b5092915050565b8035612f29816145b1565b6000608082840312156135b2578081fd5b6135bc60806144fc565b905081516135c9816145b1565b815260208201517fffffffff00000000000000000000000000000000000000000000000000000000811681146135fe57600080fd5b60208201526040820151613611816145d6565b60408201526060820151613624816145d6565b606082015292915050565b600060208284031215613640578081fd5b8151610bc1816145b1565b60008060006060848603121561365f578182fd5b835161366a816145b1565b602085015190935067ffffffffffffffff80821115613687578384fd5b613693878388016134d2565b935060408601519150808211156136a8578283fd5b506136b5868287016134d2565b9150509250925092565b600060208083850312156136d1578182fd5b825167ffffffffffffffff8111156136e7578283fd5b8301601f810185136136f7578283fd5b80516137056134f082614523565b8181528381019083850185840285018601891015613721578687fd5b8694505b83851015613743578051835260019490940193918501918501613725565b50979650505050505050565b60008060408385031215613761578182fd5b825161376c816145b1565b602084015190925067ffffffffffffffff811115613788578182fd5b613794858286016134d2565b9150509250929050565b6000806000606084860312156137b2578081fd5b83516137bd816145b1565b60208501519093506137ce816145b1565b604085015190925080151581146137e3578182fd5b809150509250925092565b60008060408385031215613800578182fd5b825161380b816145b1565b60208401519092508015158114613820578182fd5b809150509250929050565b6000806040838503121561383d578182fd5b8251613848816145b1565b602084015190925067ffffffffffffffff811115613864578182fd5b61379485828601613549565b600060408284031215613881578081fd5b61388b60406144fc565b8251613896816145b1565b81526020928301519281019290925250919050565b600080600080608085870312156138c0578182fd5b843567ffffffffffffffff808211156138d7578384fd5b90860190608082890312156138ea578384fd5b6138f460806144fc565b82358152602080840135818301526040840135604083015260608401358381111561391d578687fd5b80850194505089601f850112613931578586fd5b833592506139416134f084614543565b8381528a82858701011115613954578687fd5b838286018383013786828583010152806060840152508197506139798a828b01613596565b96505050505061398c8660408701613596565b9396929550929360600135925050565b6000608082840312156139ad578081fd5b610bc183836135a1565b6000604082840312156139c8578081fd5b6139d260406144fc565b82516139dd816145b1565b815260208301516139ed816145b1565b60208201529392505050565b600060208284031215613a0a578081fd5b5051919050565b60008060408385031215613a23578182fd5b825191506020830151613820816145b1565b60008060408385031215613a47578182fd5b505080516020909101519092909150565b60008060008060e08587031215613a6d578182fd5b8451935060208086015193506040860151925086607f870112613a8e578182fd5b613a9860806144fc565b80606088018960e08a011115613aac578485fd5b845b6004811015613acb57815184529284019290840190600101613aae565b505080935050505092959194509250565b600060208284031215613aed578081fd5b815160ff81168114610bc1578182fd5b73ffffffffffffffffffffffffffffffffffffffff169052565b6000815180845260208085019450808401835b83811015613b5c57815173ffffffffffffffffffffffffffffffffffffffff1687529582019590820190600101613b2a565b509495945050505050565b60008151808452613b7f816020860160208601614585565b601f017fffffffffffffffffffffffffffffffffffffffffffffffffffffffffffffffe0169290920160200192915050565b73ffffffffffffffffffffffffffffffffffffffff808251168352602082015115156020840152806040830151166040840152506060810151151560608301525050565b60008251613c07818460208701614585565b9190910192915050565b73ffffffffffffffffffffffffffffffffffffffff91909116815260200190565b73ffffffffffffffffffffffffffffffffffffffff92831681529116602082015260400190565b73ffffffffffffffffffffffffffffffffffffffff929092168252602082015260400190565b600060c08252613c9260c0830189613b17565b602083019790975250604081019490945273ffffffffffffffffffffffffffffffffffffffff92831660608501529116608083015260a090910152919050565b94855273ffffffffffffffffffffffffffffffffffffffff93841660208601529190921660408401526060830191909152608082015260a00190565b600073ffffffffffffffffffffffffffffffffffffffff8088168352808716602084015280861660408401525083606083015260a06080830152612b5860a0830184613b67565b73ffffffffffffffffffffffffffffffffffffffff9586168152938516602085015260408401929092526060830152909116608082015260a00190565b73ffffffffffffffffffffffffffffffffffffffff958616815293909416602084015260408301919091526060820152608081019190915260a00190565b600061010073ffffffffffffffffffffffffffffffffffffffff808c1684528a6020850152808a16604085015280891660608501528760808501528660a085015280861660c0850152508060e0840152613e2c81840185613b67565b9b9a5050505050505050505050565b73ffffffffffffffffffffffffffffffffffffffff9485168152602081019390935292166040820152606081019190915260800190565b73ffffffffffffffffffffffffffffffffffffffff958616815260208101949094529190931660408301526060820192909252608081019190915260a00190565b6060810160048510613ec157fe5b938152602081019290925260409091015290565b6060810160088510613ec157fe5b600f94850b81529290930b6020830152604082015260ff909116606082015260800190565b600f95860b81529390940b6020840152604083019190915260ff166060820152608081019190915260a00190565b928352602083019190915273ffffffffffffffffffffffffffffffffffffffff16604082015260600190565b60208082526018908201527f4d6978696e556e69737761702f4e4f5f45584348414e47450000000000000000604082015260600190565b6020808252602c908201527f4d6978696e42616e636f722f504154485f4c454e4754485f4d5553545f42455f60408201527f41545f4c454153545f54574f0000000000000000000000000000000000000000606082015260800190565b6020808252603a908201527f4d6978696e4b79626572446d6d2f4c4153545f454c454d454e545f4f465f504160408201527f54485f4d5553545f4d415443485f4f55545055545f544f4b454e000000000000606082015260800190565b6020808252602f908201527f4d6978696e43727970746f436f6d2f504154485f4c454e4754485f4d5553545f60408201527f42455f41545f4c454153545f54574f0000000000000000000000000000000000606082015260800190565b6020808252602f908201527f4d6978696e556e697377617056322f504154485f4c454e4754485f4d5553545f60408201527f42455f41545f4c454153545f54574f0000000000000000000000000000000000606082015260800190565b60208082526023908201527f4d6978696e4b79626572446d6d2f41525241595f4c454e4754485f4d49534d4160408201527f5443480000000000000000000000000000000000000000000000000000000000606082015260800190565b60208082526038908201527f4d6978696e42616e636f722f4c4153545f454c454d454e545f4f465f5041544860408201527f5f4d5553545f4d415443485f4f55545055545f544f4b454e0000000000000000606082015260800190565b6020808252602f908201527f4d6978696e4b79626572446d6d2f504f4f4c535f4c454e4754485f4d5553545f60408201527f42455f41545f4c454153545f4f4e450000000000000000000000000000000000606082015260800190565b6020808252603b908201527f4d6978696e556e697377617056322f4c4153545f454c454d454e545f4f465f5060408201527f4154485f4d5553545f4d415443485f4f55545055545f544f4b454e0000000000606082015260800190565b6020808252603b908201527f4d6978696e43727970746f436f6d2f4c4153545f454c454d454e545f4f465f5060408201527f4154485f4d5553545f4d415443485f4f55545055545f544f4b454e0000000000606082015260800190565b600060208252825160a060208401526142fa60c0840182613b67565b905073ffffffffffffffffffffffffffffffffffffffff60208501511660408401526040840151606084015260608401516080840152608084015160a08401528091505092915050565b600060e08252855160e083015260208601516002811061436057fe5b6101008301526040860151614379610120840182613afd565b50606086015161438d610140840182613afd565b50608086015161016083015260a086015160c06101808401526143b46101a0840182613b67565b9150506143c46020830186613bb1565b60a082019390935260c0015292915050565b90815260200190565b600087825286602083015260c060408301526143fe60c0830187613b17565b82810360608401526144108187613b17565b73ffffffffffffffffffffffffffffffffffffffff959095166080840152505060a00152949350505050565b600086825285602083015260a0604083015261445b60a0830186613b17565b73ffffffffffffffffffffffffffffffffffffffff94909416606083015250608001529392505050565b6000848252836020830152606060408301526144a46060830184613b67565b95945050505050565b94855260208501939093526040840191909152606083015273ffffffffffffffffffffffffffffffffffffffff16608082015260a00190565b9283526020830191909152604082015260600190565b60405181810167ffffffffffffffff8111828210171561451b57600080fd5b604052919050565b600067ffffffffffffffff821115614539578081fd5b5060209081020190565b600067ffffffffffffffff821115614559578081fd5b50601f017fffffffffffffffffffffffffffffffffffffffffffffffffffffffffffffffe01660200190565b60005b838110156145a0578181015183820152602001614588565b838111156132395750506000910152565b73ffffffffffffffffffffffffffffffffffffffff811681146145d357600080fd5b50565b80600f0b81146145d357600080fdfea2646970667358221220c69c358872a7eb86d1c0794fd3a98d8d4b2d78f3e8a30f6fa437094fe3e372d964736f6c634300060c0033",
  "devdoc": {
    "kind": "dev",
    "methods": {},
    "version": 1
  },
  "userdoc": {
    "kind": "user",
    "methods": {},
    "version": 1
  },
  "storageLayout": {
    "storage": [],
    "types": null
  }
}