{
  "address": "0x84cAc672491b45c9Ca0193606F988Cd4b5aAE4a0",
  "abi": [
    {
      "inputs": [
        {
          "internalType": "contract IEtherTokenV06",
          "name": "weth",
          "type": "address"
        },
        {
          "internalType": "contract IStaking",
          "name": "staking",
          "type": "address"
        }
      ],
      "stateMutability": "nonpayable",
      "type": "constructor"
    },
    {
      "inputs": [],
      "name": "FEE_COLLECTOR_INIT_CODE_HASH",
      "outputs": [
        {
          "internalType": "bytes32",
          "name": "",
          "type": "bytes32"
        }
      ],
      "stateMutability": "view",
      "type": "function"
    },
    {
      "inputs": [
        {
          "internalType": "bytes32",
          "name": "poolId",
          "type": "bytes32"
        }
      ],
      "name": "getFeeCollector",
      "outputs": [
        {
          "internalType": "contract FeeCollector",
          "name": "feeCollector",
          "type": "address"
        }
      ],
      "stateMutability": "view",
      "type": "function"
    },
    {
      "inputs": [
        {
          "internalType": "bytes32",
          "name": "poolId",
          "type": "bytes32"
        }
      ],
      "name": "prepareFeeCollectorToPayFees",
      "outputs": [
        {
          "internalType": "contract FeeCollector",
          "name": "feeCollector",
          "type": "address"
        }
      ],
      "stateMutability": "nonpayable",
      "type": "function"
    }
  ],
  "transactionHash": "0xd8b001ebff39f1fdf64b178cc764a1bc31a308f70dfd72078174e71994d636ce",
  "args": [
    "0x4fac0386c4045b52756b206db3148201e42b3f62",
    "0x0000000000000000000000000000000000000000"
  ],
  "solcInputHash": "a7adc114f49ceae927e51ca288bee8b8",
  "bytecode": "0x60e060405234801561001057600080fd5b5060405161262c38038061262c83398101604081905261002f91610088565b60405161003e6020820161007b565b601f1982820381018352601f909101166040528051602091909101206080526001600160601b0319606092831b811660a052911b1660c0526100d9565b611060806115cc83390190565b6000806040838503121561009a578182fd5b82516100a5816100c1565b60208401519092506100b6816100c1565b809150509250929050565b6001600160a01b03811681146100d657600080fd5b50565b60805160a05160601c60c05160601c6114b761011560003980610146525080610124528061020d52508061027652806102a352506114b76000f3fe608060405234801561001057600080fd5b50600436106100415760003560e01c8063319bed9a14610046578063713192b41461006f578063f2541a8c14610082575b600080fd5b61005961005436600461034a565b610097565b60405161006691906103cf565b60405180910390f35b61005961007d36600461034a565b61026e565b61008a6102a1565b60405161006691906103c6565b60006100a28261026e565b9050803b806101a357826040516100b89061033d565b8190604051809103906000f59050801580156100d8573d6000803e3d6000fd5b50506040517f6133f98500000000000000000000000000000000000000000000000000000000815273ffffffffffffffffffffffffffffffffffffffff831690636133f98590610170907f0000000000000000000000000000000000000000000000000000000000000000907f00000000000000000000000000000000000000000000000000000000000000009088906004016103f0565b600060405180830381600087803b15801561018a57600080fd5b505af115801561019e573d6000803e3d6000fd5b505050505b60018273ffffffffffffffffffffffffffffffffffffffff16311115610268576040517f4a9023a700000000000000000000000000000000000000000000000000000000815273ffffffffffffffffffffffffffffffffffffffff831690634a9023a790610235907f0000000000000000000000000000000000000000000000000000000000000000906004016103cf565b600060405180830381600087803b15801561024f57600080fd5b505af1158015610263573d6000803e3d6000fd5b505050505b50919050565b600061029b307f0000000000000000000000000000000000000000000000000000000000000000846102c5565b92915050565b7f000000000000000000000000000000000000000000000000000000000000000081565b6040516000906102ff907fff0000000000000000000000000000000000000000000000000000000000000090869085908790602001610362565b604080517fffffffffffffffffffffffffffffffffffffffffffffffffffffffffffffffe08184030181529190528051602090910120949350505050565b6110608061042283390190565b60006020828403121561035b578081fd5b5035919050565b7fff0000000000000000000000000000000000000000000000000000000000000094909416845260609290921b7fffffffffffffffffffffffffffffffffffffffff0000000000000000000000001660018401526015830152603582015260550190565b90815260200190565b73ffffffffffffffffffffffffffffffffffffffff91909116815260200190565b73ffffffffffffffffffffffffffffffffffffffff938416815291909216602082015260408101919091526060019056fe60806040523480156200001157600080fd5b50600080546001600160a01b03191633908117909155620000329062000038565b620001cb565b6001600160a01b038116620000715762000071620000606200013b60201b6200063e1760201c565b6200015960201b620006751760201c565b6001600160a01b03811660009081526001602052604090205460ff1615620000ad57620000ad62000060826200016160201b6200067d1760201c565b6001600160a01b0381166000818152600160208190526040808320805460ff19168317905560028054928301815583527f405787fa12a823e0f2b7631cc41b3ba8828b3321ca811111fa75cd3aa3bb5ace90910180546001600160a01b03191684179055513392917f3147867c59d17e8fa9d522465651d44aae0a9e38f902f3475b97e58072f0ed4c91a350565b60408051808201909152600481526315d953f960e21b602082015290565b805160208201fd5b606063de16f1a060e01b826040516024016200017e9190620001b7565b60408051601f198184030181529190526020810180516001600160e01b03166001600160e01b0319909316929092179091529050919050565b6001600160a01b0391909116815260200190565b610e8580620001db6000396000f3fe6080604052600436106100b55760003560e01c80638da5cb5b11610069578063b91816111161004e578063b9181611146101ae578063d39de6e9146101db578063f2fde38b146101fd576100bc565b80638da5cb5b146101795780639ad267441461018e576100bc565b80634a9023a71161009a5780634a9023a7146101195780636133f985146101395780637071293914610159576100bc565b806342f1181e146100c1578063494503d4146100e3576100bc565b366100bc57005b600080fd5b3480156100cd57600080fd5b506100e16100dc366004610c7d565b61021d565b005b3480156100ef57600080fd5b506101036100fe366004610d2b565b610231565b6040516101109190610d43565b60405180910390f35b34801561012557600080fd5b506100e1610134366004610c7d565b610265565b34801561014557600080fd5b506100e1610154366004610ceb565b6102d7565b34801561016557600080fd5b506100e1610174366004610c7d565b61042f565b34801561018557600080fd5b506101036104e9565b34801561019a57600080fd5b506100e16101a9366004610ca0565b610505565b3480156101ba57600080fd5b506101ce6101c9366004610c7d565b610517565b6040516101109190610e0b565b3480156101e757600080fd5b506101f061052c565b6040516101109190610db1565b34801561020957600080fd5b506100e1610218366004610c7d565b61059b565b61022561071c565b61022e81610765565b50565b6002818154811061023e57fe5b60009182526020909120015473ffffffffffffffffffffffffffffffffffffffff16905081565b61026d610896565b471561022e578073ffffffffffffffffffffffffffffffffffffffff1663d0e30db0476040518263ffffffff1660e01b81526004016000604051808303818588803b1580156102bb57600080fd5b505af11580156102cf573d6000803e3d6000fd5b505050505050565b6102df610896565b6040517f095ea7b300000000000000000000000000000000000000000000000000000000815273ffffffffffffffffffffffffffffffffffffffff84169063095ea7b3906103539085907fffffffffffffffffffffffffffffffffffffffffffffffffffffffffffffffff90600401610d8b565b602060405180830381600087803b15801561036d57600080fd5b505af1158015610381573d6000803e3d6000fd5b505050506040513d601f19601f820116820180604052508101906103a59190610ccb565b506040517fb3e3337900000000000000000000000000000000000000000000000000000000815273ffffffffffffffffffffffffffffffffffffffff83169063b3e33379906103f8908490600401610e16565b600060405180830381600087803b15801561041257600080fd5b505af1158015610426573d6000803e3d6000fd5b50505050505050565b61043761071c565b73ffffffffffffffffffffffffffffffffffffffff811660009081526001602052604090205460ff1661047557610475610470826108b9565b610675565b60005b6002548110156104e5578173ffffffffffffffffffffffffffffffffffffffff16600282815481106104a657fe5b60009182526020909120015473ffffffffffffffffffffffffffffffffffffffff1614156104dd576104d882826108d4565b6104e5565b600101610478565b5050565b60005473ffffffffffffffffffffffffffffffffffffffff1681565b61050d61071c565b6104e582826108d4565b60016020526000908152604090205460ff1681565b6060600280548060200260200160405190810160405280929190818152602001828054801561059157602002820191906000526020600020905b815473ffffffffffffffffffffffffffffffffffffffff168152600190910190602001808311610566575b5050505050905090565b6105a361071c565b73ffffffffffffffffffffffffffffffffffffffff81166105ce576105c9610470610b4f565b61022e565b600080547fffffffffffffffffffffffff00000000000000000000000000000000000000001673ffffffffffffffffffffffffffffffffffffffff83169081178255604051909133917f8be0079c531659141344cd1fd0a4f28419497f9722a3daafe3b4186f6b6457e09190a350565b60408051808201909152600481527f57654fe400000000000000000000000000000000000000000000000000000000602082015290565b805160208201fd5b606063de16f1a060e01b826040516024016106989190610d43565b604080517fffffffffffffffffffffffffffffffffffffffffffffffffffffffffffffffe08184030181529190526020810180517bffffffffffffffffffffffffffffffffffffffffffffffffffffffff167fffffffff00000000000000000000000000000000000000000000000000000000909316929092179091529050919050565b60005473ffffffffffffffffffffffffffffffffffffffff163314610763576000546107639061047090339073ffffffffffffffffffffffffffffffffffffffff16610b86565b565b73ffffffffffffffffffffffffffffffffffffffff811661078b5761078b61047061063e565b73ffffffffffffffffffffffffffffffffffffffff811660009081526001602052604090205460ff16156107c5576107c56104708261067d565b73ffffffffffffffffffffffffffffffffffffffff8116600081815260016020819052604080832080547fffffffffffffffffffffffffffffffffffffffffffffffffffffffffffffff00168317905560028054928301815583527f405787fa12a823e0f2b7631cc41b3ba8828b3321ca811111fa75cd3aa3bb5ace90910180547fffffffffffffffffffffffff00000000000000000000000000000000000000001684179055513392917f3147867c59d17e8fa9d522465651d44aae0a9e38f902f3475b97e58072f0ed4c91a350565b3360009081526001602052604090205460ff166107635761076361047033610c28565b606063eb5108a260e01b826040516024016106989190610d43565b73ffffffffffffffffffffffffffffffffffffffff821660009081526001602052604090205460ff1661090d5761090d610470836108b9565b60025481106109285761092861047082600280549050610c43565b8173ffffffffffffffffffffffffffffffffffffffff166002828154811061094c57fe5b60009182526020909120015473ffffffffffffffffffffffffffffffffffffffff16146109ae576109ae6104706002838154811061098657fe5b60009182526020909120015473ffffffffffffffffffffffffffffffffffffffff1684610c60565b73ffffffffffffffffffffffffffffffffffffffff8216600090815260016020526040902080547fffffffffffffffffffffffffffffffffffffffffffffffffffffffffffffff00169055600280547fffffffffffffffffffffffffffffffffffffffffffffffffffffffffffffffff8101908110610a2957fe5b6000918252602090912001546002805473ffffffffffffffffffffffffffffffffffffffff9092169183908110610a5c57fe5b9060005260206000200160006101000a81548173ffffffffffffffffffffffffffffffffffffffff021916908373ffffffffffffffffffffffffffffffffffffffff1602179055506002805480610aaf57fe5b60008281526020812082017fffffffffffffffffffffffffffffffffffffffffffffffffffffffffffffffff90810180547fffffffffffffffffffffffff0000000000000000000000000000000000000000169055909101909155604051339173ffffffffffffffffffffffffffffffffffffffff8516917f1f32c1b084e2de0713b8fb16bd46bb9df710a3dbeae2f3ca93af46e016dcc6b09190a35050565b60408051808201909152600481527fe69edc3e00000000000000000000000000000000000000000000000000000000602082015290565b6060631de45ad160e01b8383604051602401610ba3929190610d64565b604080517fffffffffffffffffffffffffffffffffffffffffffffffffffffffffffffffe08184030181529190526020810180517bffffffffffffffffffffffffffffffffffffffffffffffffffffffff167fffffffff0000000000000000000000000000000000000000000000000000000090931692909217909152905092915050565b606063b65a25b960e01b826040516024016106989190610d43565b606063e9f8377160e01b8383604051602401610ba3929190610e1f565b606063140a84db60e01b8383604051602401610ba3929190610d64565b600060208284031215610c8e578081fd5b8135610c9981610e2d565b9392505050565b60008060408385031215610cb2578081fd5b8235610cbd81610e2d565b946020939093013593505050565b600060208284031215610cdc578081fd5b81518015158114610c99578182fd5b600080600060608486031215610cff578081fd5b8335610d0a81610e2d565b92506020840135610d1a81610e2d565b929592945050506040919091013590565b600060208284031215610d3c578081fd5b5035919050565b73ffffffffffffffffffffffffffffffffffffffff91909116815260200190565b73ffffffffffffffffffffffffffffffffffffffff92831681529116602082015260400190565b73ffffffffffffffffffffffffffffffffffffffff929092168252602082015260400190565b6020808252825182820181905260009190848201906040850190845b81811015610dff57835173ffffffffffffffffffffffffffffffffffffffff1683529284019291840191600101610dcd565b50909695505050505050565b901515815260200190565b90815260200190565b918252602082015260400190565b73ffffffffffffffffffffffffffffffffffffffff8116811461022e57600080fdfea26469706673582212209cdd7f0baf03d38eed5989a857344cc73cb7049e93b9767d60c4fd98e6c9604064736f6c634300060c0033a2646970667358221220315b2866d7e578167595bb82f7299ad813928b82eae87db552a81a748101de4a64736f6c634300060c003360806040523480156200001157600080fd5b50600080546001600160a01b03191633908117909155620000329062000038565b620001cb565b6001600160a01b038116620000715762000071620000606200013b60201b6200063e1760201c565b6200015960201b620006751760201c565b6001600160a01b03811660009081526001602052604090205460ff1615620000ad57620000ad62000060826200016160201b6200067d1760201c565b6001600160a01b0381166000818152600160208190526040808320805460ff19168317905560028054928301815583527f405787fa12a823e0f2b7631cc41b3ba8828b3321ca811111fa75cd3aa3bb5ace90910180546001600160a01b03191684179055513392917f3147867c59d17e8fa9d522465651d44aae0a9e38f902f3475b97e58072f0ed4c91a350565b60408051808201909152600481526315d953f960e21b602082015290565b805160208201fd5b606063de16f1a060e01b826040516024016200017e9190620001b7565b60408051601f198184030181529190526020810180516001600160e01b03166001600160e01b0319909316929092179091529050919050565b6001600160a01b0391909116815260200190565b610e8580620001db6000396000f3fe6080604052600436106100b55760003560e01c80638da5cb5b11610069578063b91816111161004e578063b9181611146101ae578063d39de6e9146101db578063f2fde38b146101fd576100bc565b80638da5cb5b146101795780639ad267441461018e576100bc565b80634a9023a71161009a5780634a9023a7146101195780636133f985146101395780637071293914610159576100bc565b806342f1181e146100c1578063494503d4146100e3576100bc565b366100bc57005b600080fd5b3480156100cd57600080fd5b506100e16100dc366004610c7d565b61021d565b005b3480156100ef57600080fd5b506101036100fe366004610d2b565b610231565b6040516101109190610d43565b60405180910390f35b34801561012557600080fd5b506100e1610134366004610c7d565b610265565b34801561014557600080fd5b506100e1610154366004610ceb565b6102d7565b34801561016557600080fd5b506100e1610174366004610c7d565b61042f565b34801561018557600080fd5b506101036104e9565b34801561019a57600080fd5b506100e16101a9366004610ca0565b610505565b3480156101ba57600080fd5b506101ce6101c9366004610c7d565b610517565b6040516101109190610e0b565b3480156101e757600080fd5b506101f061052c565b6040516101109190610db1565b34801561020957600080fd5b506100e1610218366004610c7d565b61059b565b61022561071c565b61022e81610765565b50565b6002818154811061023e57fe5b60009182526020909120015473ffffffffffffffffffffffffffffffffffffffff16905081565b61026d610896565b471561022e578073ffffffffffffffffffffffffffffffffffffffff1663d0e30db0476040518263ffffffff1660e01b81526004016000604051808303818588803b1580156102bb57600080fd5b505af11580156102cf573d6000803e3d6000fd5b505050505050565b6102df610896565b6040517f095ea7b300000000000000000000000000000000000000000000000000000000815273ffffffffffffffffffffffffffffffffffffffff84169063095ea7b3906103539085907fffffffffffffffffffffffffffffffffffffffffffffffffffffffffffffffff90600401610d8b565b602060405180830381600087803b15801561036d57600080fd5b505af1158015610381573d6000803e3d6000fd5b505050506040513d601f19601f820116820180604052508101906103a59190610ccb565b506040517fb3e3337900000000000000000000000000000000000000000000000000000000815273ffffffffffffffffffffffffffffffffffffffff83169063b3e33379906103f8908490600401610e16565b600060405180830381600087803b15801561041257600080fd5b505af1158015610426573d6000803e3d6000fd5b50505050505050565b61043761071c565b73ffffffffffffffffffffffffffffffffffffffff811660009081526001602052604090205460ff1661047557610475610470826108b9565b610675565b60005b6002548110156104e5578173ffffffffffffffffffffffffffffffffffffffff16600282815481106104a657fe5b60009182526020909120015473ffffffffffffffffffffffffffffffffffffffff1614156104dd576104d882826108d4565b6104e5565b600101610478565b5050565b60005473ffffffffffffffffffffffffffffffffffffffff1681565b61050d61071c565b6104e582826108d4565b60016020526000908152604090205460ff1681565b6060600280548060200260200160405190810160405280929190818152602001828054801561059157602002820191906000526020600020905b815473ffffffffffffffffffffffffffffffffffffffff168152600190910190602001808311610566575b5050505050905090565b6105a361071c565b73ffffffffffffffffffffffffffffffffffffffff81166105ce576105c9610470610b4f565b61022e565b600080547fffffffffffffffffffffffff00000000000000000000000000000000000000001673ffffffffffffffffffffffffffffffffffffffff83169081178255604051909133917f8be0079c531659141344cd1fd0a4f28419497f9722a3daafe3b4186f6b6457e09190a350565b60408051808201909152600481527f57654fe400000000000000000000000000000000000000000000000000000000602082015290565b805160208201fd5b606063de16f1a060e01b826040516024016106989190610d43565b604080517fffffffffffffffffffffffffffffffffffffffffffffffffffffffffffffffe08184030181529190526020810180517bffffffffffffffffffffffffffffffffffffffffffffffffffffffff167fffffffff00000000000000000000000000000000000000000000000000000000909316929092179091529050919050565b60005473ffffffffffffffffffffffffffffffffffffffff163314610763576000546107639061047090339073ffffffffffffffffffffffffffffffffffffffff16610b86565b565b73ffffffffffffffffffffffffffffffffffffffff811661078b5761078b61047061063e565b73ffffffffffffffffffffffffffffffffffffffff811660009081526001602052604090205460ff16156107c5576107c56104708261067d565b73ffffffffffffffffffffffffffffffffffffffff8116600081815260016020819052604080832080547fffffffffffffffffffffffffffffffffffffffffffffffffffffffffffffff00168317905560028054928301815583527f405787fa12a823e0f2b7631cc41b3ba8828b3321ca811111fa75cd3aa3bb5ace90910180547fffffffffffffffffffffffff00000000000000000000000000000000000000001684179055513392917f3147867c59d17e8fa9d522465651d44aae0a9e38f902f3475b97e58072f0ed4c91a350565b3360009081526001602052604090205460ff166107635761076361047033610c28565b606063eb5108a260e01b826040516024016106989190610d43565b73ffffffffffffffffffffffffffffffffffffffff821660009081526001602052604090205460ff1661090d5761090d610470836108b9565b60025481106109285761092861047082600280549050610c43565b8173ffffffffffffffffffffffffffffffffffffffff166002828154811061094c57fe5b60009182526020909120015473ffffffffffffffffffffffffffffffffffffffff16146109ae576109ae6104706002838154811061098657fe5b60009182526020909120015473ffffffffffffffffffffffffffffffffffffffff1684610c60565b73ffffffffffffffffffffffffffffffffffffffff8216600090815260016020526040902080547fffffffffffffffffffffffffffffffffffffffffffffffffffffffffffffff00169055600280547fffffffffffffffffffffffffffffffffffffffffffffffffffffffffffffffff8101908110610a2957fe5b6000918252602090912001546002805473ffffffffffffffffffffffffffffffffffffffff9092169183908110610a5c57fe5b9060005260206000200160006101000a81548173ffffffffffffffffffffffffffffffffffffffff021916908373ffffffffffffffffffffffffffffffffffffffff1602179055506002805480610aaf57fe5b60008281526020812082017fffffffffffffffffffffffffffffffffffffffffffffffffffffffffffffffff90810180547fffffffffffffffffffffffff0000000000000000000000000000000000000000169055909101909155604051339173ffffffffffffffffffffffffffffffffffffffff8516917f1f32c1b084e2de0713b8fb16bd46bb9df710a3dbeae2f3ca93af46e016dcc6b09190a35050565b60408051808201909152600481527fe69edc3e00000000000000000000000000000000000000000000000000000000602082015290565b6060631de45ad160e01b8383604051602401610ba3929190610d64565b604080517fffffffffffffffffffffffffffffffffffffffffffffffffffffffffffffffe08184030181529190526020810180517bffffffffffffffffffffffffffffffffffffffffffffffffffffffff167fffffffff0000000000000000000000000000000000000000000000000000000090931692909217909152905092915050565b606063b65a25b960e01b826040516024016106989190610d43565b606063e9f8377160e01b8383604051602401610ba3929190610e1f565b606063140a84db60e01b8383604051602401610ba3929190610d64565b600060208284031215610c8e578081fd5b8135610c9981610e2d565b9392505050565b60008060408385031215610cb2578081fd5b8235610cbd81610e2d565b946020939093013593505050565b600060208284031215610cdc578081fd5b81518015158114610c99578182fd5b600080600060608486031215610cff578081fd5b8335610d0a81610e2d565b92506020840135610d1a81610e2d565b929592945050506040919091013590565b600060208284031215610d3c578081fd5b5035919050565b73ffffffffffffffffffffffffffffffffffffffff91909116815260200190565b73ffffffffffffffffffffffffffffffffffffffff92831681529116602082015260400190565b73ffffffffffffffffffffffffffffffffffffffff929092168252602082015260400190565b6020808252825182820181905260009190848201906040850190845b81811015610dff57835173ffffffffffffffffffffffffffffffffffffffff1683529284019291840191600101610dcd565b50909695505050505050565b901515815260200190565b90815260200190565b918252602082015260400190565b73ffffffffffffffffffffffffffffffffffffffff8116811461022e57600080fdfea26469706673582212209cdd7f0baf03d38eed5989a857344cc73cb7049e93b9767d60c4fd98e6c9604064736f6c634300060c0033",
  "devdoc": {
    "details": "A contract that manages `FeeCollector` contracts.",
    "kind": "dev",
    "methods": {
      "getFeeCollector(bytes32)": {
        "details": "Get the `FeeCollector` contract for a given pool ID. The contract      will not actually exist until `prepareFeeCollectorToPayFees()`      has been called once.",
        "params": {
          "poolId": "The pool ID associated with the staking pool."
        },
        "returns": {
          "feeCollector": "The `FeeCollector` contract instance."
        }
      },
      "prepareFeeCollectorToPayFees(bytes32)": {
        "details": "Deploy (if needed) a `FeeCollector` contract for `poolId`      and wrap its ETH into WETH. Anyone may call this.",
        "params": {
          "poolId": "The pool ID associated with the staking pool."
        },
        "returns": {
          "feeCollector": "The `FeeCollector` contract instance."
        }
      }
    },
    "stateVariables": {
      "FEE_COLLECTOR_INIT_CODE_HASH": {
        "details": "Hash of the fee collector init code."
      },
      "STAKING": {
        "details": "The staking contract."
      },
      "WETH": {
        "details": "The WETH contract."
      }
    },
    "version": 1
  },
  "userdoc": {
    "kind": "user",
    "methods": {},
    "version": 1
  },
  "storageLayout": {
    "storage": [],
    "types": null
  }
}