{
  "address": "0x938697811a0889967472078F8e449Aa79D7cff3d",
  "abi": [
    {
      "inputs": [
        {
          "internalType": "contract IBridgeAdapter",
          "name": "bridgeAdapter_",
          "type": "address"
        },
        {
          "internalType": "contract INativeOrdersFeature",
          "name": "zeroEx_",
          "type": "address"
        }
      ],
      "stateMutability": "nonpayable",
      "type": "constructor"
    },
    {
      "anonymous": false,
      "inputs": [
        {
          "indexed": false,
          "internalType": "bytes32",
          "name": "orderHash",
          "type": "bytes32"
        }
      ],
      "name": "ProtocolFeeUnfunded",
      "type": "event"
    },
    {
      "inputs": [],
      "name": "bridgeAdapter",
      "outputs": [
        {
          "internalType": "contract IBridgeAdapter",
          "name": "",
          "type": "address"
        }
      ],
      "stateMutability": "view",
      "type": "function"
    },
    {
      "inputs": [],
      "name": "deployer",
      "outputs": [
        {
          "internalType": "address",
          "name": "",
          "type": "address"
        }
      ],
      "stateMutability": "view",
      "type": "function"
    },
    {
      "inputs": [
        {
          "internalType": "address payable",
          "name": "ethRecipient",
          "type": "address"
        }
      ],
      "name": "die",
      "outputs": [],
      "stateMutability": "nonpayable",
      "type": "function"
    },
    {
      "inputs": [
        {
          "components": [
            {
              "internalType": "address payable",
              "name": "sender",
              "type": "address"
            },
            {
              "internalType": "address payable",
              "name": "taker",
              "type": "address"
            },
            {
              "internalType": "bytes",
              "name": "data",
              "type": "bytes"
            }
          ],
          "internalType": "struct IERC20Transformer.TransformContext",
          "name": "context",
          "type": "tuple"
        }
      ],
      "name": "transform",
      "outputs": [
        {
          "internalType": "bytes4",
          "name": "magicBytes",
          "type": "bytes4"
        }
      ],
      "stateMutability": "nonpayable",
      "type": "function"
    },
    {
      "inputs": [],
      "name": "zeroEx",
      "outputs": [
        {
          "internalType": "contract INativeOrdersFeature",
          "name": "",
          "type": "address"
        }
      ],
      "stateMutability": "view",
      "type": "function"
    }
  ],
  "transactionHash": "0x89cc2ab952756bbba4ce5fe0b4f2c18be580d8d5b14069e43d524740f12a2639",
  "args": [
    "0x9F282aaC372d965a61439630fd343fa6DC8d6DEb",
    "0x21d1C5A6CeD48B9b05aEF5eFD88FB1ED5EC46D7E"
  ],
  "solcInputHash": "da5a848fe674807e5781dfae7816be96",
  "bytecode": "0x6101006040523480156200001257600080fd5b50604051620027e5380380620027e5833981016040819052620000359162000060565b33606090811b60805230811b60a0526001600160601b031992811b831660c0521b1660e052620000b7565b6000806040838503121562000073578182fd5b825162000080816200009e565b602084015190925062000093816200009e565b809150509250929050565b6001600160a01b0381168114620000b457600080fd5b50565b60805160601c60a05160601c60c05160601c60e05160601c6126c0620001256000398060d1528061026852806102c75280610ee25280610fa7528061119e52508061080e5280610cc55250806108b252806108e05250806108485280610876528061091f52506126c06000f3fe608060405234801561001057600080fd5b50600436106100675760003560e01c8063be7dc09b11610050578063be7dc09b146100aa578063c9353cb5146100b2578063d5f39488146100c757610067565b806352ab413b1461006c578063832b24bb1461008a575b600080fd5b6100746100cf565b60405161008191906121be565b60405180910390f35b61009d610098366004611e53565b6100f3565b6040516100819190612263565b61007461080c565b6100c56100c0366004611e1f565b610830565b005b61007461091d565b7f000000000000000000000000000000000000000000000000000000000000000081565b60006100fd6117e3565b61010a6040840184612512565b8101906101179190611e8b565b9050610121611872565b610144826020015173ffffffffffffffffffffffffffffffffffffffff16610941565b8061016d575061016d826040015173ffffffffffffffffffffffffffffffffffffffff16610941565b156101c6576101c66101c160006101876040880188612512565b8080601f01602080910402602001604051908101604052809392919081815260200183838082843760009201919091525061097392505050565b610a2f565b8160c00151518260a00151518360800151518460600151510101146101fa576101fa6101c160016101876040880188612512565b602082015161021f9073ffffffffffffffffffffffffffffffffffffffff1630610a37565b608082015260008251600181111561023357fe5b14156102515761024b8260e001518260800151610b0e565b60e08301525b60a082015151608083015151011561037d576102b67f00000000000000000000000000000000000000000000000000000000000000008360e00151846020015173ffffffffffffffffffffffffffffffffffffffff16610b909092919063ffffffff16565b6080820151511561037d576103773a7f000000000000000000000000000000000000000000000000000000000000000073ffffffffffffffffffffffffffffffffffffffff1663487b5c206040518163ffffffff1660e01b815260040160206040518083038186803b15801561032b57600080fd5b505afa15801561033f573d6000803e3d6000fd5b505050506040513d601f19601f820116820180604052508101906103639190611ff3565b63ffffffff16610c6c90919063ffffffff16565b60608201525b47815260005b8260c00151518110156105b95760008351600181111561039f57fe5b14156103be578260e001518260400151106103b9576105b9565b6103d2565b8260e001518260200151106103d2576105b9565b8260c0015181815181106103e257fe5b60200260200101518260c0019060028111156103fa57fe5b9081600281111561040757fe5b8152505060008260a001518360c00151600281111561042257fe5b6003811061042c57fe5b6020020151905061043b6118b4565b60008460c00151600281111561044d57fe5b141561047c576104758560600151838151811061046657fe5b60200260200101518686610c9d565b905061052b565b60018460c00151600281111561048e57fe5b14156104b657610475856080015183815181106104a757fe5b60200260200101518686610e1c565b60028460c0015160028111156104c857fe5b14156104f0576104758560a0015183815181106104e157fe5b6020026020010151868661114b565b6040517f08c379a0000000000000000000000000000000000000000000000000000000008152600401610522906122f9565b60405180910390fd5b8051604085015161053b9161129d565b6040850152602080820151908501516105539161129d565b602085015260408101518451610568916112b9565b84528051608085015161057a916112b9565b608085015260a084015160c0850151600281111561059457fe5b6003811061059e57fe5b60200201805160019081019091529290920191506103839050565b506000825160018111156105c957fe5b14156105fe578160e00151816040015110156105f9576105f96101c1836020015183604001518560e001516112d8565b610628565b8160e0015181602001511015610628576106286101c1836040015183602001518560e00151611396565b805115801590610652575061010082015173ffffffffffffffffffffffffffffffffffffffff1615155b156107e15761010082015160009073ffffffffffffffffffffffffffffffffffffffff16600114156107025761068e6040860160208701611e1f565b73ffffffffffffffffffffffffffffffffffffffff1682600001516040516106b5906121bb565b60006040518083038185875af1925050503d80600081146106f2576040519150601f19603f3d011682016040523d82523d6000602084013e6106f7565b606091505b5050809150506107a8565b61010083015173ffffffffffffffffffffffffffffffffffffffff16600214156107335761068e6020860186611e1f565b82610100015173ffffffffffffffffffffffffffffffffffffffff168260000151604051610760906121bb565b60006040518083038185875af1925050503d806000811461079d576040519150601f19603f3d011682016040523d82523d6000602084013e6107a2565b606091505b50909150505b806107df576040517f08c379a000000000000000000000000000000000000000000000000000000000815260040161052290612330565b505b507f13c9929e000000000000000000000000000000000000000000000000000000009150505b919050565b7f000000000000000000000000000000000000000000000000000000000000000081565b3373ffffffffffffffffffffffffffffffffffffffff7f0000000000000000000000000000000000000000000000000000000000000000161461089a5761089a6101c1337f00000000000000000000000000000000000000000000000000000000000000006113ce565b3073ffffffffffffffffffffffffffffffffffffffff7f00000000000000000000000000000000000000000000000000000000000000001614610904576109046101c1307f0000000000000000000000000000000000000000000000000000000000000000611404565b8073ffffffffffffffffffffffffffffffffffffffff16ff5b7f000000000000000000000000000000000000000000000000000000000000000081565b73ffffffffffffffffffffffffffffffffffffffff811673eeeeeeeeeeeeeeeeeeeeeeeeeeeeeeeeeeeeeeee14919050565b60607f505ff6a4f24a0aa989a95ffe4c8d435d76fb30dea162a3e3022e749867722deb83836040516024016109a99291906122d6565b604080517fffffffffffffffffffffffffffffffffffffffffffffffffffffffffffffffe08184030181529190526020810180517bffffffffffffffffffffffffffffffffffffffffffffffffffffffff167fffffffff000000000000000000000000000000000000000000000000000000009093169290921790915290505b92915050565b805160208201fd5b6000610a4283610941565b15610a65575073ffffffffffffffffffffffffffffffffffffffff811631610a29565b6040517f70a0823100000000000000000000000000000000000000000000000000000000815273ffffffffffffffffffffffffffffffffffffffff8416906370a0823190610ab79085906004016121be565b60206040518083038186803b158015610acf57600080fd5b505afa158015610ae3573d6000803e3d6000fd5b505050506040513d601f19601f82011682018060405250810190610b079190611e3b565b9392505050565b60007f80000000000000000000000000000000000000000000000000000000000000008084161415610b8957610b82670de0b6b3a7640000610b727f7fffffffffffffffffffffffffffffffffffffffffffffffffffffffffffffff86168261143a565b840281610b7b57fe5b048361143a565b9050610a29565b5090919050565b6040517fdd62ed3e000000000000000000000000000000000000000000000000000000008152819073ffffffffffffffffffffffffffffffffffffffff85169063dd62ed3e90610be690309087906004016121df565b60206040518083038186803b158015610bfe57600080fd5b505afa158015610c12573d6000803e3d6000fd5b505050506040513d601f19601f82011682018060405250810190610c369190611e3b565b1015610c6757610c6783837fffffffffffffffffffffffffffffffffffffffffffffffffffffffffffffffff611449565b505050565b600082610c7b57506000610a29565b82820282848281610c8857fe5b0414610b0757610b076101c1600186866114f5565b610ca56118b4565b6000610cbd8484876020015188604001516000611514565b9050600060607f000000000000000000000000000000000000000000000000000000000000000073ffffffffffffffffffffffffffffffffffffffff1663f712a14860e01b888860200151896040015187604051602401610d21949392919061238d565b604080517fffffffffffffffffffffffffffffffffffffffffffffffffffffffffffffffe08184030181529181526020820180517bffffffffffffffffffffffffffffffffffffffffffffffffffffffff167fffffffff00000000000000000000000000000000000000000000000000000000909416939093179092529051610daa919061219f565b600060405180830381855af49150503d8060008114610de5576040519150601f19603f3d011682016040523d82523d6000602084013e610dea565b606091505b50915091508115610e125780806020019051810190610e099190611e3b565b60208501528284525b5050509392505050565b610e246118b4565b6000610e8e610e8485858860000151606001516fffffffffffffffffffffffffffffffff168960000151604001516fffffffffffffffffffffffffffffffff168a60000151608001516fffffffffffffffffffffffffffffffff16611514565b866040015161143a565b9050826060015183600001511015610fa55784516040517fdd11d22500000000000000000000000000000000000000000000000000000000815260009173ffffffffffffffffffffffffffffffffffffffff7f0000000000000000000000000000000000000000000000000000000000000000169163dd11d22591610f15916004016123f9565b60206040518083038186803b158015610f2d57600080fd5b505afa158015610f41573d6000803e3d6000fd5b505050506040513d601f19601f82011682018060405250810190610f659190611e3b565b90507fb5d7e18f9bad5b40d7cf6bb45142dfbaef62527179ff5c249c6d6cc00176224d81604051610f96919061225a565b60405180910390a15050610b07565b7f000000000000000000000000000000000000000000000000000000000000000073ffffffffffffffffffffffffffffffffffffffff1663f6274f66846060015187600001518860200151610ff9866115aa565b6040518563ffffffff1660e01b815260040161101793929190612408565b60408051808303818588803b15801561102f57600080fd5b505af19350505050801561107e575060408051601f3d9081017fffffffffffffffffffffffffffffffffffffffffffffffffffffffffffffffe016820190925261107b91810190611fba565b60015b61108757611143565b8651608001516fffffffffffffffffffffffffffffffff161561111c576111196111006110fb846fffffffffffffffffffffffffffffffff168a60000151606001516fffffffffffffffffffffffffffffffff168b60000151608001516fffffffffffffffffffffffffffffffff166115d6565b6115aa565b6fffffffffffffffffffffffffffffffff8416906115f4565b91505b6fffffffffffffffffffffffffffffffff9182168452166020830152606083015160408301525b509392505050565b6111536118b4565b600061119a610e8485858860000151606001516fffffffffffffffffffffffffffffffff168960000151604001516fffffffffffffffffffffffffffffffff166000611514565b90507f000000000000000000000000000000000000000000000000000000000000000073ffffffffffffffffffffffffffffffffffffffff1663aa77476c866000015187602001516111eb856115aa565b6040518463ffffffff1660e01b815260040161120993929190612446565b6040805180830381600087803b15801561122257600080fd5b505af1925050508015611270575060408051601f3d9081017fffffffffffffffffffffffffffffffffffffffffffffffffffffffffffffffe016820190925261126d91810190611fba565b60015b61127957611143565b6fffffffffffffffffffffffffffffffff9182168452166020830152509392505050565b600082820183811015610b0757610b076101c1600086866114f5565b6000828211156112d2576112d26101c1600285856114f5565b50900390565b60607fadc35ca636cd9f46b974d5bec4df8af095d0ae177ec6043620af588c03bdc6168484846040516024016113109392919061222c565b604080517fffffffffffffffffffffffffffffffffffffffffffffffffffffffffffffffe08184030181529190526020810180517bffffffffffffffffffffffffffffffffffffffffffffffffffffffff167fffffffff000000000000000000000000000000000000000000000000000000009093169290921790915290509392505050565b60607f498df3ae522acadbf67e6aa5fde156a5b74336950cd271175e7336907df120e38484846040516024016113109392919061222c565b60607f5cec653b364cca3880afa73ceff506d0651d11d26abbbe4a56460aa933b21b0883836040516024016109a99291906121df565b60607fb5cf2cd09307d6c717473134badbb9761c2c97d7565566c2a71eba6cd6fc514d83836040516024016109a99291906121df565b6000818310610b895781610b07565b606063095ea7b360e01b8383604051602401611466929190612206565b604080517fffffffffffffffffffffffffffffffffffffffffffffffffffffffffffffffe08184030181529190526020810180517bffffffffffffffffffffffffffffffffffffffffffffffffffffffff167fffffffff000000000000000000000000000000000000000000000000000000009093169290921790915290506114ef8482611649565b50505050565b606063e946c1bb60e01b84848460405160240161131093929190612290565b6000808651600181111561152457fe5b141561156157604085015160e087015161153d916112b9565b9050811561155c5761155981611553868561129d565b866116e3565b90505b611589565b61158661157f86602001518860e001516112b990919063ffffffff16565b84866116e3565b90505b6115a0611596828661143a565b866080015161143a565b9695505050505050565b60006fffffffffffffffffffffffffffffffff8211156115d2576115d26101c1600384611707565b5090565b60006115ec836115e68685610c6c565b90611724565b949350505050565b60008282016fffffffffffffffffffffffffffffffff8085169082161015610b0757610b076101c16000866fffffffffffffffffffffffffffffffff16866fffffffffffffffffffffffffffffffff166114f5565b600060608373ffffffffffffffffffffffffffffffffffffffff1683604051611672919061219f565b6000604051808303816000865af19150503d80600081146116af576040519150601f19603f3d011682016040523d82523d6000602084013e6116b4565b606091505b50915091508180156116ca57506116ca8161174e565b156116d65750506116df565b6114ef81610a2f565b5050565b60006115ec836115e66116f78260016112b9565b6117018887610c6c565b9061129d565b606063c996af7b60e01b83836040516024016109a99291906122b1565b60008161173a5761173a6101c1600385856114f5565b600082848161174557fe5b04949350505050565b600081516000141561176257506001610807565b6020825110610807576000611778836000611793565b9050806001141561178d576001915050610807565b50919050565b6000610b078383600081602001835110156117bb576117bb6101c160058551856020016117c4565b50016020015190565b6060632800659560e01b848484604051602401611310939291906122c8565b6040805161012081019091528060008152602001600073ffffffffffffffffffffffffffffffffffffffff168152602001600073ffffffffffffffffffffffffffffffffffffffff1681526020016060815260200160608152602001606081526020016060815260200160008152602001600073ffffffffffffffffffffffffffffffffffffffff1681525090565b6040518060e0016040528060008152602001600081526020016000815260200160008152602001600081526020016118a86118d5565b81526020016000905290565b60405180606001604052806000815260200160008152602001600081525090565b60405180606001604052806003906020820280368337509192915050565b8035610a298161264a565b600082601f83011261190e578081fd5b813561192161191c826125a3565b61257c565b81815291506020808301908481018184028601820187101561194257600080fd5b6000805b8581101561196e5782356003811061195c578283fd5b85529383019391830191600101611946565b50505050505092915050565b600082601f83011261198a578081fd5b813561199861191c826125a3565b818152915060208083019084810160005b84811015611a8757813587016080807fffffffffffffffffffffffffffffffffffffffffffffffffffffffffffffffe0838c030112156119e857600080fd5b6119f18161257c565b8286013581526040808401358288015260608085013582840152928401359267ffffffffffffffff841115611a2557600080fd5b83850194508c603f860112611a3957600080fd5b878501359350611a4b61191c856125c3565b8481528d83868801011115611a5f57600080fd5b611a6e858a8301858901612605565b90830152508652505092820192908201906001016119a9565b505050505092915050565b600082601f830112611aa2578081fd5b8135611ab061191c826125a3565b818152915060208083019084810161022080850287018301881015611ad457600080fd5b6000805b86811015611b335782848b031215611aee578182fd5b611af8606061257c565b611b028b86611cac565b8152611b128b6101808701611d99565b81870152610200850135604082015286529484019492820192600101611ad8565b5050505050505092915050565b600082601f830112611b50578081fd5b8135611b5e61191c826125a3565b81815291506020808301908481016101e080850287018301881015611b8257600080fd5b60005b8581101561196e5782890382811215611b9d57600080fd5b6060611ba88161257c565b61014080841215611bb857600080fd5b611bc18161257c565b9350611bcd8d886118f3565b8452611bdb8d8989016118f3565b888501526040611bed8e828a01611dfc565b81860152611bfd8e858a01611dfc565b8486015260809350611c118e858a016118f3565b8486015260a09350611c258e858a016118f3565b8486015260c09350611c398e858a016118f3565b8486015260e0935083880135848601526101009350611c5a8e858a01611e07565b8486015261012093508388013584860152848352611c7a8e838a01611d99565b838a01526101c08801359083015250875250509383019391810191600101611b85565b803560028110610a2957600080fd5b6000610180808385031215611cbf578182fd5b611cc88161257c565b915050611cd583836118f3565b8152611ce483602084016118f3565b6020820152611cf68360408401611dfc565b6040820152611d088360608401611dfc565b6060820152611d1a8360808401611dfc565b6080820152611d2c8360a084016118f3565b60a0820152611d3e8360c084016118f3565b60c0820152611d508360e084016118f3565b60e0820152610100611d64848285016118f3565b908201526101208281013590820152610140611d8284828501611e07565b818301525061016080830135818301525092915050565b600060808284031215611daa578081fd5b611db4608061257c565b9050813560048110611dc557600080fd5b8152602082013560ff81168114611ddb57600080fd5b80602083015250604082013560408201526060820135606082015292915050565b8035610a298161266c565b803567ffffffffffffffff81168114610a2957600080fd5b600060208284031215611e30578081fd5b8135610b078161264a565b600060208284031215611e4c578081fd5b5051919050565b600060208284031215611e64578081fd5b813567ffffffffffffffff811115611e7a578182fd5b820160608185031215610b07578182fd5b600060208284031215611e9c578081fd5b813567ffffffffffffffff80821115611eb3578283fd5b8184019150610120808387031215611ec9578384fd5b611ed28161257c565b9050611ede8684611c9d565b8152611eed86602085016118f3565b6020820152611eff86604085016118f3565b6040820152606083013582811115611f15578485fd5b611f218782860161197a565b606083015250608083013582811115611f38578485fd5b611f4487828601611a92565b60808301525060a083013582811115611f5b578485fd5b611f6787828601611b40565b60a08301525060c083013582811115611f7e578485fd5b611f8a878286016118fe565b60c08301525060e083013560e08201526101009150611fab868385016118f3565b91810191909152949350505050565b60008060408385031215611fcc578081fd5b8251611fd78161266c565b6020840151909250611fe88161266c565b809150509250929050565b600060208284031215612004578081fd5b815163ffffffff81168114610b07578182fd5b73ffffffffffffffffffffffffffffffffffffffff169052565b60008151808452612049816020860160208601612611565b601f017fffffffffffffffffffffffffffffffffffffffffffffffffffffffffffffffe0169290920160200192915050565b612086828251612017565b60208101516120986020840182612017565b5060408101516120ab604084018261217b565b5060608101516120be606084018261217b565b5060808101516120d1608084018261217b565b5060a08101516120e460a0840182612017565b5060c08101516120f760c0840182612017565b5060e081015161210a60e0840182612017565b506101008082015161211e82850182612017565b505061012081810151908301526101408082015161213e82850182612191565b505061016090810151910152565b80516121578161263d565b825260208181015160ff169083015260408082015190830152606090810151910152565b6fffffffffffffffffffffffffffffffff169052565b67ffffffffffffffff169052565b600082516121b1818460208701612611565b9190910192915050565b90565b73ffffffffffffffffffffffffffffffffffffffff91909116815260200190565b73ffffffffffffffffffffffffffffffffffffffff92831681529116602082015260400190565b73ffffffffffffffffffffffffffffffffffffffff929092168252602082015260400190565b73ffffffffffffffffffffffffffffffffffffffff9390931683526020830191909152604082015260600190565b90815260200190565b7fffffffff0000000000000000000000000000000000000000000000000000000091909116815260200190565b6060810161229d8561263d565b938152602081019290925260409091015290565b604081016122be8461263d565b9281526020015290565b606081016008851061229d57fe5b6000600284106122e257fe5b838252604060208301526115ec6040830184612031565b60208082526012908201527f494e56414c49445f4f524445525f545950450000000000000000000000000000604082015260600190565b6020808252602a908201527f46696c6c51756f74655472616e73666f726d65722f45544845525f5452414e5360408201527f4645525f46414c49454400000000000000000000000000000000000000000000606082015260800190565b60006080825285516080830152602086015160a0830152604086015160c08301526060860151608060e08401526123c8610100840182612031565b73ffffffffffffffffffffffffffffffffffffffff9687166020850152949095166040830152506060015292915050565b6101808101610a29828461207b565b6102208101612417828661207b565b61242561018083018561214c565b6fffffffffffffffffffffffffffffffff8316610200830152949350505050565b60006101e08201905061245a828651612017565b602085015161246c6020840182612017565b50604085015161247f604084018261217b565b506060850151612492606084018261217b565b5060808501516124a56080840182612017565b5060a08501516124b860a0840182612017565b5060c08501516124cb60c0840182612017565b5060e085015160e0830152610100808601516124e982850182612191565b5050610120858101519083015261250461014083018561214c565b6115ec6101c083018461217b565b60008083357fffffffffffffffffffffffffffffffffffffffffffffffffffffffffffffffe1843603018112612546578283fd5b83018035915067ffffffffffffffff821115612560578283fd5b60200191503681900382131561257557600080fd5b9250929050565b60405181810167ffffffffffffffff8111828210171561259b57600080fd5b604052919050565b600067ffffffffffffffff8211156125b9578081fd5b5060209081020190565b600067ffffffffffffffff8211156125d9578081fd5b50601f017fffffffffffffffffffffffffffffffffffffffffffffffffffffffffffffffe01660200190565b82818337506000910152565b60005b8381101561262c578181015183820152602001612614565b838111156114ef5750506000910152565b6004811061264757fe5b50565b73ffffffffffffffffffffffffffffffffffffffff8116811461264757600080fd5b6fffffffffffffffffffffffffffffffff8116811461264757600080fdfea26469706673582212200b9f6d9876631a409b8aa77173d621454f17bd1ad06a47de5d23cc2fb19676c564736f6c634300060c0033",
  "devdoc": {
    "details": "A transformer that fills an ERC20 market sell/buy quote.      This transformer shortcuts bridge orders and fills them directly",
    "events": {
      "ProtocolFeeUnfunded(bytes32)": {
        "details": "Emitted when a trade is skipped due to a lack of funds      to pay the 0x Protocol fee.",
        "params": {
          "orderHash": "The hash of the order that was skipped."
        }
      }
    },
    "kind": "dev",
    "methods": {
      "constructor": {
        "details": "Create this contract.",
        "params": {
          "bridgeAdapter_": "The bridge adapter contract.",
          "zeroEx_": "The Exchange Proxy contract."
        }
      },
      "die(address)": {
        "details": "Destruct this contract. Only callable by the deployer and will not      succeed in the context of a delegatecall (from another contract).",
        "params": {
          "ethRecipient": "The recipient of ETH held in this contract."
        }
      },
      "transform((address,address,bytes))": {
        "details": "Sell this contract's entire balance of of `sellToken` in exchange      for `buyToken` by filling `orders`. Protocol fees should be attached      to this call. `buyToken` and excess ETH will be transferred back to the caller.",
        "params": {
          "context": "Context information."
        },
        "returns": {
          "magicBytes": "The success bytes (`LibERC20Transformer.TRANSFORMER_SUCCESS`)."
        }
      }
    },
    "stateVariables": {
      "HIGH_BIT": {
        "details": "The highest bit of a uint256 value."
      },
      "LOWER_255_BITS": {
        "details": "Mask of the lower 255 bits of a uint256 value."
      },
      "REFUND_RECEIVER_SENDER": {
        "details": "If `refundReceiver` is set to this address, unpsent      protocol fees will be sent to the sender."
      },
      "REFUND_RECEIVER_TAKER": {
        "details": "If `refundReceiver` is set to this address, unpsent      protocol fees will be sent to the taker."
      },
      "bridgeAdapter": {
        "details": "The BridgeAdapter address"
      },
      "zeroEx": {
        "details": "The exchange proxy contract."
      }
    },
    "version": 1
  },
  "userdoc": {
    "kind": "user",
    "methods": {},
    "version": 1
  },
  "storageLayout": {
    "storage": [],
    "types": null
  }
}