{
  "address": "0x7F00ED69101C0b323ee74E2e8083E2a9D44DC460",
  "abi": [
    {
      "inputs": [
        {
          "internalType": "address",
          "name": "zeroExAddress",
          "type": "address"
        }
      ],
      "stateMutability": "nonpayable",
      "type": "constructor"
    },
    {
      "anonymous": false,
      "inputs": [
        {
          "indexed": false,
          "internalType": "bytes32",
          "name": "orderHash",
          "type": "bytes32"
        },
        {
          "indexed": false,
          "internalType": "uint256",
          "name": "orderLocked",
          "type": "uint256"
        }
      ],
      "name": "LimitOrderCancelled",
      "type": "event"
    },
    {
      "anonymous": false,
      "inputs": [
        {
          "indexed": true,
          "internalType": "bytes32",
          "name": "orderHash",
          "type": "bytes32"
        },
        {
          "indexed": false,
          "internalType": "contract IERC20TokenV06",
          "name": "makerToken",
          "type": "address"
        },
        {
          "indexed": false,
          "internalType": "contract IERC20TokenV06",
          "name": "takerToken",
          "type": "address"
        },
        {
          "indexed": true,
          "internalType": "address",
          "name": "makerAddress",
          "type": "address"
        },
        {
          "indexed": false,
          "internalType": "address",
          "name": "takerAddress",
          "type": "address"
        },
        {
          "indexed": false,
          "internalType": "address",
          "name": "matchOrderAddress",
          "type": "address"
        }
      ],
      "name": "LockedBalanceOrder",
      "type": "event"
    },
    {
      "anonymous": false,
      "inputs": [
        {
          "indexed": false,
          "internalType": "address",
          "name": "maker",
          "type": "address"
        },
        {
          "indexed": false,
          "internalType": "address",
          "name": "matchOrderAddress",
          "type": "address"
        }
      ],
      "name": "TransferDone",
      "type": "event"
    },
    {
      "inputs": [],
      "name": "EIP712_DOMAIN_SEPARATOR",
      "outputs": [
        {
          "internalType": "bytes32",
          "name": "",
          "type": "bytes32"
        }
      ],
      "stateMutability": "view",
      "type": "function"
    },
    {
      "inputs": [],
      "name": "FEATURE_NAME",
      "outputs": [
        {
          "internalType": "string",
          "name": "",
          "type": "string"
        }
      ],
      "stateMutability": "view",
      "type": "function"
    },
    {
      "inputs": [],
      "name": "FEATURE_VERSION",
      "outputs": [
        {
          "internalType": "uint256",
          "name": "",
          "type": "uint256"
        }
      ],
      "stateMutability": "view",
      "type": "function"
    },
    {
      "inputs": [
        {
          "components": [
            {
              "internalType": "contract IERC20TokenV06",
              "name": "makerToken",
              "type": "address"
            },
            {
              "internalType": "contract IERC20TokenV06",
              "name": "takerToken",
              "type": "address"
            },
            {
              "internalType": "uint128",
              "name": "makerAmount",
              "type": "uint128"
            },
            {
              "internalType": "uint128",
              "name": "takerAmount",
              "type": "uint128"
            },
            {
              "internalType": "uint128",
              "name": "takerTokenFeeAmount",
              "type": "uint128"
            },
            {
              "internalType": "address",
              "name": "maker",
              "type": "address"
            },
            {
              "internalType": "address",
              "name": "taker",
              "type": "address"
            },
            {
              "internalType": "address",
              "name": "sender",
              "type": "address"
            },
            {
              "internalType": "address",
              "name": "feeRecipient",
              "type": "address"
            },
            {
              "internalType": "bytes32",
              "name": "pool",
              "type": "bytes32"
            },
            {
              "internalType": "uint64",
              "name": "expiry",
              "type": "uint64"
            },
            {
              "internalType": "uint256",
              "name": "salt",
              "type": "uint256"
            }
          ],
          "internalType": "struct LibNativeOrder.LimitOrder[]",
          "name": "orders",
          "type": "tuple[]"
        },
        {
          "components": [
            {
              "internalType": "enum LibSignature.SignatureType",
              "name": "signatureType",
              "type": "uint8"
            },
            {
              "internalType": "uint8",
              "name": "v",
              "type": "uint8"
            },
            {
              "internalType": "bytes32",
              "name": "r",
              "type": "bytes32"
            },
            {
              "internalType": "bytes32",
              "name": "s",
              "type": "bytes32"
            }
          ],
          "internalType": "struct LibSignature.Signature[]",
          "name": "signatures",
          "type": "tuple[]"
        }
      ],
      "name": "batchGetLimitOrderRelevantStates",
      "outputs": [
        {
          "components": [
            {
              "internalType": "bytes32",
              "name": "orderHash",
              "type": "bytes32"
            },
            {
              "internalType": "enum LibNativeOrder.OrderStatus",
              "name": "status",
              "type": "uint8"
            },
            {
              "internalType": "uint128",
              "name": "makerTokenFilledAmount",
              "type": "uint128"
            },
            {
              "internalType": "uint128",
              "name": "takerTokenFilledAmount",
              "type": "uint128"
            }
          ],
          "internalType": "struct LibNativeOrder.OrderInfo[]",
          "name": "orderInfos",
          "type": "tuple[]"
        },
        {
          "internalType": "uint128[]",
          "name": "actualFillableTakerTokenAmounts",
          "type": "uint128[]"
        },
        {
          "internalType": "bool[]",
          "name": "isSignatureValids",
          "type": "bool[]"
        }
      ],
      "stateMutability": "view",
      "type": "function"
    },
    {
      "inputs": [
        {
          "components": [
            {
              "internalType": "contract IERC20TokenV06",
              "name": "makerToken",
              "type": "address"
            },
            {
              "internalType": "contract IERC20TokenV06",
              "name": "takerToken",
              "type": "address"
            },
            {
              "internalType": "uint128",
              "name": "makerAmount",
              "type": "uint128"
            },
            {
              "internalType": "uint128",
              "name": "takerAmount",
              "type": "uint128"
            },
            {
              "internalType": "address",
              "name": "maker",
              "type": "address"
            },
            {
              "internalType": "address",
              "name": "taker",
              "type": "address"
            },
            {
              "internalType": "address",
              "name": "txOrigin",
              "type": "address"
            },
            {
              "internalType": "bytes32",
              "name": "pool",
              "type": "bytes32"
            },
            {
              "internalType": "uint64",
              "name": "expiry",
              "type": "uint64"
            },
            {
              "internalType": "uint256",
              "name": "salt",
              "type": "uint256"
            }
          ],
          "internalType": "struct LibNativeOrder.RfqOrder[]",
          "name": "orders",
          "type": "tuple[]"
        },
        {
          "components": [
            {
              "internalType": "enum LibSignature.SignatureType",
              "name": "signatureType",
              "type": "uint8"
            },
            {
              "internalType": "uint8",
              "name": "v",
              "type": "uint8"
            },
            {
              "internalType": "bytes32",
              "name": "r",
              "type": "bytes32"
            },
            {
              "internalType": "bytes32",
              "name": "s",
              "type": "bytes32"
            }
          ],
          "internalType": "struct LibSignature.Signature[]",
          "name": "signatures",
          "type": "tuple[]"
        }
      ],
      "name": "batchGetRfqOrderRelevantStates",
      "outputs": [
        {
          "components": [
            {
              "internalType": "bytes32",
              "name": "orderHash",
              "type": "bytes32"
            },
            {
              "internalType": "enum LibNativeOrder.OrderStatus",
              "name": "status",
              "type": "uint8"
            },
            {
              "internalType": "uint128",
              "name": "makerTokenFilledAmount",
              "type": "uint128"
            },
            {
              "internalType": "uint128",
              "name": "takerTokenFilledAmount",
              "type": "uint128"
            }
          ],
          "internalType": "struct LibNativeOrder.OrderInfo[]",
          "name": "orderInfos",
          "type": "tuple[]"
        },
        {
          "internalType": "uint128[]",
          "name": "actualFillableTakerTokenAmounts",
          "type": "uint128[]"
        },
        {
          "internalType": "bool[]",
          "name": "isSignatureValids",
          "type": "bool[]"
        }
      ],
      "stateMutability": "view",
      "type": "function"
    },
    {
      "inputs": [
        {
          "internalType": "bytes32",
          "name": "orderHash",
          "type": "bytes32"
        },
        {
          "internalType": "contract IERC20TokenV06",
          "name": "token",
          "type": "address"
        },
        {
          "internalType": "address",
          "name": "maker",
          "type": "address"
        }
      ],
      "name": "cancelLimitOrderWithHash",
      "outputs": [],
      "stateMutability": "nonpayable",
      "type": "function"
    },
    {
      "inputs": [
        {
          "components": [
            {
              "internalType": "contract IERC20TokenV06",
              "name": "makerToken",
              "type": "address"
            },
            {
              "internalType": "contract IERC20TokenV06",
              "name": "takerToken",
              "type": "address"
            },
            {
              "internalType": "uint128",
              "name": "makerAmount",
              "type": "uint128"
            },
            {
              "internalType": "uint128",
              "name": "takerAmount",
              "type": "uint128"
            },
            {
              "internalType": "uint128",
              "name": "takerTokenFeeAmount",
              "type": "uint128"
            },
            {
              "internalType": "address",
              "name": "maker",
              "type": "address"
            },
            {
              "internalType": "address",
              "name": "taker",
              "type": "address"
            },
            {
              "internalType": "address",
              "name": "sender",
              "type": "address"
            },
            {
              "internalType": "address",
              "name": "feeRecipient",
              "type": "address"
            },
            {
              "internalType": "bytes32",
              "name": "pool",
              "type": "bytes32"
            },
            {
              "internalType": "uint64",
              "name": "expiry",
              "type": "uint64"
            },
            {
              "internalType": "uint256",
              "name": "salt",
              "type": "uint256"
            }
          ],
          "internalType": "struct LibNativeOrder.LimitOrder",
          "name": "order",
          "type": "tuple"
        },
        {
          "components": [
            {
              "internalType": "enum LibSignature.SignatureType",
              "name": "signatureType",
              "type": "uint8"
            },
            {
              "internalType": "uint8",
              "name": "v",
              "type": "uint8"
            },
            {
              "internalType": "bytes32",
              "name": "r",
              "type": "bytes32"
            },
            {
              "internalType": "bytes32",
              "name": "s",
              "type": "bytes32"
            }
          ],
          "internalType": "struct LibSignature.Signature",
          "name": "signature",
          "type": "tuple"
        }
      ],
      "name": "createLimitOrder",
      "outputs": [
        {
          "components": [
            {
              "internalType": "bytes32",
              "name": "orderHash",
              "type": "bytes32"
            },
            {
              "internalType": "enum LibNativeOrder.OrderStatus",
              "name": "status",
              "type": "uint8"
            },
            {
              "internalType": "uint128",
              "name": "makerTokenFilledAmount",
              "type": "uint128"
            },
            {
              "internalType": "uint128",
              "name": "takerTokenFilledAmount",
              "type": "uint128"
            }
          ],
          "internalType": "struct LibNativeOrder.OrderInfo",
          "name": "orderInfo",
          "type": "tuple"
        }
      ],
      "stateMutability": "nonpayable",
      "type": "function"
    },
    {
      "inputs": [
        {
          "internalType": "bytes32",
          "name": "orderHash",
          "type": "bytes32"
        }
      ],
      "name": "getFilledOrder",
      "outputs": [
        {
          "internalType": "uint256",
          "name": "",
          "type": "uint256"
        }
      ],
      "stateMutability": "view",
      "type": "function"
    },
    {
      "inputs": [
        {
          "components": [
            {
              "internalType": "contract IERC20TokenV06",
              "name": "makerToken",
              "type": "address"
            },
            {
              "internalType": "contract IERC20TokenV06",
              "name": "takerToken",
              "type": "address"
            },
            {
              "internalType": "uint128",
              "name": "makerAmount",
              "type": "uint128"
            },
            {
              "internalType": "uint128",
              "name": "takerAmount",
              "type": "uint128"
            },
            {
              "internalType": "uint128",
              "name": "takerTokenFeeAmount",
              "type": "uint128"
            },
            {
              "internalType": "address",
              "name": "maker",
              "type": "address"
            },
            {
              "internalType": "address",
              "name": "taker",
              "type": "address"
            },
            {
              "internalType": "address",
              "name": "sender",
              "type": "address"
            },
            {
              "internalType": "address",
              "name": "feeRecipient",
              "type": "address"
            },
            {
              "internalType": "bytes32",
              "name": "pool",
              "type": "bytes32"
            },
            {
              "internalType": "uint64",
              "name": "expiry",
              "type": "uint64"
            },
            {
              "internalType": "uint256",
              "name": "salt",
              "type": "uint256"
            }
          ],
          "internalType": "struct LibNativeOrder.LimitOrder",
          "name": "order",
          "type": "tuple"
        }
      ],
      "name": "getLimitOrderHash",
      "outputs": [
        {
          "internalType": "bytes32",
          "name": "orderHash",
          "type": "bytes32"
        }
      ],
      "stateMutability": "view",
      "type": "function"
    },
    {
      "inputs": [
        {
          "components": [
            {
              "internalType": "contract IERC20TokenV06",
              "name": "makerToken",
              "type": "address"
            },
            {
              "internalType": "contract IERC20TokenV06",
              "name": "takerToken",
              "type": "address"
            },
            {
              "internalType": "uint128",
              "name": "makerAmount",
              "type": "uint128"
            },
            {
              "internalType": "uint128",
              "name": "takerAmount",
              "type": "uint128"
            },
            {
              "internalType": "uint128",
              "name": "takerTokenFeeAmount",
              "type": "uint128"
            },
            {
              "internalType": "address",
              "name": "maker",
              "type": "address"
            },
            {
              "internalType": "address",
              "name": "taker",
              "type": "address"
            },
            {
              "internalType": "address",
              "name": "sender",
              "type": "address"
            },
            {
              "internalType": "address",
              "name": "feeRecipient",
              "type": "address"
            },
            {
              "internalType": "bytes32",
              "name": "pool",
              "type": "bytes32"
            },
            {
              "internalType": "uint64",
              "name": "expiry",
              "type": "uint64"
            },
            {
              "internalType": "uint256",
              "name": "salt",
              "type": "uint256"
            }
          ],
          "internalType": "struct LibNativeOrder.LimitOrder",
          "name": "order",
          "type": "tuple"
        }
      ],
      "name": "getLimitOrderInfo",
      "outputs": [
        {
          "components": [
            {
              "internalType": "bytes32",
              "name": "orderHash",
              "type": "bytes32"
            },
            {
              "internalType": "enum LibNativeOrder.OrderStatus",
              "name": "status",
              "type": "uint8"
            },
            {
              "internalType": "uint128",
              "name": "makerTokenFilledAmount",
              "type": "uint128"
            },
            {
              "internalType": "uint128",
              "name": "takerTokenFilledAmount",
              "type": "uint128"
            }
          ],
          "internalType": "struct LibNativeOrder.OrderInfo",
          "name": "orderInfo",
          "type": "tuple"
        }
      ],
      "stateMutability": "view",
      "type": "function"
    },
    {
      "inputs": [
        {
          "components": [
            {
              "internalType": "contract IERC20TokenV06",
              "name": "makerToken",
              "type": "address"
            },
            {
              "internalType": "contract IERC20TokenV06",
              "name": "takerToken",
              "type": "address"
            },
            {
              "internalType": "uint128",
              "name": "makerAmount",
              "type": "uint128"
            },
            {
              "internalType": "uint128",
              "name": "takerAmount",
              "type": "uint128"
            },
            {
              "internalType": "uint128",
              "name": "takerTokenFeeAmount",
              "type": "uint128"
            },
            {
              "internalType": "address",
              "name": "maker",
              "type": "address"
            },
            {
              "internalType": "address",
              "name": "taker",
              "type": "address"
            },
            {
              "internalType": "address",
              "name": "sender",
              "type": "address"
            },
            {
              "internalType": "address",
              "name": "feeRecipient",
              "type": "address"
            },
            {
              "internalType": "bytes32",
              "name": "pool",
              "type": "bytes32"
            },
            {
              "internalType": "uint64",
              "name": "expiry",
              "type": "uint64"
            },
            {
              "internalType": "uint256",
              "name": "salt",
              "type": "uint256"
            }
          ],
          "internalType": "struct LibNativeOrder.LimitOrder",
          "name": "order",
          "type": "tuple"
        },
        {
          "internalType": "uint128",
          "name": "amount",
          "type": "uint128"
        }
      ],
      "name": "getLimitOrderInfoV2",
      "outputs": [
        {
          "components": [
            {
              "internalType": "bytes32",
              "name": "orderHash",
              "type": "bytes32"
            },
            {
              "internalType": "enum LibNativeOrder.OrderStatus",
              "name": "status",
              "type": "uint8"
            },
            {
              "internalType": "uint128",
              "name": "makerTokenFilledAmount",
              "type": "uint128"
            },
            {
              "internalType": "uint128",
              "name": "takerTokenFilledAmount",
              "type": "uint128"
            }
          ],
          "internalType": "struct LibNativeOrder.OrderInfo",
          "name": "orderInfo",
          "type": "tuple"
        }
      ],
      "stateMutability": "view",
      "type": "function"
    },
    {
      "inputs": [
        {
          "components": [
            {
              "internalType": "contract IERC20TokenV06",
              "name": "makerToken",
              "type": "address"
            },
            {
              "internalType": "contract IERC20TokenV06",
              "name": "takerToken",
              "type": "address"
            },
            {
              "internalType": "uint128",
              "name": "makerAmount",
              "type": "uint128"
            },
            {
              "internalType": "uint128",
              "name": "takerAmount",
              "type": "uint128"
            },
            {
              "internalType": "uint128",
              "name": "takerTokenFeeAmount",
              "type": "uint128"
            },
            {
              "internalType": "address",
              "name": "maker",
              "type": "address"
            },
            {
              "internalType": "address",
              "name": "taker",
              "type": "address"
            },
            {
              "internalType": "address",
              "name": "sender",
              "type": "address"
            },
            {
              "internalType": "address",
              "name": "feeRecipient",
              "type": "address"
            },
            {
              "internalType": "bytes32",
              "name": "pool",
              "type": "bytes32"
            },
            {
              "internalType": "uint64",
              "name": "expiry",
              "type": "uint64"
            },
            {
              "internalType": "uint256",
              "name": "salt",
              "type": "uint256"
            }
          ],
          "internalType": "struct LibNativeOrder.LimitOrder",
          "name": "order",
          "type": "tuple"
        },
        {
          "components": [
            {
              "internalType": "enum LibSignature.SignatureType",
              "name": "signatureType",
              "type": "uint8"
            },
            {
              "internalType": "uint8",
              "name": "v",
              "type": "uint8"
            },
            {
              "internalType": "bytes32",
              "name": "r",
              "type": "bytes32"
            },
            {
              "internalType": "bytes32",
              "name": "s",
              "type": "bytes32"
            }
          ],
          "internalType": "struct LibSignature.Signature",
          "name": "signature",
          "type": "tuple"
        }
      ],
      "name": "getLimitOrderRelevantState",
      "outputs": [
        {
          "components": [
            {
              "internalType": "bytes32",
              "name": "orderHash",
              "type": "bytes32"
            },
            {
              "internalType": "enum LibNativeOrder.OrderStatus",
              "name": "status",
              "type": "uint8"
            },
            {
              "internalType": "uint128",
              "name": "makerTokenFilledAmount",
              "type": "uint128"
            },
            {
              "internalType": "uint128",
              "name": "takerTokenFilledAmount",
              "type": "uint128"
            }
          ],
          "internalType": "struct LibNativeOrder.OrderInfo",
          "name": "orderInfo",
          "type": "tuple"
        },
        {
          "internalType": "uint128",
          "name": "actualFillableTakerTokenAmount",
          "type": "uint128"
        },
        {
          "internalType": "bool",
          "name": "isSignatureValid",
          "type": "bool"
        }
      ],
      "stateMutability": "view",
      "type": "function"
    },
    {
      "inputs": [
        {
          "components": [
            {
              "internalType": "contract IERC20TokenV06",
              "name": "makerToken",
              "type": "address"
            },
            {
              "internalType": "contract IERC20TokenV06",
              "name": "takerToken",
              "type": "address"
            },
            {
              "internalType": "uint128",
              "name": "makerAmount",
              "type": "uint128"
            },
            {
              "internalType": "uint128",
              "name": "takerAmount",
              "type": "uint128"
            },
            {
              "internalType": "uint128",
              "name": "takerTokenFeeAmount",
              "type": "uint128"
            },
            {
              "internalType": "address",
              "name": "maker",
              "type": "address"
            },
            {
              "internalType": "address",
              "name": "taker",
              "type": "address"
            },
            {
              "internalType": "address",
              "name": "sender",
              "type": "address"
            },
            {
              "internalType": "address",
              "name": "feeRecipient",
              "type": "address"
            },
            {
              "internalType": "bytes32",
              "name": "pool",
              "type": "bytes32"
            },
            {
              "internalType": "uint64",
              "name": "expiry",
              "type": "uint64"
            },
            {
              "internalType": "uint256",
              "name": "salt",
              "type": "uint256"
            }
          ],
          "internalType": "struct LibNativeOrder.LimitOrder",
          "name": "order",
          "type": "tuple"
        }
      ],
      "name": "getOrderInfo",
      "outputs": [
        {
          "components": [
            {
              "internalType": "bytes32",
              "name": "orderHash",
              "type": "bytes32"
            },
            {
              "internalType": "enum LibNativeOrder.OrderStatus",
              "name": "status",
              "type": "uint8"
            },
            {
              "internalType": "uint128",
              "name": "makerTokenFilledAmount",
              "type": "uint128"
            },
            {
              "internalType": "uint128",
              "name": "takerTokenFilledAmount",
              "type": "uint128"
            }
          ],
          "internalType": "struct LibNativeOrder.OrderInfo",
          "name": "orderInfo",
          "type": "tuple"
        }
      ],
      "stateMutability": "view",
      "type": "function"
    },
    {
      "inputs": [
        {
          "internalType": "bytes32",
          "name": "orderHash",
          "type": "bytes32"
        }
      ],
      "name": "getOrderLocked",
      "outputs": [
        {
          "internalType": "uint256",
          "name": "",
          "type": "uint256"
        }
      ],
      "stateMutability": "view",
      "type": "function"
    },
    {
      "inputs": [
        {
          "components": [
            {
              "internalType": "contract IERC20TokenV06",
              "name": "makerToken",
              "type": "address"
            },
            {
              "internalType": "contract IERC20TokenV06",
              "name": "takerToken",
              "type": "address"
            },
            {
              "internalType": "uint128",
              "name": "makerAmount",
              "type": "uint128"
            },
            {
              "internalType": "uint128",
              "name": "takerAmount",
              "type": "uint128"
            },
            {
              "internalType": "address",
              "name": "maker",
              "type": "address"
            },
            {
              "internalType": "address",
              "name": "taker",
              "type": "address"
            },
            {
              "internalType": "address",
              "name": "txOrigin",
              "type": "address"
            },
            {
              "internalType": "bytes32",
              "name": "pool",
              "type": "bytes32"
            },
            {
              "internalType": "uint64",
              "name": "expiry",
              "type": "uint64"
            },
            {
              "internalType": "uint256",
              "name": "salt",
              "type": "uint256"
            }
          ],
          "internalType": "struct LibNativeOrder.RfqOrder",
          "name": "order",
          "type": "tuple"
        }
      ],
      "name": "getRfqOrderHash",
      "outputs": [
        {
          "internalType": "bytes32",
          "name": "orderHash",
          "type": "bytes32"
        }
      ],
      "stateMutability": "view",
      "type": "function"
    },
    {
      "inputs": [
        {
          "components": [
            {
              "internalType": "contract IERC20TokenV06",
              "name": "makerToken",
              "type": "address"
            },
            {
              "internalType": "contract IERC20TokenV06",
              "name": "takerToken",
              "type": "address"
            },
            {
              "internalType": "uint128",
              "name": "makerAmount",
              "type": "uint128"
            },
            {
              "internalType": "uint128",
              "name": "takerAmount",
              "type": "uint128"
            },
            {
              "internalType": "address",
              "name": "maker",
              "type": "address"
            },
            {
              "internalType": "address",
              "name": "taker",
              "type": "address"
            },
            {
              "internalType": "address",
              "name": "txOrigin",
              "type": "address"
            },
            {
              "internalType": "bytes32",
              "name": "pool",
              "type": "bytes32"
            },
            {
              "internalType": "uint64",
              "name": "expiry",
              "type": "uint64"
            },
            {
              "internalType": "uint256",
              "name": "salt",
              "type": "uint256"
            }
          ],
          "internalType": "struct LibNativeOrder.RfqOrder",
          "name": "order",
          "type": "tuple"
        }
      ],
      "name": "getRfqOrderInfo",
      "outputs": [
        {
          "components": [
            {
              "internalType": "bytes32",
              "name": "orderHash",
              "type": "bytes32"
            },
            {
              "internalType": "enum LibNativeOrder.OrderStatus",
              "name": "status",
              "type": "uint8"
            },
            {
              "internalType": "uint128",
              "name": "makerTokenFilledAmount",
              "type": "uint128"
            },
            {
              "internalType": "uint128",
              "name": "takerTokenFilledAmount",
              "type": "uint128"
            }
          ],
          "internalType": "struct LibNativeOrder.OrderInfo",
          "name": "orderInfo",
          "type": "tuple"
        }
      ],
      "stateMutability": "view",
      "type": "function"
    },
    {
      "inputs": [
        {
          "components": [
            {
              "internalType": "contract IERC20TokenV06",
              "name": "makerToken",
              "type": "address"
            },
            {
              "internalType": "contract IERC20TokenV06",
              "name": "takerToken",
              "type": "address"
            },
            {
              "internalType": "uint128",
              "name": "makerAmount",
              "type": "uint128"
            },
            {
              "internalType": "uint128",
              "name": "takerAmount",
              "type": "uint128"
            },
            {
              "internalType": "address",
              "name": "maker",
              "type": "address"
            },
            {
              "internalType": "address",
              "name": "taker",
              "type": "address"
            },
            {
              "internalType": "address",
              "name": "txOrigin",
              "type": "address"
            },
            {
              "internalType": "bytes32",
              "name": "pool",
              "type": "bytes32"
            },
            {
              "internalType": "uint64",
              "name": "expiry",
              "type": "uint64"
            },
            {
              "internalType": "uint256",
              "name": "salt",
              "type": "uint256"
            }
          ],
          "internalType": "struct LibNativeOrder.RfqOrder",
          "name": "order",
          "type": "tuple"
        },
        {
          "components": [
            {
              "internalType": "enum LibSignature.SignatureType",
              "name": "signatureType",
              "type": "uint8"
            },
            {
              "internalType": "uint8",
              "name": "v",
              "type": "uint8"
            },
            {
              "internalType": "bytes32",
              "name": "r",
              "type": "bytes32"
            },
            {
              "internalType": "bytes32",
              "name": "s",
              "type": "bytes32"
            }
          ],
          "internalType": "struct LibSignature.Signature",
          "name": "signature",
          "type": "tuple"
        }
      ],
      "name": "getRfqOrderRelevantState",
      "outputs": [
        {
          "components": [
            {
              "internalType": "bytes32",
              "name": "orderHash",
              "type": "bytes32"
            },
            {
              "internalType": "enum LibNativeOrder.OrderStatus",
              "name": "status",
              "type": "uint8"
            },
            {
              "internalType": "uint128",
              "name": "makerTokenFilledAmount",
              "type": "uint128"
            },
            {
              "internalType": "uint128",
              "name": "takerTokenFilledAmount",
              "type": "uint128"
            }
          ],
          "internalType": "struct LibNativeOrder.OrderInfo",
          "name": "orderInfo",
          "type": "tuple"
        },
        {
          "internalType": "uint128",
          "name": "actualFillableTakerTokenAmount",
          "type": "uint128"
        },
        {
          "internalType": "bool",
          "name": "isSignatureValid",
          "type": "bool"
        }
      ],
      "stateMutability": "view",
      "type": "function"
    },
    {
      "inputs": [],
      "name": "getWhitelist",
      "outputs": [
        {
          "internalType": "address",
          "name": "",
          "type": "address"
        }
      ],
      "stateMutability": "view",
      "type": "function"
    },
    {
      "inputs": [
        {
          "internalType": "address",
          "name": "maker",
          "type": "address"
        },
        {
          "internalType": "address",
          "name": "signer",
          "type": "address"
        }
      ],
      "name": "isValidOrderSigner",
      "outputs": [
        {
          "internalType": "bool",
          "name": "isValid",
          "type": "bool"
        }
      ],
      "stateMutability": "view",
      "type": "function"
    },
    {
      "inputs": [],
      "name": "migrate",
      "outputs": [
        {
          "internalType": "bytes4",
          "name": "success",
          "type": "bytes4"
        }
      ],
      "stateMutability": "nonpayable",
      "type": "function"
    },
    {
      "inputs": [
        {
          "internalType": "contract IERC20TokenV06",
          "name": "token",
          "type": "address"
        },
        {
          "internalType": "address",
          "name": "to",
          "type": "address"
        },
        {
          "internalType": "uint256",
          "name": "amount",
          "type": "uint256"
        }
      ],
      "name": "sendBalanceTo",
      "outputs": [],
      "stateMutability": "nonpayable",
      "type": "function"
    },
    {
      "inputs": [
        {
          "internalType": "address",
          "name": "_whitelist",
          "type": "address"
        }
      ],
      "name": "setWhitelist",
      "outputs": [],
      "stateMutability": "nonpayable",
      "type": "function"
    }
  ],
  "transactionHash": "0x35f07d45c99a17de373271f897ea51e571b91b4a0d9adf4c4f9e21796844b3a8",
  "args": [
    "0x108CecFb3D5bE0De1854B17CcC2d3f9049F2Ba3B"
  ],
  "solcInputHash": "2250c4d5dbef8177412f7de5c2c35a69",
  "bytecode": "0x60e06040526200001260018080620000f3565b60c0523480156200002257600080fd5b506040516200339638038062003396833981016040819052620000459162000125565b3060601b608052604051819081904690620000cd907f8b73c3c69bb8fe3d512ecc4cf759cc79239f7b179b0ffacaa9a75d522b39400f907f9e5dae0addaf20578aeb5d70341d092b53b4e14480ac5726438fd436df7ba427907f06c015bd22b4c69690933c1058878ebdfef31f9aaae40bbe86d8a09fe1b2972c908590879060200162000155565b60408051601f19818403018152919052805160209091012060a052506200018192505050565b6bffffffff0000000000000000604084901b1667ffffffff00000000602084901b161763ffffffff8216179392505050565b60006020828403121562000137578081fd5b81516001600160a01b03811681146200014e578182fd5b9392505050565b9485526020850193909352604084019190915260608301526001600160a01b0316608082015260a00190565b60805160601c60a05160c0516131e0620001b660003980610386525080611513528061167e525080611cdf52506131e06000f3fe608060405234801561001057600080fd5b50600436106101825760003560e01c80638240efad116100d8578063a9ca29071161008c578063d01f63f511610066578063d01f63f514610339578063dab400f31461034e578063dd11d2251461035657610182565b8063a9ca2907146102f1578063ad354eeb14610304578063b4658bfb1461032657610182565b80638fd3ab80116100bd5780638fd3ab80146102b657806395480889146102cb5780639d68d975146102de57610182565b80638240efad1461028e578063854cff2f146102a357610182565b8063346693c51161013a5780636ae4b4f7116101145780636ae4b4f7146102465780636b52a4a81461025b5780637652d0e21461027b57610182565b8063346693c51461020057806337f381d81461022057806357bd86231461023357610182565b80631fb097951161016b5780631fb09795146101b857806328952bd3146101da57806329683c31146101ed57610182565b8063016a6d6514610187578063031b905c146101b0575b600080fd5b61019a610195366004612912565b610369565b6040516101a79190612bf7565b60405180910390f35b61019a610384565b6101cb6101c636600461281f565b6103a8565b6040516101a793929190612fba565b61019a6101e836600461272d565b6104c0565b61019a6101fb36600461272d565b6104db565b61021361020e366004612912565b6104f9565b6040516101a79190612fac565b6101cb61022e36600461292e565b6105b2565b6102136102413660046127c6565b6106b2565b61024e6108de565b6040516101a79190612d4b565b61026e6102693660046125e2565b610917565b6040516101a79190612bec565b610213610289366004612803565b610961565b6102a161029c366004612745565b6109e4565b005b6102a16102b13660046125aa565b610b41565b6102be610c40565b6040516101a79190612c4a565b6102136102d9366004612803565b610d5d565b6102136102ec366004612855565b610de9565b6102a16102ff366004612786565b610e76565b6103176103123660046126af565b610f7b565b6040516101a793929190612b4d565b61031761033436600461261a565b6111e1565b61034161143c565b6040516101a79190612adf565b61019a611511565b61019a610364366004612803565b611535565b600061037c61037783611543565b61167a565b90505b919050565b7f000000000000000000000000000000000000000000000000000000000000000081565b6103b06122dd565b6000806103bc85610d5d565b925061044d6040518060a001604052808760a0015173ffffffffffffffffffffffffffffffffffffffff168152602001876000015173ffffffffffffffffffffffffffffffffffffffff16815260200187604001516fffffffffffffffffffffffffffffffff16815260200187606001516fffffffffffffffffffffffffffffffff168152602001858152506116cc565b835190925060009061046d906104683688900388018861295b565b6117f5565b90508073ffffffffffffffffffffffffffffffffffffffff168660a0015173ffffffffffffffffffffffffffffffffffffffff1614806104b657506104b68660a0015182610917565b9150509250925092565b60006104ca611946565b600092835260205250604090205490565b60006104e5611946565b600092835260060160205250604090205490565b6105016122dd565b61050a82610369565b81526000610516611946565b608084015173ffffffffffffffffffffffffffffffffffffffff9081166000908152600392909201602090815260408084208751841685528252808420828801519093168452919052908190205490840151610100850151610120860151929350610585928592919085611953565b60c083015173ffffffffffffffffffffffffffffffffffffffff166105ac57600060208301525b50919050565b6105ba6122dd565b6000806105c6856104f9565b92506106576040518060a00160405280876080015173ffffffffffffffffffffffffffffffffffffffff168152602001876000015173ffffffffffffffffffffffffffffffffffffffff16815260200187604001516fffffffffffffffffffffffffffffffff16815260200187606001516fffffffffffffffffffffffffffffffff168152602001858152506116cc565b915060006106698460000151866117f5565b90508073ffffffffffffffffffffffffffffffffffffffff16866080015173ffffffffffffffffffffffffffffffffffffffff1614806104b657506104b6866080015182610917565b6106ba6122dd565b336106cd61028936869003860186612803565b91506106f76106e136869003860186612803565b83836106f23688900388018861295b565b611a44565b61076a61070760208601866125aa565b61071760c0870160a088016125aa565b3061076561072b60a08a0160808b01612976565b6fffffffffffffffffffffffffffffffff1661074d60608b0160408c01612976565b6fffffffffffffffffffffffffffffffff1690611acb565b611ae7565b61079f61077d60a0860160808701612976565b6fffffffffffffffffffffffffffffffff1661074d6060870160408801612976565b6107a7611946565b8351600090815260069190910160205260409020556107cc60a0850160808601612976565b6fffffffffffffffffffffffffffffffff166107e6611946565b8351600090815260019190910160205260409020557f84f0f1e4e427b4972f1a9f8a0829ad8f6442107d05e4f8f7fad0e8de0bdb16d761082c60c0860160a087016125aa565b3060405161083b929190612b00565b60405180910390a161085360c0850160a086016125aa565b825173ffffffffffffffffffffffffffffffffffffffff91909116907f72c36ca20b990cbeaad30e0d04db7ba5d35980cc851ca60d588da5d9d62d370c61089d60208801886125aa565b6108ad6040890160208a016125aa565b6108bd60e08a0160c08b016125aa565b306040516108ce9493929190612cbf565b60405180910390a3505b92915050565b6040518060400160405280600b81526020017f4c696d69744f726465727300000000000000000000000000000000000000000081525081565b6000610921611946565b73ffffffffffffffffffffffffffffffffffffffff9384166000908152600591909101602090815260408083209490951682529290925250205460ff1690565b6109696122dd565b6109716122dd565b61097f838460400151610de9565b905082604001516fffffffffffffffffffffffffffffffff16600014156109be576020810160005b908160048111156109b457fe5b905250905061037f565b60608301516fffffffffffffffffffffffffffffffff1661037c576020810160006109a7565b60003073ffffffffffffffffffffffffffffffffffffffff16638da5cb5b6040518163ffffffff1660e01b815260040160206040518083038186803b158015610a2c57600080fd5b505afa158015610a40573d6000803e3d6000fd5b505050506040513d601f19601f82011682018060405250810190610a6491906125c6565b90503373ffffffffffffffffffffffffffffffffffffffff821614610a9557610a95610a903383611be6565b611ca1565b506000610aa0611946565b9050610ac2838383600601600088815260200190815260200160002054610e76565b60008481526020828152604080832080547f800000000000000000000000000000000000000000000000000000000000000017905560068401909152808220829055517fad529819d959f8d024994768538086dd7e9b3b0be27dd3b76bfe5f187ee71a5e91610b3391879190612c1e565b60405180910390a150505050565b60003073ffffffffffffffffffffffffffffffffffffffff16638da5cb5b6040518163ffffffff1660e01b815260040160206040518083038186803b158015610b8957600080fd5b505afa158015610b9d573d6000803e3d6000fd5b505050506040513d601f19601f82011682018060405250810190610bc191906125c6565b90503373ffffffffffffffffffffffffffffffffffffffff821614610bed57610bed610a903383611be6565b5080610bf7611946565b60080180547fffffffffffffffffffffffff00000000000000000000000000000000000000001673ffffffffffffffffffffffffffffffffffffffff9290921691909117905550565b6000610c6b7f57bd862300000000000000000000000000000000000000000000000000000000611ca9565b610c947f8240efad00000000000000000000000000000000000000000000000000000000611ca9565b610cbd7f29683c3100000000000000000000000000000000000000000000000000000000611ca9565b610ce67f28952bd300000000000000000000000000000000000000000000000000000000611ca9565b610d0f7fd01f63f500000000000000000000000000000000000000000000000000000000611ca9565b610d387f854cff2f00000000000000000000000000000000000000000000000000000000611ca9565b507f2c64c5ef0000000000000000000000000000000000000000000000000000000090565b610d656122dd565b610d6e82611535565b81526000610d7a611946565b60a084015173ffffffffffffffffffffffffffffffffffffffff90811660009081526002929092016020908152604080842087518416855282528084208288015190931684529190529081902054908401516101408501516101608601519293506105ac928592919085611953565b610df16122dd565b610dfa83611535565b81526000610e06611946565b60a085015173ffffffffffffffffffffffffffffffffffffffff9081166000908152600292909201602090815260408084208851841685528252808420828901519093168452919052902054610140850151610160860151919250610e6f918491869185611953565b5092915050565b73ffffffffffffffffffffffffffffffffffffffff8316301415610ecf576040517f08c379a0000000000000000000000000000000000000000000000000000000008152600401610ec690612e19565b60405180910390fd5b6040517fa9059cbb00000000000000000000000000000000000000000000000000000000815273ffffffffffffffffffffffffffffffffffffffff84169063a9059cbb90610f239085908590600401612b27565b602060405180830381600087803b158015610f3d57600080fd5b505af1158015610f51573d6000803e3d6000fd5b505050506040513d601f19601f82011682018060405250810190610f759190612711565b50505050565b60608080858414610fb8576040517f08c379a0000000000000000000000000000000000000000000000000000000008152600401610ec690612dbc565b8567ffffffffffffffff81118015610fcf57600080fd5b5060405190808252806020026020018201604052801561100957816020015b610ff66122dd565b815260200190600190039081610fee5790505b5092508567ffffffffffffffff8111801561102357600080fd5b5060405190808252806020026020018201604052801561104d578160200160208202803683370190505b5091508567ffffffffffffffff8111801561106757600080fd5b50604051908082528060200260200182016040528015611091578160200160208202803683370190505b50905060005b868110156111d657306337f381d88989848181106110b157fe5b905061014002018888858181106110c457fe5b9050608002016040518363ffffffff1660e01b81526004016110e7929190612ff0565b60c06040518083038186803b1580156110ff57600080fd5b505afa92505050801561114d575060408051601f3d9081017fffffffffffffffffffffffffffffffffffffffffffffffffffffffffffffffe016820190925261114a91810190612883565b60015b611156576111ce565b8287858151811061116357fe5b60200260200101819052508186858151811061117b57fe5b60200260200101906fffffffffffffffffffffffffffffffff1690816fffffffffffffffffffffffffffffffff1681525050808585815181106111ba57fe5b911515602092830291909101909101525050505b600101611097565b509450945094915050565b6060808085841461121e576040517f08c379a0000000000000000000000000000000000000000000000000000000008152600401610ec690612dbc565b8567ffffffffffffffff8111801561123557600080fd5b5060405190808252806020026020018201604052801561126f57816020015b61125c6122dd565b8152602001906001900390816112545790505b5092508567ffffffffffffffff8111801561128957600080fd5b506040519080825280602002602001820160405280156112b3578160200160208202803683370190505b5091508567ffffffffffffffff811180156112cd57600080fd5b506040519080825280602002602001820160405280156112f7578160200160208202803683370190505b50905060005b868110156111d65730631fb0979589898481811061131757fe5b9050610180020188888581811061132a57fe5b9050608002016040518363ffffffff1660e01b815260040161134d929190612e76565b60c06040518083038186803b15801561136557600080fd5b505afa9250505080156113b3575060408051601f3d9081017fffffffffffffffffffffffffffffffffffffffffffffffffffffffffffffffe01682019092526113b091810190612883565b60015b6113bc57611434565b828785815181106113c957fe5b6020026020010181905250818685815181106113e157fe5b60200260200101906fffffffffffffffffffffffffffffffff1690816fffffffffffffffffffffffffffffffff16815250508085858151811061142057fe5b911515602092830291909101909101525050505b6001016112fd565b6000803073ffffffffffffffffffffffffffffffffffffffff16638da5cb5b6040518163ffffffff1660e01b815260040160206040518083038186803b15801561148557600080fd5b505afa158015611499573d6000803e3d6000fd5b505050506040513d601f19601f820116820180604052508101906114bd91906125c6565b90503373ffffffffffffffffffffffffffffffffffffffff8216146114e9576114e9610a903383611be6565b506114f2611946565b6008015473ffffffffffffffffffffffffffffffffffffffff16905090565b7f000000000000000000000000000000000000000000000000000000000000000081565b600061037c61037783611d35565b60006040517fe593d3fdfa8b60e5e17a1b2204662ecbe15c23f2084b9ad5bae40359540a7da98152825173ffffffffffffffffffffffffffffffffffffffff166020820152602083015173ffffffffffffffffffffffffffffffffffffffff16604082015260408301516fffffffffffffffffffffffffffffffff16606082015260608301516fffffffffffffffffffffffffffffffff166080820152608083015173ffffffffffffffffffffffffffffffffffffffff1660a082015260a083015173ffffffffffffffffffffffffffffffffffffffff1660c082015260c083015173ffffffffffffffffffffffffffffffffffffffff1660e082015260e083015161010082015261010083015167ffffffffffffffff166101208201526101208301516101408201526101608120915050919050565b60007f0000000000000000000000000000000000000000000000000000000000000000826040516020016116af929190612aa9565b604051602081830303815290604052805190602001209050919050565b600081604001516fffffffffffffffffffffffffffffffff1660001480611707575060608201516fffffffffffffffffffffffffffffffff16155b156117145750600061037f565b6001826080015160200151600481111561172a57fe5b146117375750600061037f565b60006117908360800151604001518460600151036fffffffffffffffffffffffffffffffff1684606001516fffffffffffffffffffffffffffffffff1685604001516fffffffffffffffffffffffffffffffff16611eac565b90506117ad816117a885602001518660000151611eca565b611ffc565b90506117ee6117e98285604001516fffffffffffffffffffffffffffffffff1686606001516fffffffffffffffffffffffffffffffff16612012565b612036565b9392505050565b60006118018383612062565b60028251600381111561181057fe5b141561187857600183836020015184604001518560600151604051600081526020016040526040516118459493929190612c2c565b6020604051602081039080840390855afa158015611867573d6000803e3d6000fd5b50505060206040510351905061191d565b60038251600381111561188757fe5b141561191d5760007f19457468657265756d205369676e6564204d6573736167653a0a33320000000060005283601c52603c6000209050600181846020015185604001518660600151604051600081526020016040526040516118ed9493929190612c2c565b6020604051602081039080840390855afa15801561190f573d6000803e3d6000fd5b505050602060405103519150505b73ffffffffffffffffffffffffffffffffffffffff81166108d8576108d8610a90600585612116565b6000806108d8600761214c565b600061195d611946565b865160009081526020829052604090819020546fffffffffffffffffffffffffffffffff808216928a01839052929350918716116119b4576020870160025b908160048111156119a957fe5b815250505050611a3d565b7f80000000000000000000000000000000000000000000000000000000000000008116156119e75760208701600361199c565b504267ffffffffffffffff168467ffffffffffffffff1611611a21576020860160045b90816004811115611a1757fe5b8152505050611a3d565b82821115611a3457602086016003611a0a565b50600160208601525b5050505050565b600183602001516004811115611a5657fe5b14611a7057611a70610a9084600001518560200151612167565b6000611a808460000151836117f5565b90508460a0015173ffffffffffffffffffffffffffffffffffffffff168173ffffffffffffffffffffffffffffffffffffffff1614611a3d57611a3d610a9060008660000151612184565b6000828201838110156117ee576117ee610a90600086866121a1565b73ffffffffffffffffffffffffffffffffffffffff8416301415611b37576040517f08c379a0000000000000000000000000000000000000000000000000000000008152600401610ec690612e19565b6040517f23b872dd00000000000000000000000000000000000000000000000000000000815273ffffffffffffffffffffffffffffffffffffffff8416600482015273ffffffffffffffffffffffffffffffffffffffff83166024820152816044820152602081606483600073ffffffffffffffffffffffffffffffffffffffff8a165af13d60018351146020821015168115178216915081611bdd57806000843e8083fd5b50505050505050565b60607f1de45ad18e8a4484220a3ca14f4d977641addbaba5a344b1384dc2aa78a2e34d8383604051602401611c1c929190612b00565b604080517fffffffffffffffffffffffffffffffffffffffffffffffffffffffffffffffe08184030181529190526020810180517bffffffffffffffffffffffffffffffffffffffffffffffffffffffff167fffffffff0000000000000000000000000000000000000000000000000000000090931692909217909152905092915050565b805160208201fd5b6040517f6eb224cb0000000000000000000000000000000000000000000000000000000081523090636eb224cb90611d079084907f000000000000000000000000000000000000000000000000000000000000000090600401612c77565b600060405180830381600087803b158015611d2157600080fd5b505af1158015611a3d573d6000803e3d6000fd5b60006040517fce918627cb55462ddbb85e73de69a8b322f2bc88f4507c52fcad6d4c33c29d498152825173ffffffffffffffffffffffffffffffffffffffff166020820152602083015173ffffffffffffffffffffffffffffffffffffffff16604082015260408301516fffffffffffffffffffffffffffffffff16606082015260608301516fffffffffffffffffffffffffffffffff16608082015260808301516fffffffffffffffffffffffffffffffff1660a082015260a083015173ffffffffffffffffffffffffffffffffffffffff1660c082015260c083015173ffffffffffffffffffffffffffffffffffffffff1660e082015260e083015173ffffffffffffffffffffffffffffffffffffffff1661010082015261010083015173ffffffffffffffffffffffffffffffffffffffff1661012082015261012083015161014082015261014083015167ffffffffffffffff166101608201526101608301516101808201526101a08120915050919050565b6000611ec283611ebc8685612246565b90612277565b949350505050565b60006117ee8373ffffffffffffffffffffffffffffffffffffffff1663dd62ed3e84306040518363ffffffff1660e01b8152600401611f0a929190612b00565b60206040518083038186803b158015611f2257600080fd5b505afa158015611f36573d6000803e3d6000fd5b505050506040513d601f19601f82011682018060405250810190611f5a9190612992565b6040517f70a0823100000000000000000000000000000000000000000000000000000000815273ffffffffffffffffffffffffffffffffffffffff8616906370a0823190611fac908790600401612adf565b60206040518083038186803b158015611fc457600080fd5b505afa158015611fd8573d6000803e3d6000fd5b505050506040513d601f19601f820116820180604052508101906117a89190612992565b600081831061200b57816117ee565b5090919050565b6000611ec283611ebc6120268260016122a1565b6120308887612246565b90611acb565b60006fffffffffffffffffffffffffffffffff82111561205e5761205e610a906003846122c0565b5090565b60408101517ffffffffffffffffffffffffffffffffebaaedce6af48a03bbfd25e8cd03641411115806120b9575060608101517f7fffffffffffffffffffffffffffffff5d576e7357a4501ddfe92f46681b20a111155b156120cc576120cc610a90600584612116565b6000815160038111156120db57fe5b14156120ef576120ef610a90600384612116565b6001815160038111156120fe57fe5b141561211257612112610a90600084612116565b5050565b60607ff18f11f3027e735c758137924b262d4d3aff0037dcd785aca3c699fa05d960bd8383604051602401611c1c929190612d3d565b6000608082600881111561215c57fe5b600101901b92915050565b606063fdb6ca8d60e01b8383604051602401611c1c929190612c00565b6060637e5a231860e01b8383604051602401611c1c929190612d2f565b606063e946c1bb60e01b8484846040516024016121c093929190612cf7565b604080517fffffffffffffffffffffffffffffffffffffffffffffffffffffffffffffffe08184030181529190526020810180517bffffffffffffffffffffffffffffffffffffffffffffffffffffffff167fffffffff000000000000000000000000000000000000000000000000000000009093169290921790915290509392505050565b600082612255575060006108d8565b8282028284828161226257fe5b04146117ee576117ee610a90600186866121a1565b60008161228d5761228d610a90600385856121a1565b600082848161229857fe5b04949350505050565b6000828211156122ba576122ba610a90600285856121a1565b50900390565b606063c996af7b60e01b8383604051602401611c1c929190612d18565b604080516080810190915260008082526020820190815260006020820181905260409091015290565b80356108d88161314f565b60008083601f840112612322578182fd5b50813567ffffffffffffffff811115612339578182fd5b60208301915083602060808302850101111561235457600080fd5b9250929050565b600061018080838503121561236e578182fd5b612377816130e8565b9150506123848383612306565b81526123938360208401612306565b60208201526123a58360408401612576565b60408201526123b78360608401612576565b60608201526123c98360808401612576565b60808201526123db8360a08401612306565b60a08201526123ed8360c08401612306565b60c08201526123ff8360e08401612306565b60e082015261010061241384828501612306565b90820152610120828101359082015261014061243184828501612581565b818301525061016080830135818301525092915050565b600061014080838503121561245b578182fd5b612464816130e8565b9150506124718383612306565b81526124808360208401612306565b60208201526124928360408401612576565b60408201526124a48360608401612576565b60608201526124b68360808401612306565b60808201526124c88360a08401612306565b60a08201526124da8360c08401612306565b60c082015260e082013560e08201526101006124f884828501612581565b818301525061012080830135818301525092915050565b6000608082840312156105ac578081fd5b600060808284031215612531578081fd5b61253b60806130e8565b905081356125488161317f565b81526125578360208401612599565b6020820152604082013560408201526060820135606082015292915050565b80356108d88161318c565b803567ffffffffffffffff811681146108d857600080fd5b803560ff811681146108d857600080fd5b6000602082840312156125bb578081fd5b81356117ee8161314f565b6000602082840312156125d7578081fd5b81516117ee8161314f565b600080604083850312156125f4578081fd5b82356125ff8161314f565b9150602083013561260f8161314f565b809150509250929050565b6000806000806040858703121561262f578182fd5b843567ffffffffffffffff80821115612646578384fd5b818701915087601f830112612659578384fd5b813581811115612667578485fd5b8860206101808302850101111561267c578485fd5b602092830196509450908601359080821115612696578384fd5b506126a387828801612311565b95989497509550505050565b600080600080604085870312156126c4578182fd5b843567ffffffffffffffff808211156126db578384fd5b818701915087601f8301126126ee578384fd5b8135818111156126fc578485fd5b8860206101408302850101111561267c578485fd5b600060208284031215612722578081fd5b81516117ee81613171565b60006020828403121561273e578081fd5b5035919050565b600080600060608486031215612759578081fd5b83359250602084013561276b8161314f565b9150604084013561277b8161314f565b809150509250925092565b60008060006060848603121561279a578081fd5b83356127a58161314f565b925060208401356127b58161314f565b929592945050506040919091013590565b6000808284036102008112156127da578283fd5b610180808212156127e9578384fd5b8493506127f88682870161250f565b925050509250929050565b60006101808284031215612815578081fd5b6117ee838361235b565b6000806102008385031215612832578182fd5b61283c848461235b565b915061284c84610180850161250f565b90509250929050565b6000806101a08385031215612868578182fd5b612872848461235b565b915061018083013561260f8161318c565b600080600083850360c0811215612898578182fd5b60808112156128a5578182fd5b506128b060806130e8565b845181526020850151600581106128c5578283fd5b602082015260408501516128d88161318c565b604082015260608501516128eb8161318c565b606082015260808501519093506129018161318c565b60a085015190925061277b81613171565b60006101408284031215612924578081fd5b6117ee8383612448565b6000806101c08385031215612941578182fd5b61294b8484612448565b915061284c846101408501612520565b60006080828403121561296c578081fd5b6117ee8383612520565b600060208284031215612987578081fd5b81356117ee8161318c565b6000602082840312156129a3578081fd5b5051919050565b73ffffffffffffffffffffffffffffffffffffffff169052565b6000815180845260208085019450808401835b838110156129f55781511515875295820195908201906001016129d7565b509495945050505050565b80518252602081015160058110612a1357fe5b60208301526040818101516fffffffffffffffffffffffffffffffff9081169184019190915260609182015116910152565b8035612a508161317f565b612a5981613142565b82526040810160ff612a6e8260208501612599565b166020840152356040830152606090810135910152565b6fffffffffffffffffffffffffffffffff169052565b67ffffffffffffffff169052565b7f190100000000000000000000000000000000000000000000000000000000000081526002810192909252602282015260420190565b73ffffffffffffffffffffffffffffffffffffffff91909116815260200190565b73ffffffffffffffffffffffffffffffffffffffff92831681529116602082015260400190565b73ffffffffffffffffffffffffffffffffffffffff929092168252602082015260400190565b60608082528451908201819052600090608090818401906020808901855b83811015612b8e57612b7e858351612a00565b9385019390820190600101612b6b565b50508583038187015287518084529281019350878101929150845b82811015612bcc57612bbc858551612a85565b9381019392810192600101612ba9565b505050508281036040840152612be281856129c4565b9695505050505050565b901515815260200190565b90815260200190565b8281526040810160058310612c1157fe5b8260208301529392505050565b918252602082015260400190565b93845260ff9290921660208401526040830152606082015260800190565b7fffffffff0000000000000000000000000000000000000000000000000000000091909116815260200190565b7fffffffff0000000000000000000000000000000000000000000000000000000092909216825273ffffffffffffffffffffffffffffffffffffffff16602082015260400190565b73ffffffffffffffffffffffffffffffffffffffff948516815292841660208401529083166040830152909116606082015260800190565b60608101612d0485613142565b938152602081019290925260409091015290565b60408101612d2584613142565b9281526020015290565b6040810160078410612d2557fe5b6040810160068410612d2557fe5b6000602080835283518082850152825b81811015612d7757858101830151858201604001528201612d5b565b81811115612d885783604083870101525b50601f017fffffffffffffffffffffffffffffffffffffffffffffffffffffffffffffffe016929092016040019392505050565b6020808252602c908201527f4e61746976654f7264657273466561747572652f4d49534d4154434845445f4160408201527f525241595f4c454e475448530000000000000000000000000000000000000000606082015260800190565b60208082526024908201527f466978696e546f6b656e5370656e6465722f43414e4e4f545f494e564f4b455f60408201527f53454c4600000000000000000000000000000000000000000000000000000000606082015260800190565b610200810160208401612e9283612e8d8388612306565b6129aa565b612e9c818661310f565b9050612eab60208401826129aa565b50612eb9604085018561311c565b612ec66040840182612a85565b50612ed4606085018561311c565b612ee16060840182612a85565b50612eef608085018561311c565b612efc6080840182612a85565b50612f0a60a085018561310f565b612f1760a08401826129aa565b50612f2560c085018561310f565b612f3260c08401826129aa565b50612f4060e085018561310f565b612f4d60e08401826129aa565b50610100612f5d8186018661310f565b612f69828501826129aa565b50506101208481013590830152610140612f8581860186613129565b612f9182850182612a9b565b505061016084810135908301526117ee610180830184612a45565b608081016108d88284612a00565b60c08101612fc88286612a00565b6fffffffffffffffffffffffffffffffff8416608083015282151560a0830152949350505050565b6101c081016020840161300783612e8d8388612306565b613011818661310f565b905061302060208401826129aa565b5061302e604085018561311c565b61303b6040840182612a85565b50613049606085018561311c565b6130566060840182612a85565b50613064608085018561310f565b61307160808401826129aa565b5061307f60a085018561310f565b61308c60a08401826129aa565b5061309a60c085018561310f565b6130a760c08401826129aa565b5060e084013560e08301526101006130c181860186613129565b6130cd82850182612a9b565b505061012084810135908301526117ee610140830184612a45565b60405181810167ffffffffffffffff8111828210171561310757600080fd5b604052919050565b600082356117ee8161314f565b600082356117ee8161318c565b6000823567ffffffffffffffff811681146117ee578182fd5b6004811061314c57fe5b50565b73ffffffffffffffffffffffffffffffffffffffff8116811461314c57600080fd5b801515811461314c57600080fd5b6004811061314c57600080fd5b6fffffffffffffffffffffffffffffffff8116811461314c57600080fdfea2646970667358221220f5ee5fa9360022e904cd21fe8d8b20a0c215bc8b99f0cad1720ab786e64f346b64736f6c634300060c0033",
  "devdoc": {
    "kind": "dev",
    "methods": {
      "batchGetLimitOrderRelevantStates((address,address,uint128,uint128,uint128,address,address,address,address,bytes32,uint64,uint256)[],(uint8,uint8,bytes32,bytes32)[])": {
        "details": "Batch version of `getLimitOrderRelevantState()`, without reverting.      Orders that would normally cause `getLimitOrderRelevantState()`      to revert will have empty results.",
        "params": {
          "orders": "The limit orders.",
          "signatures": "The order signatures."
        },
        "returns": {
          "actualFillableTakerTokenAmounts": "How much of each order is fillable         based on maker funds, in taker tokens.",
          "isSignatureValids": "Whether each signature is valid for the order.",
          "orderInfos": "Info about the orders."
        }
      },
      "batchGetRfqOrderRelevantStates((address,address,uint128,uint128,address,address,address,bytes32,uint64,uint256)[],(uint8,uint8,bytes32,bytes32)[])": {
        "details": "Batch version of `getRfqOrderRelevantState()`, without reverting.      Orders that would normally cause `getRfqOrderRelevantState()`      to revert will have empty results.",
        "params": {
          "orders": "The RFQ orders.",
          "signatures": "The order signatures."
        },
        "returns": {
          "actualFillableTakerTokenAmounts": "How much of each order is fillable         based on maker funds, in taker tokens.",
          "isSignatureValids": "Whether each signature is valid for the order.",
          "orderInfos": "Info about the orders."
        }
      },
      "getLimitOrderHash((address,address,uint128,uint128,uint128,address,address,address,address,bytes32,uint64,uint256))": {
        "details": "Get the canonical hash of a limit order.",
        "params": {
          "order": "The limit order."
        },
        "returns": {
          "orderHash": "The order hash."
        }
      },
      "getLimitOrderInfo((address,address,uint128,uint128,uint128,address,address,address,address,bytes32,uint64,uint256))": {
        "details": "Get the order info for a limit order.",
        "params": {
          "order": "The limit order."
        },
        "returns": {
          "orderInfo": "Info about the order."
        }
      },
      "getLimitOrderRelevantState((address,address,uint128,uint128,uint128,address,address,address,address,bytes32,uint64,uint256),(uint8,uint8,bytes32,bytes32))": {
        "details": "Get order info, fillable amount, and signature validity for a limit order.      Fillable amount is determined using balances and allowances of the maker.",
        "params": {
          "order": "The limit order.",
          "signature": "The order signature."
        },
        "returns": {
          "actualFillableTakerTokenAmount": "How much of the order is fillable         based on maker funds, in taker tokens.",
          "isSignatureValid": "Whether the signature is valid.",
          "orderInfo": "Info about the order."
        }
      },
      "getRfqOrderHash((address,address,uint128,uint128,address,address,address,bytes32,uint64,uint256))": {
        "details": "Get the canonical hash of an RFQ order.",
        "params": {
          "order": "The RFQ order."
        },
        "returns": {
          "orderHash": "The order hash."
        }
      },
      "getRfqOrderInfo((address,address,uint128,uint128,address,address,address,bytes32,uint64,uint256))": {
        "details": "Get the order info for an RFQ order.",
        "params": {
          "order": "The RFQ order."
        },
        "returns": {
          "orderInfo": "Info about the order."
        }
      },
      "getRfqOrderRelevantState((address,address,uint128,uint128,address,address,address,bytes32,uint64,uint256),(uint8,uint8,bytes32,bytes32))": {
        "details": "Get order info, fillable amount, and signature validity for an RFQ order.      Fillable amount is determined using balances and allowances of the maker.",
        "params": {
          "order": "The RFQ order.",
          "signature": "The order signature."
        },
        "returns": {
          "actualFillableTakerTokenAmount": "How much of the order is fillable         based on maker funds, in taker tokens.",
          "isSignatureValid": "Whether the signature is valid.",
          "orderInfo": "Info about the order."
        }
      },
      "isValidOrderSigner(address,address)": {
        "details": "checks if a given address is registered to sign on behalf of a maker address",
        "params": {
          "maker": "The maker address encoded in an order (can be a contract)",
          "signer": "The address that is providing a signature"
        }
      }
    },
    "stateVariables": {
      "FEATURE_NAME": {
        "details": "The name of this feature set."
      },
      "FEATURE_VERSION": {
        "details": "Version of this feature."
      }
    },
    "version": 1
  },
  "userdoc": {
    "kind": "user",
    "methods": {},
    "version": 1
  },
  "storageLayout": {
    "storage": [],
    "types": null
  }
}