{
  "address": "0x31b2954fEA408aA33E70B4EEBe1bC8bb12279c4c",
  "abi": [
    {
      "inputs": [
        {
          "internalType": "address",
          "name": "zeroExAddress",
          "type": "address"
        }
      ],
      "stateMutability": "nonpayable",
      "type": "constructor"
    },
    {
      "anonymous": false,
      "inputs": [
        {
          "indexed": true,
          "internalType": "bytes32",
          "name": "orderHash",
          "type": "bytes32"
        },
        {
          "indexed": false,
          "internalType": "uint256",
          "name": "makerAmountFinal",
          "type": "uint256"
        },
        {
          "indexed": false,
          "internalType": "uint256",
          "name": "takerAmountFinal",
          "type": "uint256"
        },
        {
          "indexed": false,
          "internalType": "uint256",
          "name": "feePaid",
          "type": "uint256"
        }
      ],
      "name": "Fill",
      "type": "event"
    },
    {
      "anonymous": false,
      "inputs": [
        {
          "indexed": false,
          "internalType": "uint256",
          "name": "stt",
          "type": "uint256"
        },
        {
          "indexed": false,
          "internalType": "address",
          "name": "from",
          "type": "address"
        },
        {
          "indexed": false,
          "internalType": "address",
          "name": "to",
          "type": "address"
        },
        {
          "indexed": false,
          "internalType": "uint256",
          "name": "amount",
          "type": "uint256"
        }
      ],
      "name": "TransferMatchDone",
      "type": "event"
    },
    {
      "inputs": [],
      "name": "EIP712_DOMAIN_SEPARATOR",
      "outputs": [
        {
          "internalType": "bytes32",
          "name": "",
          "type": "bytes32"
        }
      ],
      "stateMutability": "view",
      "type": "function"
    },
    {
      "inputs": [],
      "name": "FEATURE_NAME",
      "outputs": [
        {
          "internalType": "string",
          "name": "",
          "type": "string"
        }
      ],
      "stateMutability": "view",
      "type": "function"
    },
    {
      "inputs": [],
      "name": "FEATURE_VERSION",
      "outputs": [
        {
          "internalType": "uint256",
          "name": "",
          "type": "uint256"
        }
      ],
      "stateMutability": "view",
      "type": "function"
    },
    {
      "inputs": [
        {
          "components": [
            {
              "internalType": "contract IERC20TokenV06",
              "name": "makerToken",
              "type": "address"
            },
            {
              "internalType": "contract IERC20TokenV06",
              "name": "takerToken",
              "type": "address"
            },
            {
              "internalType": "uint128",
              "name": "makerAmount",
              "type": "uint128"
            },
            {
              "internalType": "uint128",
              "name": "takerAmount",
              "type": "uint128"
            },
            {
              "internalType": "uint128",
              "name": "takerTokenFeeAmount",
              "type": "uint128"
            },
            {
              "internalType": "address",
              "name": "maker",
              "type": "address"
            },
            {
              "internalType": "address",
              "name": "taker",
              "type": "address"
            },
            {
              "internalType": "address",
              "name": "sender",
              "type": "address"
            },
            {
              "internalType": "address",
              "name": "feeRecipient",
              "type": "address"
            },
            {
              "internalType": "bytes32",
              "name": "pool",
              "type": "bytes32"
            },
            {
              "internalType": "uint64",
              "name": "expiry",
              "type": "uint64"
            },
            {
              "internalType": "uint256",
              "name": "salt",
              "type": "uint256"
            }
          ],
          "internalType": "struct LibNativeOrder.LimitOrder[]",
          "name": "orders",
          "type": "tuple[]"
        },
        {
          "components": [
            {
              "internalType": "enum LibSignature.SignatureType",
              "name": "signatureType",
              "type": "uint8"
            },
            {
              "internalType": "uint8",
              "name": "v",
              "type": "uint8"
            },
            {
              "internalType": "bytes32",
              "name": "r",
              "type": "bytes32"
            },
            {
              "internalType": "bytes32",
              "name": "s",
              "type": "bytes32"
            }
          ],
          "internalType": "struct LibSignature.Signature[]",
          "name": "signatures",
          "type": "tuple[]"
        }
      ],
      "name": "batchGetLimitOrderRelevantStates",
      "outputs": [
        {
          "components": [
            {
              "internalType": "bytes32",
              "name": "orderHash",
              "type": "bytes32"
            },
            {
              "internalType": "enum LibNativeOrder.OrderStatus",
              "name": "status",
              "type": "uint8"
            },
            {
              "internalType": "uint128",
              "name": "makerTokenFilledAmount",
              "type": "uint128"
            },
            {
              "internalType": "uint128",
              "name": "takerTokenFilledAmount",
              "type": "uint128"
            }
          ],
          "internalType": "struct LibNativeOrder.OrderInfo[]",
          "name": "orderInfos",
          "type": "tuple[]"
        },
        {
          "internalType": "uint128[]",
          "name": "actualFillableTakerTokenAmounts",
          "type": "uint128[]"
        },
        {
          "internalType": "bool[]",
          "name": "isSignatureValids",
          "type": "bool[]"
        }
      ],
      "stateMutability": "view",
      "type": "function"
    },
    {
      "inputs": [
        {
          "components": [
            {
              "internalType": "contract IERC20TokenV06",
              "name": "makerToken",
              "type": "address"
            },
            {
              "internalType": "contract IERC20TokenV06",
              "name": "takerToken",
              "type": "address"
            },
            {
              "internalType": "uint128",
              "name": "makerAmount",
              "type": "uint128"
            },
            {
              "internalType": "uint128",
              "name": "takerAmount",
              "type": "uint128"
            },
            {
              "internalType": "address",
              "name": "maker",
              "type": "address"
            },
            {
              "internalType": "address",
              "name": "taker",
              "type": "address"
            },
            {
              "internalType": "address",
              "name": "txOrigin",
              "type": "address"
            },
            {
              "internalType": "bytes32",
              "name": "pool",
              "type": "bytes32"
            },
            {
              "internalType": "uint64",
              "name": "expiry",
              "type": "uint64"
            },
            {
              "internalType": "uint256",
              "name": "salt",
              "type": "uint256"
            }
          ],
          "internalType": "struct LibNativeOrder.RfqOrder[]",
          "name": "orders",
          "type": "tuple[]"
        },
        {
          "components": [
            {
              "internalType": "enum LibSignature.SignatureType",
              "name": "signatureType",
              "type": "uint8"
            },
            {
              "internalType": "uint8",
              "name": "v",
              "type": "uint8"
            },
            {
              "internalType": "bytes32",
              "name": "r",
              "type": "bytes32"
            },
            {
              "internalType": "bytes32",
              "name": "s",
              "type": "bytes32"
            }
          ],
          "internalType": "struct LibSignature.Signature[]",
          "name": "signatures",
          "type": "tuple[]"
        }
      ],
      "name": "batchGetRfqOrderRelevantStates",
      "outputs": [
        {
          "components": [
            {
              "internalType": "bytes32",
              "name": "orderHash",
              "type": "bytes32"
            },
            {
              "internalType": "enum LibNativeOrder.OrderStatus",
              "name": "status",
              "type": "uint8"
            },
            {
              "internalType": "uint128",
              "name": "makerTokenFilledAmount",
              "type": "uint128"
            },
            {
              "internalType": "uint128",
              "name": "takerTokenFilledAmount",
              "type": "uint128"
            }
          ],
          "internalType": "struct LibNativeOrder.OrderInfo[]",
          "name": "orderInfos",
          "type": "tuple[]"
        },
        {
          "internalType": "uint128[]",
          "name": "actualFillableTakerTokenAmounts",
          "type": "uint128[]"
        },
        {
          "internalType": "bool[]",
          "name": "isSignatureValids",
          "type": "bool[]"
        }
      ],
      "stateMutability": "view",
      "type": "function"
    },
    {
      "inputs": [
        {
          "internalType": "uint8",
          "name": "typeOrder",
          "type": "uint8"
        }
      ],
      "name": "compare",
      "outputs": [
        {
          "internalType": "uint256",
          "name": "sellRemaining",
          "type": "uint256"
        }
      ],
      "stateMutability": "view",
      "type": "function"
    },
    {
      "inputs": [],
      "name": "getDecimalPrice",
      "outputs": [
        {
          "internalType": "uint256",
          "name": "",
          "type": "uint256"
        }
      ],
      "stateMutability": "view",
      "type": "function"
    },
    {
      "inputs": [
        {
          "components": [
            {
              "internalType": "contract IERC20TokenV06",
              "name": "makerToken",
              "type": "address"
            },
            {
              "internalType": "contract IERC20TokenV06",
              "name": "takerToken",
              "type": "address"
            },
            {
              "internalType": "uint128",
              "name": "makerAmount",
              "type": "uint128"
            },
            {
              "internalType": "uint128",
              "name": "takerAmount",
              "type": "uint128"
            },
            {
              "internalType": "uint128",
              "name": "takerTokenFeeAmount",
              "type": "uint128"
            },
            {
              "internalType": "address",
              "name": "maker",
              "type": "address"
            },
            {
              "internalType": "address",
              "name": "taker",
              "type": "address"
            },
            {
              "internalType": "address",
              "name": "sender",
              "type": "address"
            },
            {
              "internalType": "address",
              "name": "feeRecipient",
              "type": "address"
            },
            {
              "internalType": "bytes32",
              "name": "pool",
              "type": "bytes32"
            },
            {
              "internalType": "uint64",
              "name": "expiry",
              "type": "uint64"
            },
            {
              "internalType": "uint256",
              "name": "salt",
              "type": "uint256"
            }
          ],
          "internalType": "struct LibNativeOrder.LimitOrder",
          "name": "order",
          "type": "tuple"
        }
      ],
      "name": "getLimitOrderHash",
      "outputs": [
        {
          "internalType": "bytes32",
          "name": "orderHash",
          "type": "bytes32"
        }
      ],
      "stateMutability": "view",
      "type": "function"
    },
    {
      "inputs": [
        {
          "components": [
            {
              "internalType": "contract IERC20TokenV06",
              "name": "makerToken",
              "type": "address"
            },
            {
              "internalType": "contract IERC20TokenV06",
              "name": "takerToken",
              "type": "address"
            },
            {
              "internalType": "uint128",
              "name": "makerAmount",
              "type": "uint128"
            },
            {
              "internalType": "uint128",
              "name": "takerAmount",
              "type": "uint128"
            },
            {
              "internalType": "uint128",
              "name": "takerTokenFeeAmount",
              "type": "uint128"
            },
            {
              "internalType": "address",
              "name": "maker",
              "type": "address"
            },
            {
              "internalType": "address",
              "name": "taker",
              "type": "address"
            },
            {
              "internalType": "address",
              "name": "sender",
              "type": "address"
            },
            {
              "internalType": "address",
              "name": "feeRecipient",
              "type": "address"
            },
            {
              "internalType": "bytes32",
              "name": "pool",
              "type": "bytes32"
            },
            {
              "internalType": "uint64",
              "name": "expiry",
              "type": "uint64"
            },
            {
              "internalType": "uint256",
              "name": "salt",
              "type": "uint256"
            }
          ],
          "internalType": "struct LibNativeOrder.LimitOrder",
          "name": "order",
          "type": "tuple"
        }
      ],
      "name": "getLimitOrderInfo",
      "outputs": [
        {
          "components": [
            {
              "internalType": "bytes32",
              "name": "orderHash",
              "type": "bytes32"
            },
            {
              "internalType": "enum LibNativeOrder.OrderStatus",
              "name": "status",
              "type": "uint8"
            },
            {
              "internalType": "uint128",
              "name": "makerTokenFilledAmount",
              "type": "uint128"
            },
            {
              "internalType": "uint128",
              "name": "takerTokenFilledAmount",
              "type": "uint128"
            }
          ],
          "internalType": "struct LibNativeOrder.OrderInfo",
          "name": "orderInfo",
          "type": "tuple"
        }
      ],
      "stateMutability": "view",
      "type": "function"
    },
    {
      "inputs": [
        {
          "components": [
            {
              "internalType": "contract IERC20TokenV06",
              "name": "makerToken",
              "type": "address"
            },
            {
              "internalType": "contract IERC20TokenV06",
              "name": "takerToken",
              "type": "address"
            },
            {
              "internalType": "uint128",
              "name": "makerAmount",
              "type": "uint128"
            },
            {
              "internalType": "uint128",
              "name": "takerAmount",
              "type": "uint128"
            },
            {
              "internalType": "uint128",
              "name": "takerTokenFeeAmount",
              "type": "uint128"
            },
            {
              "internalType": "address",
              "name": "maker",
              "type": "address"
            },
            {
              "internalType": "address",
              "name": "taker",
              "type": "address"
            },
            {
              "internalType": "address",
              "name": "sender",
              "type": "address"
            },
            {
              "internalType": "address",
              "name": "feeRecipient",
              "type": "address"
            },
            {
              "internalType": "bytes32",
              "name": "pool",
              "type": "bytes32"
            },
            {
              "internalType": "uint64",
              "name": "expiry",
              "type": "uint64"
            },
            {
              "internalType": "uint256",
              "name": "salt",
              "type": "uint256"
            }
          ],
          "internalType": "struct LibNativeOrder.LimitOrder",
          "name": "order",
          "type": "tuple"
        },
        {
          "internalType": "uint128",
          "name": "amount",
          "type": "uint128"
        }
      ],
      "name": "getLimitOrderInfoV2",
      "outputs": [
        {
          "components": [
            {
              "internalType": "bytes32",
              "name": "orderHash",
              "type": "bytes32"
            },
            {
              "internalType": "enum LibNativeOrder.OrderStatus",
              "name": "status",
              "type": "uint8"
            },
            {
              "internalType": "uint128",
              "name": "makerTokenFilledAmount",
              "type": "uint128"
            },
            {
              "internalType": "uint128",
              "name": "takerTokenFilledAmount",
              "type": "uint128"
            }
          ],
          "internalType": "struct LibNativeOrder.OrderInfo",
          "name": "orderInfo",
          "type": "tuple"
        }
      ],
      "stateMutability": "view",
      "type": "function"
    },
    {
      "inputs": [
        {
          "components": [
            {
              "internalType": "contract IERC20TokenV06",
              "name": "makerToken",
              "type": "address"
            },
            {
              "internalType": "contract IERC20TokenV06",
              "name": "takerToken",
              "type": "address"
            },
            {
              "internalType": "uint128",
              "name": "makerAmount",
              "type": "uint128"
            },
            {
              "internalType": "uint128",
              "name": "takerAmount",
              "type": "uint128"
            },
            {
              "internalType": "uint128",
              "name": "takerTokenFeeAmount",
              "type": "uint128"
            },
            {
              "internalType": "address",
              "name": "maker",
              "type": "address"
            },
            {
              "internalType": "address",
              "name": "taker",
              "type": "address"
            },
            {
              "internalType": "address",
              "name": "sender",
              "type": "address"
            },
            {
              "internalType": "address",
              "name": "feeRecipient",
              "type": "address"
            },
            {
              "internalType": "bytes32",
              "name": "pool",
              "type": "bytes32"
            },
            {
              "internalType": "uint64",
              "name": "expiry",
              "type": "uint64"
            },
            {
              "internalType": "uint256",
              "name": "salt",
              "type": "uint256"
            }
          ],
          "internalType": "struct LibNativeOrder.LimitOrder",
          "name": "order",
          "type": "tuple"
        },
        {
          "components": [
            {
              "internalType": "enum LibSignature.SignatureType",
              "name": "signatureType",
              "type": "uint8"
            },
            {
              "internalType": "uint8",
              "name": "v",
              "type": "uint8"
            },
            {
              "internalType": "bytes32",
              "name": "r",
              "type": "bytes32"
            },
            {
              "internalType": "bytes32",
              "name": "s",
              "type": "bytes32"
            }
          ],
          "internalType": "struct LibSignature.Signature",
          "name": "signature",
          "type": "tuple"
        }
      ],
      "name": "getLimitOrderRelevantState",
      "outputs": [
        {
          "components": [
            {
              "internalType": "bytes32",
              "name": "orderHash",
              "type": "bytes32"
            },
            {
              "internalType": "enum LibNativeOrder.OrderStatus",
              "name": "status",
              "type": "uint8"
            },
            {
              "internalType": "uint128",
              "name": "makerTokenFilledAmount",
              "type": "uint128"
            },
            {
              "internalType": "uint128",
              "name": "takerTokenFilledAmount",
              "type": "uint128"
            }
          ],
          "internalType": "struct LibNativeOrder.OrderInfo",
          "name": "orderInfo",
          "type": "tuple"
        },
        {
          "internalType": "uint128",
          "name": "actualFillableTakerTokenAmount",
          "type": "uint128"
        },
        {
          "internalType": "bool",
          "name": "isSignatureValid",
          "type": "bool"
        }
      ],
      "stateMutability": "view",
      "type": "function"
    },
    {
      "inputs": [
        {
          "components": [
            {
              "internalType": "contract IERC20TokenV06",
              "name": "makerToken",
              "type": "address"
            },
            {
              "internalType": "contract IERC20TokenV06",
              "name": "takerToken",
              "type": "address"
            },
            {
              "internalType": "uint128",
              "name": "makerAmount",
              "type": "uint128"
            },
            {
              "internalType": "uint128",
              "name": "takerAmount",
              "type": "uint128"
            },
            {
              "internalType": "uint128",
              "name": "takerTokenFeeAmount",
              "type": "uint128"
            },
            {
              "internalType": "address",
              "name": "maker",
              "type": "address"
            },
            {
              "internalType": "address",
              "name": "taker",
              "type": "address"
            },
            {
              "internalType": "address",
              "name": "sender",
              "type": "address"
            },
            {
              "internalType": "address",
              "name": "feeRecipient",
              "type": "address"
            },
            {
              "internalType": "bytes32",
              "name": "pool",
              "type": "bytes32"
            },
            {
              "internalType": "uint64",
              "name": "expiry",
              "type": "uint64"
            },
            {
              "internalType": "uint256",
              "name": "salt",
              "type": "uint256"
            }
          ],
          "internalType": "struct LibNativeOrder.LimitOrder",
          "name": "sellOrder",
          "type": "tuple"
        },
        {
          "components": [
            {
              "internalType": "contract IERC20TokenV06",
              "name": "makerToken",
              "type": "address"
            },
            {
              "internalType": "contract IERC20TokenV06",
              "name": "takerToken",
              "type": "address"
            },
            {
              "internalType": "uint128",
              "name": "makerAmount",
              "type": "uint128"
            },
            {
              "internalType": "uint128",
              "name": "takerAmount",
              "type": "uint128"
            },
            {
              "internalType": "uint128",
              "name": "takerTokenFeeAmount",
              "type": "uint128"
            },
            {
              "internalType": "address",
              "name": "maker",
              "type": "address"
            },
            {
              "internalType": "address",
              "name": "taker",
              "type": "address"
            },
            {
              "internalType": "address",
              "name": "sender",
              "type": "address"
            },
            {
              "internalType": "address",
              "name": "feeRecipient",
              "type": "address"
            },
            {
              "internalType": "bytes32",
              "name": "pool",
              "type": "bytes32"
            },
            {
              "internalType": "uint64",
              "name": "expiry",
              "type": "uint64"
            },
            {
              "internalType": "uint256",
              "name": "salt",
              "type": "uint256"
            }
          ],
          "internalType": "struct LibNativeOrder.LimitOrder",
          "name": "buyOrder",
          "type": "tuple"
        },
        {
          "internalType": "uint256",
          "name": "price",
          "type": "uint256"
        },
        {
          "internalType": "uint8",
          "name": "sellType",
          "type": "uint8"
        },
        {
          "internalType": "uint8",
          "name": "buyType",
          "type": "uint8"
        }
      ],
      "name": "getMatchOrderResult",
      "outputs": [
        {
          "components": [
            {
              "internalType": "uint256",
              "name": "makerAmountFinal",
              "type": "uint256"
            },
            {
              "internalType": "uint256",
              "name": "takerAmountFinal",
              "type": "uint256"
            },
            {
              "internalType": "uint256",
              "name": "sellFeePaid",
              "type": "uint256"
            },
            {
              "internalType": "uint256",
              "name": "buyFeePaid",
              "type": "uint256"
            },
            {
              "internalType": "uint256",
              "name": "returnSellAmount",
              "type": "uint256"
            },
            {
              "internalType": "uint256",
              "name": "returnBuyAmount",
              "type": "uint256"
            }
          ],
          "internalType": "struct LibNativeOrder.MatchedFillResults",
          "name": "matchedFillResults",
          "type": "tuple"
        }
      ],
      "stateMutability": "view",
      "type": "function"
    },
    {
      "inputs": [
        {
          "internalType": "bytes32",
          "name": "orderHash",
          "type": "bytes32"
        }
      ],
      "name": "getOrderHashInfo",
      "outputs": [
        {
          "internalType": "uint256",
          "name": "filled",
          "type": "uint256"
        },
        {
          "internalType": "uint256",
          "name": "feeLock",
          "type": "uint256"
        },
        {
          "internalType": "uint256",
          "name": "locked",
          "type": "uint256"
        }
      ],
      "stateMutability": "view",
      "type": "function"
    },
    {
      "inputs": [
        {
          "components": [
            {
              "internalType": "contract IERC20TokenV06",
              "name": "makerToken",
              "type": "address"
            },
            {
              "internalType": "contract IERC20TokenV06",
              "name": "takerToken",
              "type": "address"
            },
            {
              "internalType": "uint128",
              "name": "makerAmount",
              "type": "uint128"
            },
            {
              "internalType": "uint128",
              "name": "takerAmount",
              "type": "uint128"
            },
            {
              "internalType": "uint128",
              "name": "takerTokenFeeAmount",
              "type": "uint128"
            },
            {
              "internalType": "address",
              "name": "maker",
              "type": "address"
            },
            {
              "internalType": "address",
              "name": "taker",
              "type": "address"
            },
            {
              "internalType": "address",
              "name": "sender",
              "type": "address"
            },
            {
              "internalType": "address",
              "name": "feeRecipient",
              "type": "address"
            },
            {
              "internalType": "bytes32",
              "name": "pool",
              "type": "bytes32"
            },
            {
              "internalType": "uint64",
              "name": "expiry",
              "type": "uint64"
            },
            {
              "internalType": "uint256",
              "name": "salt",
              "type": "uint256"
            }
          ],
          "internalType": "struct LibNativeOrder.LimitOrder",
          "name": "order",
          "type": "tuple"
        },
        {
          "internalType": "uint128",
          "name": "amount",
          "type": "uint128"
        }
      ],
      "name": "getOrderInfo",
      "outputs": [
        {
          "components": [
            {
              "internalType": "bytes32",
              "name": "orderHash",
              "type": "bytes32"
            },
            {
              "internalType": "enum LibNativeOrder.OrderStatus",
              "name": "status",
              "type": "uint8"
            },
            {
              "internalType": "uint128",
              "name": "makerTokenFilledAmount",
              "type": "uint128"
            },
            {
              "internalType": "uint128",
              "name": "takerTokenFilledAmount",
              "type": "uint128"
            }
          ],
          "internalType": "struct LibNativeOrder.OrderInfo",
          "name": "orderInfo",
          "type": "tuple"
        }
      ],
      "stateMutability": "view",
      "type": "function"
    },
    {
      "inputs": [
        {
          "components": [
            {
              "internalType": "contract IERC20TokenV06",
              "name": "makerToken",
              "type": "address"
            },
            {
              "internalType": "contract IERC20TokenV06",
              "name": "takerToken",
              "type": "address"
            },
            {
              "internalType": "uint128",
              "name": "makerAmount",
              "type": "uint128"
            },
            {
              "internalType": "uint128",
              "name": "takerAmount",
              "type": "uint128"
            },
            {
              "internalType": "address",
              "name": "maker",
              "type": "address"
            },
            {
              "internalType": "address",
              "name": "taker",
              "type": "address"
            },
            {
              "internalType": "address",
              "name": "txOrigin",
              "type": "address"
            },
            {
              "internalType": "bytes32",
              "name": "pool",
              "type": "bytes32"
            },
            {
              "internalType": "uint64",
              "name": "expiry",
              "type": "uint64"
            },
            {
              "internalType": "uint256",
              "name": "salt",
              "type": "uint256"
            }
          ],
          "internalType": "struct LibNativeOrder.RfqOrder",
          "name": "order",
          "type": "tuple"
        }
      ],
      "name": "getRfqOrderHash",
      "outputs": [
        {
          "internalType": "bytes32",
          "name": "orderHash",
          "type": "bytes32"
        }
      ],
      "stateMutability": "view",
      "type": "function"
    },
    {
      "inputs": [
        {
          "components": [
            {
              "internalType": "contract IERC20TokenV06",
              "name": "makerToken",
              "type": "address"
            },
            {
              "internalType": "contract IERC20TokenV06",
              "name": "takerToken",
              "type": "address"
            },
            {
              "internalType": "uint128",
              "name": "makerAmount",
              "type": "uint128"
            },
            {
              "internalType": "uint128",
              "name": "takerAmount",
              "type": "uint128"
            },
            {
              "internalType": "address",
              "name": "maker",
              "type": "address"
            },
            {
              "internalType": "address",
              "name": "taker",
              "type": "address"
            },
            {
              "internalType": "address",
              "name": "txOrigin",
              "type": "address"
            },
            {
              "internalType": "bytes32",
              "name": "pool",
              "type": "bytes32"
            },
            {
              "internalType": "uint64",
              "name": "expiry",
              "type": "uint64"
            },
            {
              "internalType": "uint256",
              "name": "salt",
              "type": "uint256"
            }
          ],
          "internalType": "struct LibNativeOrder.RfqOrder",
          "name": "order",
          "type": "tuple"
        }
      ],
      "name": "getRfqOrderInfo",
      "outputs": [
        {
          "components": [
            {
              "internalType": "bytes32",
              "name": "orderHash",
              "type": "bytes32"
            },
            {
              "internalType": "enum LibNativeOrder.OrderStatus",
              "name": "status",
              "type": "uint8"
            },
            {
              "internalType": "uint128",
              "name": "makerTokenFilledAmount",
              "type": "uint128"
            },
            {
              "internalType": "uint128",
              "name": "takerTokenFilledAmount",
              "type": "uint128"
            }
          ],
          "internalType": "struct LibNativeOrder.OrderInfo",
          "name": "orderInfo",
          "type": "tuple"
        }
      ],
      "stateMutability": "view",
      "type": "function"
    },
    {
      "inputs": [
        {
          "components": [
            {
              "internalType": "contract IERC20TokenV06",
              "name": "makerToken",
              "type": "address"
            },
            {
              "internalType": "contract IERC20TokenV06",
              "name": "takerToken",
              "type": "address"
            },
            {
              "internalType": "uint128",
              "name": "makerAmount",
              "type": "uint128"
            },
            {
              "internalType": "uint128",
              "name": "takerAmount",
              "type": "uint128"
            },
            {
              "internalType": "address",
              "name": "maker",
              "type": "address"
            },
            {
              "internalType": "address",
              "name": "taker",
              "type": "address"
            },
            {
              "internalType": "address",
              "name": "txOrigin",
              "type": "address"
            },
            {
              "internalType": "bytes32",
              "name": "pool",
              "type": "bytes32"
            },
            {
              "internalType": "uint64",
              "name": "expiry",
              "type": "uint64"
            },
            {
              "internalType": "uint256",
              "name": "salt",
              "type": "uint256"
            }
          ],
          "internalType": "struct LibNativeOrder.RfqOrder",
          "name": "order",
          "type": "tuple"
        },
        {
          "components": [
            {
              "internalType": "enum LibSignature.SignatureType",
              "name": "signatureType",
              "type": "uint8"
            },
            {
              "internalType": "uint8",
              "name": "v",
              "type": "uint8"
            },
            {
              "internalType": "bytes32",
              "name": "r",
              "type": "bytes32"
            },
            {
              "internalType": "bytes32",
              "name": "s",
              "type": "bytes32"
            }
          ],
          "internalType": "struct LibSignature.Signature",
          "name": "signature",
          "type": "tuple"
        }
      ],
      "name": "getRfqOrderRelevantState",
      "outputs": [
        {
          "components": [
            {
              "internalType": "bytes32",
              "name": "orderHash",
              "type": "bytes32"
            },
            {
              "internalType": "enum LibNativeOrder.OrderStatus",
              "name": "status",
              "type": "uint8"
            },
            {
              "internalType": "uint128",
              "name": "makerTokenFilledAmount",
              "type": "uint128"
            },
            {
              "internalType": "uint128",
              "name": "takerTokenFilledAmount",
              "type": "uint128"
            }
          ],
          "internalType": "struct LibNativeOrder.OrderInfo",
          "name": "orderInfo",
          "type": "tuple"
        },
        {
          "internalType": "uint128",
          "name": "actualFillableTakerTokenAmount",
          "type": "uint128"
        },
        {
          "internalType": "bool",
          "name": "isSignatureValid",
          "type": "bool"
        }
      ],
      "stateMutability": "view",
      "type": "function"
    },
    {
      "inputs": [
        {
          "internalType": "address",
          "name": "maker",
          "type": "address"
        },
        {
          "internalType": "address",
          "name": "signer",
          "type": "address"
        }
      ],
      "name": "isValidOrderSigner",
      "outputs": [
        {
          "internalType": "bool",
          "name": "isValid",
          "type": "bool"
        }
      ],
      "stateMutability": "view",
      "type": "function"
    },
    {
      "inputs": [
        {
          "components": [
            {
              "internalType": "contract IERC20TokenV06",
              "name": "makerToken",
              "type": "address"
            },
            {
              "internalType": "contract IERC20TokenV06",
              "name": "takerToken",
              "type": "address"
            },
            {
              "internalType": "uint128",
              "name": "makerAmount",
              "type": "uint128"
            },
            {
              "internalType": "uint128",
              "name": "takerAmount",
              "type": "uint128"
            },
            {
              "internalType": "uint128",
              "name": "takerTokenFeeAmount",
              "type": "uint128"
            },
            {
              "internalType": "address",
              "name": "maker",
              "type": "address"
            },
            {
              "internalType": "address",
              "name": "taker",
              "type": "address"
            },
            {
              "internalType": "address",
              "name": "sender",
              "type": "address"
            },
            {
              "internalType": "address",
              "name": "feeRecipient",
              "type": "address"
            },
            {
              "internalType": "bytes32",
              "name": "pool",
              "type": "bytes32"
            },
            {
              "internalType": "uint64",
              "name": "expiry",
              "type": "uint64"
            },
            {
              "internalType": "uint256",
              "name": "salt",
              "type": "uint256"
            }
          ],
          "internalType": "struct LibNativeOrder.LimitOrder",
          "name": "sellOrder",
          "type": "tuple"
        },
        {
          "components": [
            {
              "internalType": "contract IERC20TokenV06",
              "name": "makerToken",
              "type": "address"
            },
            {
              "internalType": "contract IERC20TokenV06",
              "name": "takerToken",
              "type": "address"
            },
            {
              "internalType": "uint128",
              "name": "makerAmount",
              "type": "uint128"
            },
            {
              "internalType": "uint128",
              "name": "takerAmount",
              "type": "uint128"
            },
            {
              "internalType": "uint128",
              "name": "takerTokenFeeAmount",
              "type": "uint128"
            },
            {
              "internalType": "address",
              "name": "maker",
              "type": "address"
            },
            {
              "internalType": "address",
              "name": "taker",
              "type": "address"
            },
            {
              "internalType": "address",
              "name": "sender",
              "type": "address"
            },
            {
              "internalType": "address",
              "name": "feeRecipient",
              "type": "address"
            },
            {
              "internalType": "bytes32",
              "name": "pool",
              "type": "bytes32"
            },
            {
              "internalType": "uint64",
              "name": "expiry",
              "type": "uint64"
            },
            {
              "internalType": "uint256",
              "name": "salt",
              "type": "uint256"
            }
          ],
          "internalType": "struct LibNativeOrder.LimitOrder",
          "name": "buyOrder",
          "type": "tuple"
        },
        {
          "components": [
            {
              "internalType": "enum LibSignature.SignatureType",
              "name": "signatureType",
              "type": "uint8"
            },
            {
              "internalType": "uint8",
              "name": "v",
              "type": "uint8"
            },
            {
              "internalType": "bytes32",
              "name": "r",
              "type": "bytes32"
            },
            {
              "internalType": "bytes32",
              "name": "s",
              "type": "bytes32"
            }
          ],
          "internalType": "struct LibSignature.Signature",
          "name": "sellSignature",
          "type": "tuple"
        },
        {
          "components": [
            {
              "internalType": "enum LibSignature.SignatureType",
              "name": "signatureType",
              "type": "uint8"
            },
            {
              "internalType": "uint8",
              "name": "v",
              "type": "uint8"
            },
            {
              "internalType": "bytes32",
              "name": "r",
              "type": "bytes32"
            },
            {
              "internalType": "bytes32",
              "name": "s",
              "type": "bytes32"
            }
          ],
          "internalType": "struct LibSignature.Signature",
          "name": "buySignature",
          "type": "tuple"
        },
        {
          "internalType": "uint256",
          "name": "price",
          "type": "uint256"
        },
        {
          "internalType": "uint8",
          "name": "sellType",
          "type": "uint8"
        },
        {
          "internalType": "uint8",
          "name": "buyType",
          "type": "uint8"
        }
      ],
      "name": "matchOrders",
      "outputs": [
        {
          "components": [
            {
              "internalType": "uint256",
              "name": "makerAmountFinal",
              "type": "uint256"
            },
            {
              "internalType": "uint256",
              "name": "takerAmountFinal",
              "type": "uint256"
            },
            {
              "internalType": "uint256",
              "name": "sellFeePaid",
              "type": "uint256"
            },
            {
              "internalType": "uint256",
              "name": "buyFeePaid",
              "type": "uint256"
            },
            {
              "internalType": "uint256",
              "name": "returnSellAmount",
              "type": "uint256"
            },
            {
              "internalType": "uint256",
              "name": "returnBuyAmount",
              "type": "uint256"
            }
          ],
          "internalType": "struct LibNativeOrder.MatchedFillResults",
          "name": "matchedFillResults",
          "type": "tuple"
        }
      ],
      "stateMutability": "payable",
      "type": "function"
    },
    {
      "inputs": [],
      "name": "migrate",
      "outputs": [
        {
          "internalType": "bytes4",
          "name": "success",
          "type": "bytes4"
        }
      ],
      "stateMutability": "nonpayable",
      "type": "function"
    },
    {
      "inputs": [
        {
          "internalType": "contract IERC20TokenV06",
          "name": "token",
          "type": "address"
        },
        {
          "internalType": "address",
          "name": "to",
          "type": "address"
        },
        {
          "internalType": "uint256",
          "name": "amount",
          "type": "uint256"
        }
      ],
      "name": "sendBalanceTo",
      "outputs": [],
      "stateMutability": "nonpayable",
      "type": "function"
    },
    {
      "inputs": [
        {
          "internalType": "uint256",
          "name": "_decimal",
          "type": "uint256"
        }
      ],
      "name": "setDecimalPrice",
      "outputs": [],
      "stateMutability": "nonpayable",
      "type": "function"
    }
  ],
  "transactionHash": "0xa4fcf6353ff95a9e18541064c2d83f4874d353e56336990c43e0506c2c256203",
  "args": [
    "0x108CecFb3D5bE0De1854B17CcC2d3f9049F2Ba3B"
  ],
  "solcInputHash": "c378da1d94df967d8712abafa46af60b",
  "bytecode": "0x60e06040526200001260018080620000f3565b60c0523480156200002257600080fd5b5060405162003d1238038062003d12833981016040819052620000459162000125565b3060601b608052604051819081904690620000cd907f8b73c3c69bb8fe3d512ecc4cf759cc79239f7b179b0ffacaa9a75d522b39400f907f9e5dae0addaf20578aeb5d70341d092b53b4e14480ac5726438fd436df7ba427907f06c015bd22b4c69690933c1058878ebdfef31f9aaae40bbe86d8a09fe1b2972c908590879060200162000155565b60408051601f19818403018152919052805160209091012060a052506200018192505050565b6bffffffff0000000000000000604084901b1667ffffffff00000000602084901b161763ffffffff8216179392505050565b60006020828403121562000137578081fd5b81516001600160a01b03811681146200014e578182fd5b9392505050565b9485526020850193909352604084019190915260608301526001600160a01b0316608082015260a00190565b60805160601c60a05160c051613b5c620001b6600039806104995250806113d752806115c8525080611dc15250613b5c6000f3fe6080604052600436106101755760003560e01c806395480889116100cb578063b060c8801161007f578063dab400f311610059578063dab400f314610427578063dd11d2251461043c578063e87711991461045c57610175565b8063b060c880146103c5578063b4658bfb146103f4578063b8ead9531461041457610175565b8063a97ab0c8116100b0578063a97ab0c814610354578063a9ca290714610376578063ad354eeb1461039657610175565b806395480889146103145780639d68d9751461033457610175565b806337f381d81161012d5780636b52a4a8116101075780636b52a4a8146102b05780638af079ea146102dd5780638fd3ab80146102f257610175565b806337f381d81461024e57806364dd1ccf1461026e5780636ae4b4f71461028e57610175565b80631fb097951161015e5780631fb09795146101c557806322780cea146101f4578063346693c51461022157610175565b8063016a6d651461017a578063031b905c146101b0575b600080fd5b34801561018657600080fd5b5061019a610195366004613209565b61047c565b6040516101a79190613534565b60405180910390f35b3480156101bc57600080fd5b5061019a610497565b3480156101d157600080fd5b506101e56101e036600461310b565b6104bb565b6040516101a79392919061392d565b34801561020057600080fd5b5061021461020f366004613089565b6105d3565b6040516101a791906138db565b34801561022d57600080fd5b5061024161023c366004613209565b610709565b6040516101a7919061391f565b34801561025a57600080fd5b506101e5610269366004613225565b6107c2565b34801561027a57600080fd5b5061019a6102893660046132a1565b6108c2565b34801561029a57600080fd5b506102a36108e2565b6040516101a7919061367a565b3480156102bc57600080fd5b506102d06102cb366004612e5b565b61091b565b6040516101a79190613529565b3480156102e957600080fd5b5061019a610969565b3480156102fe57600080fd5b5061030761098c565b6040516101a79190613579565b34801561032057600080fd5b5061024161032f3660046130ef565b610ad2565b34801561034057600080fd5b5061024161034f366004613141565b610b5e565b34801561036057600080fd5b5061037461036f366004612fa6565b610beb565b005b34801561038257600080fd5b50610374610391366004612fbe565b610cad565b3480156103a257600080fd5b506103b66103b1366004612f28565b610db2565b6040516101a793929190613491565b3480156103d157600080fd5b506103e56103e0366004612fa6565b611018565b6040516101a793929190613a5b565b34801561040057600080fd5b506103b661040f366004612e93565b611072565b610214610422366004612ffe565b6112cd565b34801561043357600080fd5b5061019a6113d5565b34801561044857600080fd5b5061019a6104573660046130ef565b6113f9565b34801561046857600080fd5b50610241610477366004613141565b611407565b600061048f61048a8361148d565b6115c4565b90505b919050565b7f000000000000000000000000000000000000000000000000000000000000000081565b6104c3612aea565b6000806104cf85610ad2565b92506105606040518060a001604052808760a0015173ffffffffffffffffffffffffffffffffffffffff168152602001876000015173ffffffffffffffffffffffffffffffffffffffff16815260200187604001516fffffffffffffffffffffffffffffffff16815260200187606001516fffffffffffffffffffffffffffffffff16815260200185815250611616565b83519092506000906105809061057b36889003880188613252565b611738565b90508073ffffffffffffffffffffffffffffffffffffffff168660a0015173ffffffffffffffffffffffffffffffffffffffff1614806105c957506105c98660a001518261091b565b9150509250925092565b6105db612b13565b600060ff84166001146105fd576105f8608088016060890161326d565b61060d565b61060d606088016040890161326d565b9050600060ff84166001146106315761062c606088016040890161326d565b610641565b610641608088016060890161326d565b905061064b612aea565b61066361065d368b90038b018b6130ef565b84611407565b905061066d612aea565b61067f61065d368b90038b018b6130ef565b9050610689612b49565b6040808401516fffffffffffffffffffffffffffffffff9081168352838201511660208301528101899052825160608201528151608082015260ff80891660a0830152871660c08201526106fa6106e5368d90038d018d6130ef565b6106f4368d90038d018d6130ef565b83611889565b9b9a5050505050505050505050565b610711612aea565b61071a8261047c565b81526000610726611c8d565b608084015173ffffffffffffffffffffffffffffffffffffffff9081166000908152600392909201602090815260408084208751841685528252808420828801519093168452919052908190205490840151610100850151610120860151929350610795928592919085611c9a565b60c083015173ffffffffffffffffffffffffffffffffffffffff166107bc57600060208301525b50919050565b6107ca612aea565b6000806107d685610709565b92506108676040518060a00160405280876080015173ffffffffffffffffffffffffffffffffffffffff168152602001876000015173ffffffffffffffffffffffffffffffffffffffff16815260200187604001516fffffffffffffffffffffffffffffffff16815260200187606001516fffffffffffffffffffffffffffffffff16815260200185815250611616565b91506000610879846000015186611738565b90508073ffffffffffffffffffffffffffffffffffffffff16866080015173ffffffffffffffffffffffffffffffffffffffff1614806105c957506105c986608001518261091b565b600060ff82166001146108d65760c86108d9565b60645b60ff1692915050565b6040518060400160405280600b81526020017f4d617463684f726465727300000000000000000000000000000000000000000081525081565b6000610925611c8d565b73ffffffffffffffffffffffffffffffffffffffff808516600090815260059290920160209081526040808420928616845291905290205460ff1690505b92915050565b600080610974611c8d565b6009015490508061098757506402540be4005b905090565b60006109b77fb8ead95300000000000000000000000000000000000000000000000000000000611d8b565b6109e07fb060c88000000000000000000000000000000000000000000000000000000000611d8b565b610a097f22780cea00000000000000000000000000000000000000000000000000000000611d8b565b610a327fa97ab0c800000000000000000000000000000000000000000000000000000000611d8b565b610a5b7f8af079ea00000000000000000000000000000000000000000000000000000000611d8b565b610a847fe877119900000000000000000000000000000000000000000000000000000000611d8b565b610aad7f64dd1ccf00000000000000000000000000000000000000000000000000000000611d8b565b507f2c64c5ef0000000000000000000000000000000000000000000000000000000090565b610ada612aea565b610ae3826113f9565b81526000610aef611c8d565b60a084015173ffffffffffffffffffffffffffffffffffffffff90811660009081526002929092016020908152604080842087518416855282528084208288015190931684529190529081902054908401516101408501516101608601519293506107bc928592919085611c9a565b610b66612aea565b610b6f836113f9565b81526000610b7b611c8d565b60a085015173ffffffffffffffffffffffffffffffffffffffff9081166000908152600292909201602090815260408084208851841685528252808420828901519093168452919052902054610140850151610160860151919250610be4918491869185611c9a565b5092915050565b60003073ffffffffffffffffffffffffffffffffffffffff16638da5cb5b6040518163ffffffff1660e01b815260040160206040518083038186803b158015610c3357600080fd5b505afa158015610c47573d6000803e3d6000fd5b505050506040513d601f19601f82011682018060405250810190610c6b9190612e3f565b90503373ffffffffffffffffffffffffffffffffffffffff821614610c9c57610c9c610c973383611e17565b611ed2565b5080610ca6611c8d565b6009015550565b73ffffffffffffffffffffffffffffffffffffffff8316301415610d06576040517f08c379a0000000000000000000000000000000000000000000000000000000008152600401610cfd90613748565b60405180910390fd5b6040517fa9059cbb00000000000000000000000000000000000000000000000000000000815273ffffffffffffffffffffffffffffffffffffffff84169063a9059cbb90610d5a908590859060040161346b565b602060405180830381600087803b158015610d7457600080fd5b505af1158015610d88573d6000803e3d6000fd5b505050506040513d601f19601f82011682018060405250810190610dac9190612f8a565b50505050565b60608080858414610def576040517f08c379a0000000000000000000000000000000000000000000000000000000008152600401610cfd906136eb565b8567ffffffffffffffff81118015610e0657600080fd5b50604051908082528060200260200182016040528015610e4057816020015b610e2d612aea565b815260200190600190039081610e255790505b5092508567ffffffffffffffff81118015610e5a57600080fd5b50604051908082528060200260200182016040528015610e84578160200160208202803683370190505b5091508567ffffffffffffffff81118015610e9e57600080fd5b50604051908082528060200260200182016040528015610ec8578160200160208202803683370190505b50905060005b8681101561100d57306337f381d8898984818110610ee857fe5b90506101400201888885818110610efb57fe5b9050608002016040518363ffffffff1660e01b8152600401610f1e929190613963565b60c06040518083038186803b158015610f3657600080fd5b505afa925050508015610f84575060408051601f3d9081017fffffffffffffffffffffffffffffffffffffffffffffffffffffffffffffffe0168201909252610f819181019061316f565b60015b610f8d57611005565b82878581518110610f9a57fe5b602002602001018190525081868581518110610fb257fe5b60200260200101906fffffffffffffffffffffffffffffffff1690816fffffffffffffffffffffffffffffffff168152505080858581518110610ff157fe5b911515602092830291909101909101525050505b600101610ece565b509450945094915050565b6000806000611025611c8d565b60008581526020919091526040902054925061103f611c8d565b60008581526001919091016020526040902054915061105c611c8d565b6000948552600601602052506040909220549092565b606080808584146110af576040517f08c379a0000000000000000000000000000000000000000000000000000000008152600401610cfd906136eb565b8567ffffffffffffffff811180156110c657600080fd5b5060405190808252806020026020018201604052801561110057816020015b6110ed612aea565b8152602001906001900390816110e55790505b5092508567ffffffffffffffff8111801561111a57600080fd5b50604051908082528060200260200182016040528015611144578160200160208202803683370190505b5091508567ffffffffffffffff8111801561115e57600080fd5b50604051908082528060200260200182016040528015611188578160200160208202803683370190505b50905060005b8681101561100d5730631fb097958989848181106111a857fe5b905061018002018888858181106111bb57fe5b9050608002016040518363ffffffff1660e01b81526004016111de9291906137a5565b60c06040518083038186803b1580156111f657600080fd5b505afa925050508015611244575060408051601f3d9081017fffffffffffffffffffffffffffffffffffffffffffffffffffffffffffffffe01682019092526112419181019061316f565b60015b61124d576112c5565b8287858151811061125a57fe5b60200260200101819052508186858151811061127257fe5b60200260200101906fffffffffffffffffffffffffffffffff1690816fffffffffffffffffffffffffffffffff1681525050808585815181106112b157fe5b911515602092830291909101909101525050505b60010161118e565b6112d5612b13565b60003073ffffffffffffffffffffffffffffffffffffffff16638da5cb5b6040518163ffffffff1660e01b815260040160206040518083038186803b15801561131d57600080fd5b505afa158015611331573d6000803e3d6000fd5b505050506040513d601f19601f820116820180604052508101906113559190612e3f565b90503373ffffffffffffffffffffffffffffffffffffffff82161461138157611381610c973383611e17565b506113c9611394368a90038a018a6130ef565b6113a3368a90038a018a6130ef565b6113b2368a90038a018a613252565b6113c1368a90038a018a613252565b888888611eda565b98975050505050505050565b7f000000000000000000000000000000000000000000000000000000000000000081565b600061048f61048a83612085565b61140f612aea565b611417612aea565b6114218484610b5e565b905083604001516fffffffffffffffffffffffffffffffff1660001415611460576020810160005b9081600481111561145657fe5b9052509050610963565b60608401516fffffffffffffffffffffffffffffffff1661148657602081016000611449565b9392505050565b60006040517fe593d3fdfa8b60e5e17a1b2204662ecbe15c23f2084b9ad5bae40359540a7da98152825173ffffffffffffffffffffffffffffffffffffffff166020820152602083015173ffffffffffffffffffffffffffffffffffffffff16604082015260408301516fffffffffffffffffffffffffffffffff16606082015260608301516fffffffffffffffffffffffffffffffff166080820152608083015173ffffffffffffffffffffffffffffffffffffffff1660a082015260a083015173ffffffffffffffffffffffffffffffffffffffff1660c082015260c083015173ffffffffffffffffffffffffffffffffffffffff1660e082015260e083015161010082015261010083015167ffffffffffffffff166101208201526101208301516101408201526101608120915050919050565b60007f0000000000000000000000000000000000000000000000000000000000000000826040516020016115f99291906133ed565b604051602081830303815290604052805190602001209050919050565b600081604001516fffffffffffffffffffffffffffffffff1660001480611651575060608201516fffffffffffffffffffffffffffffffff16155b1561165e57506000610492565b6001826080015160200151600481111561167457fe5b1461168157506000610492565b60006116da8360800151604001518460600151036fffffffffffffffffffffffffffffffff1684606001516fffffffffffffffffffffffffffffffff1685604001516fffffffffffffffffffffffffffffffff166121fc565b90506116f7816116f285602001518660000151612214565b612346565b90506114866117338285604001516fffffffffffffffffffffffffffffffff1686606001516fffffffffffffffffffffffffffffffff1661235c565b612380565b600061174483836123ac565b60028251600381111561175357fe5b14156117bb5760018383602001518460400151856060015160405160008152602001604052604051611788949392919061355b565b6020604051602081039080840390855afa1580156117aa573d6000803e3d6000fd5b505050602060405103519050611860565b6003825160038111156117ca57fe5b14156118605760007f19457468657265756d205369676e6564204d6573736167653a0a33320000000060005283601c52603c600020905060018184602001518560400151866060015160405160008152602001604052604051611830949392919061355b565b6020604051602081039080840390855afa158015611852573d6000803e3d6000fd5b505050602060405103519150505b73ffffffffffffffffffffffffffffffffffffffff811661096357610963610c97600585612460565b611891612b13565b600061189b611c8d565b6009015490506000600160ff168460a0015160ff16146118df57835160608701516118da916fffffffffffffffffffffffffffffffff90911690612496565b611904565b83516040870151611904916fffffffffffffffffffffffffffffffff90911690612496565b90506000600160ff168560c0015160ff161461194c57611947856020015187604001516fffffffffffffffffffffffffffffffff1661249690919063ffffffff16565b611979565b611979856020015187606001516fffffffffffffffffffffffffffffffff1661249690919063ffffffff16565b90506000600160ff168660a0015160ff16146119ad5760408601516119a8906119a285876124b5565b906124e6565b6119af565b825b90506000600160ff168760c0015160ff16146119dd5760408701516119d8906119a285886124b5565b6119df565b825b905080821415611a57578186526040870151611a029086906119a29085906124b5565b6020870152611a0f611c8d565b606088015160009081526001919091016020526040908190205490870152611a35611c8d565b6080880151600090815260019190910160205260409020546060870152611afe565b80821115611a9e578086526040870151611a789086906119a29084906124b5565b602087015260a0870151611a91908a9060ff1688612510565b6040870152611a35611c8d565b8186526040870151611ab79086906119a29085906124b5565b6020870152611ac4611c8d565b60010160008860600151815260200190815260200160002054866040018181525050611af8888860c0015160ff1688612510565b60608701525b60a087015160ff1660021415611bcc576000611b618a606001516fffffffffffffffffffffffffffffffff166119a28c604001516fffffffffffffffffffffffffffffffff16611b5b8b602001518a61249690919063ffffffff16565b906124b5565b9050611ba68a606001516fffffffffffffffffffffffffffffffff166119a28c604001516fffffffffffffffffffffffffffffffff16886124b590919063ffffffff16565b608088018190528751611bc5918391611bbf9190612496565b90612496565b6080880152505b60c087015160ff1660011415611c81576000611c2989606001516fffffffffffffffffffffffffffffffff166119a28b604001516fffffffffffffffffffffffffffffffff16611b5b8b600001518961249690919063ffffffff16565b9050611c7a81611bbf8960200151611bbf8d606001516fffffffffffffffffffffffffffffffff166119a28f604001516fffffffffffffffffffffffffffffffff168b6124b590919063ffffffff16565b60a0880152505b50505050509392505050565b6000806109636007612598565b6000611ca4611c8d565b865160009081526020829052604090819020546fffffffffffffffffffffffffffffffff808216928a0183905292935091871611611cfb576020870160025b90816004811115611cf057fe5b815250505050611d84565b7f8000000000000000000000000000000000000000000000000000000000000000811615611d2e57602087016003611ce3565b504267ffffffffffffffff168467ffffffffffffffff1611611d68576020860160045b90816004811115611d5e57fe5b8152505050611d84565b82821115611d7b57602086016003611d51565b50600160208601525b5050505050565b6040517f6eb224cb0000000000000000000000000000000000000000000000000000000081523090636eb224cb90611de99084907f0000000000000000000000000000000000000000000000000000000000000000906004016135a6565b600060405180830381600087803b158015611e0357600080fd5b505af1158015611d84573d6000803e3d6000fd5b60607f1de45ad18e8a4484220a3ca14f4d977641addbaba5a344b1384dc2aa78a2e34d8383604051602401611e4d929190613444565b604080517fffffffffffffffffffffffffffffffffffffffffffffffffffffffffffffffe08184030181529190526020810180517bffffffffffffffffffffffffffffffffffffffffffffffffffffffff167fffffffff0000000000000000000000000000000000000000000000000000000090931692909217909152905092915050565b805160208201fd5b611ee2612b13565b60208089015173ffffffffffffffffffffffffffffffffffffffff908116895289511690880152600060ff8416600114611f20578860600151611f26565b88604001515b9050600060ff8416600114611f3f578860400151611f45565b88606001515b9050611f4f612aea565b611f598b84611407565b9050611f63612aea565b611f6d8b84611407565b9050611f7b8c83338d6125b3565b611f878b82338c6125b3565b611f8f612b49565b6040808401516fffffffffffffffffffffffffffffffff9081168352838201511660208301528101899052825160608201528151608082015260ff80891660a0830152871660c0820152611fe48d8d83611889565b83518351919750611ff8918f8f338b612738565b600060ff891660011461200f578660200151612012565b86515b9050600060ff891660011461202b57876020015161202e565b87515b8551895160208b015160408c015160808d015194955061205194839190886127cb565b8351885160208a015160608b015160a08c0151612073949392918291876127cb565b50505050505050979650505050505050565b60006040517fce918627cb55462ddbb85e73de69a8b322f2bc88f4507c52fcad6d4c33c29d498152825173ffffffffffffffffffffffffffffffffffffffff166020820152602083015173ffffffffffffffffffffffffffffffffffffffff16604082015260408301516fffffffffffffffffffffffffffffffff16606082015260608301516fffffffffffffffffffffffffffffffff16608082015260808301516fffffffffffffffffffffffffffffffff1660a082015260a083015173ffffffffffffffffffffffffffffffffffffffff1660c082015260c083015173ffffffffffffffffffffffffffffffffffffffff1660e082015260e083015173ffffffffffffffffffffffffffffffffffffffff1661010082015261010083015173ffffffffffffffffffffffffffffffffffffffff1661012082015261012083015161014082015261014083015167ffffffffffffffff166101608201526101608301516101808201526101a08120915050919050565b600061220c836119a286856124b5565b949350505050565b60006114868373ffffffffffffffffffffffffffffffffffffffff1663dd62ed3e84306040518363ffffffff1660e01b8152600401612254929190613444565b60206040518083038186803b15801561226c57600080fd5b505afa158015612280573d6000803e3d6000fd5b505050506040513d601f19601f820116820180604052508101906122a49190613289565b6040517f70a0823100000000000000000000000000000000000000000000000000000000815273ffffffffffffffffffffffffffffffffffffffff8616906370a08231906122f6908790600401613423565b60206040518083038186803b15801561230e57600080fd5b505afa158015612322573d6000803e3d6000fd5b505050506040513d601f19601f820116820180604052508101906116f29190613289565b60008183106123555781611486565b5090919050565b600061220c836119a2612370826001612496565b61237a88876124b5565b906128d5565b60006fffffffffffffffffffffffffffffffff8211156123a8576123a8610c976003846128f1565b5090565b60408101517ffffffffffffffffffffffffffffffffebaaedce6af48a03bbfd25e8cd0364141111580612403575060608101517f7fffffffffffffffffffffffffffffff5d576e7357a4501ddfe92f46681b20a111155b1561241657612416610c97600584612460565b60008151600381111561242557fe5b141561243957612439610c97600384612460565b60018151600381111561244857fe5b141561245c5761245c610c97600084612460565b5050565b60607ff18f11f3027e735c758137924b262d4d3aff0037dcd785aca3c699fa05d960bd8383604051602401611e4d92919061366c565b6000828211156124af576124af610c976002858561290e565b50900390565b6000826124c457506000610963565b828202828482816124d157fe5b041461148657611486610c976001868661290e565b6000816124fc576124fc610c976003858561290e565b600082848161250757fe5b04949350505050565b6000600183141561255d57612556826000015185604001516fffffffffffffffffffffffffffffffff1686608001516fffffffffffffffffffffffffffffffff166129b3565b9050611486565b61220c826020015185606001516fffffffffffffffffffffffffffffffff1686608001516fffffffffffffffffffffffffffffffff166129b3565b600060808260088111156125a857fe5b600101901b92915050565b60006125bd611c8d565b8451600090815260069190910160205260409020549050806125eb576125eb610c97856000015160006129e1565b6001846020015160048111156125fd57fe5b1461261757612617610c97856000015186602001516129e1565b60e085015173ffffffffffffffffffffffffffffffffffffffff161561266b5760e085015173ffffffffffffffffffffffffffffffffffffffff16331461266b5761266b610c9760028660000151336129fe565b60c085015173ffffffffffffffffffffffffffffffffffffffff16156126d5578273ffffffffffffffffffffffffffffffffffffffff168560c0015173ffffffffffffffffffffffffffffffffffffffff16146126d5576126d5610c9760018660000151866129fe565b60006126e5856000015184611738565b90508560a0015173ffffffffffffffffffffffffffffffffffffffff168173ffffffffffffffffffffffffffffffffffffffff161461273057612730610c9760008760000151612a1d565b505050505050565b61274f83600001518560a001518360200151610cad565b835160a08401518251612763929190610cad565b6127768360000151838360600151610cad565b6127898460000151838360400151610cad565b6080810151156127aa576127aa84600001518560a001518360800151610cad565b60a0810151156127305761273083600001518460a001518360a00151610cad565b6127ed816127d7611c8d565b60008a81526020919091526040902054906128d5565b6127f5611c8d565b6000898152602091909152604090205561282a83612811611c8d565b60008a8152600191909101602052604090205490612496565b612832611c8d565b6000898152600191909101602052604090205561287082611bbf858188612857611c8d565b60008e8152600691909101602052604090205490612496565b612878611c8d565b600601600089815260200190815260200160002081905550867f748c85a5ac1c8590cda7df4a1afb0caba73e19b5b8069477f89d145b08d735738787866040516128c493929190613a5b565b60405180910390a250505050505050565b60008282018381101561148657611486610c976000868661290e565b606063c996af7b60e01b8383604051602401611e4d92919061360f565b606063e946c1bb60e01b84848460405160240161292d939291906135ee565b604080517fffffffffffffffffffffffffffffffffffffffffffffffffffffffffffffffe08184030181529190526020810180517bffffffffffffffffffffffffffffffffffffffffffffffffffffffff167fffffffff000000000000000000000000000000000000000000000000000000009093169290921790915290509392505050565b60006129c0848484612a3a565b156129d3576129d3610c97858585612a94565b61220c836119a286856124b5565b606063fdb6ca8d60e01b8383604051602401611e4d92919061353d565b606063e53c76c860e01b84848460405160240161292d93929190613626565b6060637e5a231860e01b8383604051602401611e4d92919061365e565b600082612a4c57612a4c610c97612ab3565b811580612a57575083155b15612a6457506000611486565b60008380612a6e57fe5b8584099050612a7d85846124b5565b612a89826103e86124b5565b101595945050505050565b606063339f3de260e01b84848460405160240161292d93929190613a5b565b60408051808201909152600481527fa791837c00000000000000000000000000000000000000000000000000000000602082015290565b604080516080810190915260008082526020820190815260006020820181905260409091015290565b6040518060c001604052806000815260200160008152602001600081526020016000815260200160008152602001600081525090565b6040805160e081018252600080825260208201819052918101829052606081018290526080810182905260a0810182905260c081019190915290565b803561096381613ad8565b60008083601f840112612ba1578182fd5b50813567ffffffffffffffff811115612bb8578182fd5b602083019150836020608083028501011115612bd357600080fd5b9250929050565b600061018082840312156107bc578081fd5b6000610180808385031215612bff578182fd5b612c0881613a71565b915050612c158383612b85565b8152612c248360208401612b85565b6020820152612c368360408401612e0b565b6040820152612c488360608401612e0b565b6060820152612c5a8360808401612e0b565b6080820152612c6c8360a08401612b85565b60a0820152612c7e8360c08401612b85565b60c0820152612c908360e08401612b85565b60e0820152610100612ca484828501612b85565b908201526101208281013590820152610140612cc284828501612e16565b818301525061016080830135818301525092915050565b6000610140808385031215612cec578182fd5b612cf581613a71565b915050612d028383612b85565b8152612d118360208401612b85565b6020820152612d238360408401612e0b565b6040820152612d358360608401612e0b565b6060820152612d478360808401612b85565b6080820152612d598360a08401612b85565b60a0820152612d6b8360c08401612b85565b60c082015260e082013560e0820152610100612d8984828501612e16565b818301525061012080830135818301525092915050565b6000608082840312156107bc578081fd5b600060808284031215612dc2578081fd5b612dcc6080613a71565b9050813560048110612ddd57600080fd5b8152612dec8360208401612e2e565b6020820152604082013560408201526060820135606082015292915050565b803561096381613b08565b803567ffffffffffffffff8116811461096357600080fd5b803560ff8116811461096357600080fd5b600060208284031215612e50578081fd5b815161148681613ad8565b60008060408385031215612e6d578081fd5b8235612e7881613ad8565b91506020830135612e8881613ad8565b809150509250929050565b60008060008060408587031215612ea8578182fd5b843567ffffffffffffffff80821115612ebf578384fd5b818701915087601f830112612ed2578384fd5b813581811115612ee0578485fd5b88602061018083028501011115612ef5578485fd5b602092830196509450908601359080821115612f0f578384fd5b50612f1c87828801612b90565b95989497509550505050565b60008060008060408587031215612f3d578182fd5b843567ffffffffffffffff80821115612f54578384fd5b818701915087601f830112612f67578384fd5b813581811115612f75578485fd5b88602061014083028501011115612ef5578485fd5b600060208284031215612f9b578081fd5b815161148681613afa565b600060208284031215612fb7578081fd5b5035919050565b600080600060608486031215612fd2578081fd5b8335612fdd81613ad8565b92506020840135612fed81613ad8565b929592945050506040919091013590565b6000806000806000806000610460888a031215613019578485fd5b6130238989612bda565b9650613033896101808a01612bda565b9550613043896103008a01612da0565b9450613053896103808a01612da0565b9350610400880135925061306b896104208a01612e2e565b915061307b896104408a01612e2e565b905092959891949750929550565b600080600080600061036086880312156130a1578283fd5b6130ab8787612bda565b94506130bb876101808801612bda565b935061030086013592506130d3876103208801612e2e565b91506130e3876103408801612e2e565b90509295509295909350565b60006101808284031215613101578081fd5b6114868383612bec565b600080610200838503121561311e578182fd5b6131288484612bec565b9150613138846101808501612da0565b90509250929050565b6000806101a08385031215613154578182fd5b61315e8484612bec565b9150610180830135612e8881613b08565b600080600083850360c0811215613184578182fd5b6080811215613191578182fd5b5061319c6080613a71565b845181526020850151600581106131b1578283fd5b602082015260408501516131c481613b08565b604082015260608501516131d781613b08565b606082015260808501519093506131ed81613b08565b60a08501519092506131fe81613afa565b809150509250925092565b6000610140828403121561321b578081fd5b6114868383612cd9565b6000806101c08385031215613238578182fd5b6132428484612cd9565b9150613138846101408501612db1565b600060808284031215613263578081fd5b6114868383612db1565b60006020828403121561327e578081fd5b813561148681613b08565b60006020828403121561329a578081fd5b5051919050565b6000602082840312156132b2578081fd5b6114868383612e2e565b60006132c88383613340565b505060800190565b6fffffffffffffffffffffffffffffffff16815260200190565b73ffffffffffffffffffffffffffffffffffffffff169052565b6000815180845260208085019450808401835b83811015613335578151151587529582019590820190600101613317565b509495945050505050565b8051825260208101516005811061335357fe5b60208301526040818101516fffffffffffffffffffffffffffffffff9081169184019190915260609182015116910152565b80356004811061339457600080fd5b61339d81613acb565b82526040810160ff6133b28260208501612e2e565b166020840152356040830152606090810135910152565b6fffffffffffffffffffffffffffffffff169052565b67ffffffffffffffff169052565b7f190100000000000000000000000000000000000000000000000000000000000081526002810192909252602282015260420190565b73ffffffffffffffffffffffffffffffffffffffff91909116815260200190565b73ffffffffffffffffffffffffffffffffffffffff92831681529116602082015260400190565b73ffffffffffffffffffffffffffffffffffffffff929092168252602082015260400190565b600060608201606083528086516134a88184613534565b915060209250828801845b828110156134d4576134c68483516132bc565b9350908401906001016134b3565b505050838103828501528086516134eb8184613534565b91508388019250845b81811015613515576135078385516132d0565b9385019392506001016134f4565b505084810360408601526113c98187613304565b901515815260200190565b90815260200190565b828152604081016005831061354e57fe5b8260208301529392505050565b93845260ff9290921660208401526040830152606082015260800190565b7fffffffff0000000000000000000000000000000000000000000000000000000091909116815260200190565b7fffffffff0000000000000000000000000000000000000000000000000000000092909216825273ffffffffffffffffffffffffffffffffffffffff16602082015260400190565b606081016135fb85613acb565b938152602081019290925260409091015290565b6040810161361c84613acb565b9281526020015290565b606081016003851061363457fe5b938152602081019290925273ffffffffffffffffffffffffffffffffffffffff1660409091015290565b604081016007841061361c57fe5b604081016006841061361c57fe5b6000602080835283518082850152825b818110156136a65785810183015185820160400152820161368a565b818111156136b75783604083870101525b50601f017fffffffffffffffffffffffffffffffffffffffffffffffffffffffffffffffe016929092016040019392505050565b6020808252602c908201527f4e61746976654f7264657273466561747572652f4d49534d4154434845445f4160408201527f525241595f4c454e475448530000000000000000000000000000000000000000606082015260800190565b60208082526024908201527f466978696e546f6b656e5370656e6465722f43414e4e4f545f494e564f4b455f60408201527f53454c4600000000000000000000000000000000000000000000000000000000606082015260800190565b6102008101602084016137c1836137bc8388612b85565b6132ea565b6137cb8186613a98565b90506137da60208401826132ea565b506137e86040850185613aa5565b6137f560408401826133c9565b506138036060850185613aa5565b61381060608401826133c9565b5061381e6080850185613aa5565b61382b60808401826133c9565b5061383960a0850185613a98565b61384660a08401826132ea565b5061385460c0850185613a98565b61386160c08401826132ea565b5061386f60e0850185613a98565b61387c60e08401826132ea565b5061010061388c81860186613a98565b613898828501826132ea565b505061012084810135908301526101406138b481860186613ab2565b6138c0828501826133df565b50506101608481013590830152611486610180830184613385565b600060c082019050825182526020830151602083015260408301516040830152606083015160608301526080830151608083015260a083015160a083015292915050565b608081016109638284613340565b60c0810161393b8286613340565b6fffffffffffffffffffffffffffffffff8416608083015282151560a0830152949350505050565b6101c081016020840161397a836137bc8388612b85565b6139848186613a98565b905061399360208401826132ea565b506139a16040850185613aa5565b6139ae60408401826133c9565b506139bc6060850185613aa5565b6139c960608401826133c9565b506139d76080850185613a98565b6139e460808401826132ea565b506139f260a0850185613a98565b6139ff60a08401826132ea565b50613a0d60c0850185613a98565b613a1a60c08401826132ea565b5060e084013560e0830152610100613a3481860186613ab2565b613a40828501826133df565b50506101208481013590830152611486610140830184613385565b9283526020830191909152604082015260600190565b60405181810167ffffffffffffffff81118282101715613a9057600080fd5b604052919050565b6000823561148681613ad8565b6000823561148681613b08565b6000823567ffffffffffffffff81168114611486578182fd5b60048110613ad557fe5b50565b73ffffffffffffffffffffffffffffffffffffffff81168114613ad557600080fd5b8015158114613ad557600080fd5b6fffffffffffffffffffffffffffffffff81168114613ad557600080fdfea2646970667358221220e679186b6b16c9d63563492b4d4752812c7ca82e622199d5a53113ac2e2115fb64736f6c634300060c0033",
  "devdoc": {
    "kind": "dev",
    "methods": {
      "batchGetLimitOrderRelevantStates((address,address,uint128,uint128,uint128,address,address,address,address,bytes32,uint64,uint256)[],(uint8,uint8,bytes32,bytes32)[])": {
        "details": "Batch version of `getLimitOrderRelevantState()`, without reverting.      Orders that would normally cause `getLimitOrderRelevantState()`      to revert will have empty results.",
        "params": {
          "orders": "The limit orders.",
          "signatures": "The order signatures."
        },
        "returns": {
          "actualFillableTakerTokenAmounts": "How much of each order is fillable         based on maker funds, in taker tokens.",
          "isSignatureValids": "Whether each signature is valid for the order.",
          "orderInfos": "Info about the orders."
        }
      },
      "batchGetRfqOrderRelevantStates((address,address,uint128,uint128,address,address,address,bytes32,uint64,uint256)[],(uint8,uint8,bytes32,bytes32)[])": {
        "details": "Batch version of `getRfqOrderRelevantState()`, without reverting.      Orders that would normally cause `getRfqOrderRelevantState()`      to revert will have empty results.",
        "params": {
          "orders": "The RFQ orders.",
          "signatures": "The order signatures."
        },
        "returns": {
          "actualFillableTakerTokenAmounts": "How much of each order is fillable         based on maker funds, in taker tokens.",
          "isSignatureValids": "Whether each signature is valid for the order.",
          "orderInfos": "Info about the orders."
        }
      },
      "getLimitOrderHash((address,address,uint128,uint128,uint128,address,address,address,address,bytes32,uint64,uint256))": {
        "details": "Get the canonical hash of a limit order.",
        "params": {
          "order": "The limit order."
        },
        "returns": {
          "orderHash": "The order hash."
        }
      },
      "getLimitOrderInfo((address,address,uint128,uint128,uint128,address,address,address,address,bytes32,uint64,uint256))": {
        "details": "Get the order info for a limit order.",
        "params": {
          "order": "The limit order."
        },
        "returns": {
          "orderInfo": "Info about the order."
        }
      },
      "getLimitOrderRelevantState((address,address,uint128,uint128,uint128,address,address,address,address,bytes32,uint64,uint256),(uint8,uint8,bytes32,bytes32))": {
        "details": "Get order info, fillable amount, and signature validity for a limit order.      Fillable amount is determined using balances and allowances of the maker.",
        "params": {
          "order": "The limit order.",
          "signature": "The order signature."
        },
        "returns": {
          "actualFillableTakerTokenAmount": "How much of the order is fillable         based on maker funds, in taker tokens.",
          "isSignatureValid": "Whether the signature is valid.",
          "orderInfo": "Info about the order."
        }
      },
      "getRfqOrderHash((address,address,uint128,uint128,address,address,address,bytes32,uint64,uint256))": {
        "details": "Get the canonical hash of an RFQ order.",
        "params": {
          "order": "The RFQ order."
        },
        "returns": {
          "orderHash": "The order hash."
        }
      },
      "getRfqOrderInfo((address,address,uint128,uint128,address,address,address,bytes32,uint64,uint256))": {
        "details": "Get the order info for an RFQ order.",
        "params": {
          "order": "The RFQ order."
        },
        "returns": {
          "orderInfo": "Info about the order."
        }
      },
      "getRfqOrderRelevantState((address,address,uint128,uint128,address,address,address,bytes32,uint64,uint256),(uint8,uint8,bytes32,bytes32))": {
        "details": "Get order info, fillable amount, and signature validity for an RFQ order.      Fillable amount is determined using balances and allowances of the maker.",
        "params": {
          "order": "The RFQ order.",
          "signature": "The order signature."
        },
        "returns": {
          "actualFillableTakerTokenAmount": "How much of the order is fillable         based on maker funds, in taker tokens.",
          "isSignatureValid": "Whether the signature is valid.",
          "orderInfo": "Info about the order."
        }
      },
      "isValidOrderSigner(address,address)": {
        "details": "checks if a given address is registered to sign on behalf of a maker address",
        "params": {
          "maker": "The maker address encoded in an order (can be a contract)",
          "signer": "The address that is providing a signature"
        }
      }
    },
    "stateVariables": {
      "FEATURE_NAME": {
        "details": "The name of this feature set."
      },
      "FEATURE_VERSION": {
        "details": "Version of this feature."
      }
    },
    "version": 1
  },
  "userdoc": {
    "kind": "user",
    "methods": {},
    "version": 1
  },
  "storageLayout": {
    "storage": [],
    "types": null
  }
}