{
  "address": "0x246f4a11Eb4f5C6A1C4781C0A8eDcfa778a8d1BB",
  "abi": [
    {
      "anonymous": false,
      "inputs": [
        {
          "indexed": false,
          "internalType": "address",
          "name": "caller",
          "type": "address"
        },
        {
          "indexed": false,
          "internalType": "address",
          "name": "migrator",
          "type": "address"
        },
        {
          "indexed": false,
          "internalType": "address",
          "name": "newOwner",
          "type": "address"
        }
      ],
      "name": "Migrated",
      "type": "event"
    },
    {
      "anonymous": false,
      "inputs": [
        {
          "indexed": true,
          "internalType": "address",
          "name": "previousOwner",
          "type": "address"
        },
        {
          "indexed": true,
          "internalType": "address",
          "name": "newOwner",
          "type": "address"
        }
      ],
      "name": "OwnershipTransferred",
      "type": "event"
    },
    {
      "inputs": [],
      "name": "FEATURE_NAME",
      "outputs": [
        {
          "internalType": "string",
          "name": "",
          "type": "string"
        }
      ],
      "stateMutability": "view",
      "type": "function"
    },
    {
      "inputs": [],
      "name": "FEATURE_VERSION",
      "outputs": [
        {
          "internalType": "uint256",
          "name": "",
          "type": "uint256"
        }
      ],
      "stateMutability": "view",
      "type": "function"
    },
    {
      "inputs": [],
      "name": "bootstrap",
      "outputs": [
        {
          "internalType": "bytes4",
          "name": "success",
          "type": "bytes4"
        }
      ],
      "stateMutability": "nonpayable",
      "type": "function"
    },
    {
      "inputs": [
        {
          "internalType": "address",
          "name": "target",
          "type": "address"
        },
        {
          "internalType": "bytes",
          "name": "data",
          "type": "bytes"
        },
        {
          "internalType": "address",
          "name": "newOwner",
          "type": "address"
        }
      ],
      "name": "migrate",
      "outputs": [],
      "stateMutability": "nonpayable",
      "type": "function"
    },
    {
      "inputs": [],
      "name": "owner",
      "outputs": [
        {
          "internalType": "address",
          "name": "owner_",
          "type": "address"
        }
      ],
      "stateMutability": "view",
      "type": "function"
    },
    {
      "inputs": [
        {
          "internalType": "address",
          "name": "newOwner",
          "type": "address"
        }
      ],
      "name": "transferOwnership",
      "outputs": [],
      "stateMutability": "nonpayable",
      "type": "function"
    }
  ],
  "transactionHash": "0x8fde7272dd8bce8ff491534a2952d2ebb8b1fc15aa7eedaf9202bd6ea6f50a1a",
  "args": [],
  "solcInputHash": "afcadd482c05b4c30d543a7a2027642d",
  "bytecode": "0x60c0604052610011600160008061002d565b60a05234801561002057600080fd5b503060601b60805261005f565b6bffffffff0000000000000000604084901b1667ffffffff00000000602084901b161763ffffffff8216179392505050565b60805160601c60a051610cdb61008e6000398060fe52508061054452806105f452806106a45250610cdb6000f3fe608060405234801561001057600080fd5b50600436106100725760003560e01c80638da5cb5b116100505780638da5cb5b146100bf578063f2fde38b146100d4578063fb969b0a146100e757610072565b8063031b905c14610077578063261fe679146100955780636ae4b4f7146100aa575b600080fd5b61007f6100fc565b60405161008c9190610c4b565b60405180910390f35b6100a86100a33660046109db565b610120565b005b6100b26102ed565b60405161008c9190610c38565b6100c7610326565b60405161008c9190610b14565b6100a86100e236600461099c565b61034c565b6100ef6104a0565b60405161008c9190610bc3565b7f000000000000000000000000000000000000000000000000000000000000000081565b60003073ffffffffffffffffffffffffffffffffffffffff16638da5cb5b6040518163ffffffff1660e01b815260040160206040518083038186803b15801561016857600080fd5b505afa15801561017c573d6000803e3d6000fd5b505050506040513d601f19601f820116820180604052508101906101a091906109bf565b90503373ffffffffffffffffffffffffffffffffffffffff8216146101d1576101d16101cc3383610724565b6107df565b5073ffffffffffffffffffffffffffffffffffffffff81166101f8576101f86101cc6107e7565b6000610202610841565b80547fffffffffffffffffffffffff00000000000000000000000000000000000000001630178155604080516020601f870181900481028201810190925285815291925061026c918791879087908190840183828082843760009201919091525061085492505050565b80547fffffffffffffffffffffffff00000000000000000000000000000000000000001673ffffffffffffffffffffffffffffffffffffffff83161781556040517fe1b831b0e6f3aa16b4b1a6bd526b5cdeab4940744ca6e0251f5fe5f8caf1c81a906102de90339088908690610b35565b60405180910390a15050505050565b6040518060400160405280600781526020017f4f776e61626c650000000000000000000000000000000000000000000000000081525081565b6000610330610841565b5473ffffffffffffffffffffffffffffffffffffffff16905090565b60003073ffffffffffffffffffffffffffffffffffffffff16638da5cb5b6040518163ffffffff1660e01b815260040160206040518083038186803b15801561039457600080fd5b505afa1580156103a8573d6000803e3d6000fd5b505050506040513d601f19601f820116820180604052508101906103cc91906109bf565b90503373ffffffffffffffffffffffffffffffffffffffff8216146103f8576103f86101cc3383610724565b506000610403610841565b905073ffffffffffffffffffffffffffffffffffffffff82166104305761042b6101cc6107e7565b61049c565b80547fffffffffffffffffffffffff00000000000000000000000000000000000000001673ffffffffffffffffffffffffffffffffffffffff8316908117825560405133907f8be0079c531659141344cd1fd0a4f28419497f9722a3daafe3b4186f6b6457e090600090a35b5050565b6000306104ab610841565b80547fffffffffffffffffffffffff00000000000000000000000000000000000000001673ffffffffffffffffffffffffffffffffffffffff929092169190911790556040517f0ee8be1b0000000000000000000000000000000000000000000000000000000081523090630ee8be1b9061056c907ff2fde38b00000000000000000000000000000000000000000000000000000000907f000000000000000000000000000000000000000000000000000000000000000090600401610bf0565b600060405180830381600087803b15801561058657600080fd5b505af115801561059a573d6000803e3d6000fd5b50506040517f0ee8be1b000000000000000000000000000000000000000000000000000000008152309250630ee8be1b915061061c907f8da5cb5b00000000000000000000000000000000000000000000000000000000907f000000000000000000000000000000000000000000000000000000000000000090600401610bf0565b600060405180830381600087803b15801561063657600080fd5b505af115801561064a573d6000803e3d6000fd5b50506040517f0ee8be1b000000000000000000000000000000000000000000000000000000008152309250630ee8be1b91506106cc907f261fe67900000000000000000000000000000000000000000000000000000000907f000000000000000000000000000000000000000000000000000000000000000090600401610bf0565b600060405180830381600087803b1580156106e657600080fd5b505af11580156106fa573d6000803e3d6000fd5b507fd150751b00000000000000000000000000000000000000000000000000000000935050505090565b60607f1de45ad18e8a4484220a3ca14f4d977641addbaba5a344b1384dc2aa78a2e34d838360405160240161075a929190610b65565b604080517fffffffffffffffffffffffffffffffffffffffffffffffffffffffffffffffe08184030181529190526020810180517bffffffffffffffffffffffffffffffffffffffffffffffffffffffff167fffffffff0000000000000000000000000000000000000000000000000000000090931692909217909152905092915050565b805160208201fd5b6040805160048152602481019091526020810180517bffffffffffffffffffffffffffffffffffffffffffffffffffffffff167fe69edc3e0000000000000000000000000000000000000000000000000000000017905290565b60008061084e600261094b565b92915050565b600060608373ffffffffffffffffffffffffffffffffffffffff168360405161087d9190610af8565b600060405180830381855af49150503d80600081146108b8576040519150601f19603f3d011682016040523d82523d6000602084013e6108bd565b606091505b50915091508115806108d157508051602014155b80610933575080517f2c64c5ef000000000000000000000000000000000000000000000000000000009061090e9083016020908101908401610a6e565b7fffffffff000000000000000000000000000000000000000000000000000000001614155b15610945576109456101cc8583610966565b50505050565b6000608082600881111561095b57fe5b600101901b92915050565b60607ff74b11883dedd9755c2b93d5d172e1ad0300f9d700d2a708ba05e9fd9d4d1528838360405160240161075a929190610b8c565b6000602082840312156109ad578081fd5b81356109b881610c80565b9392505050565b6000602082840312156109d0578081fd5b81516109b881610c80565b600080600080606085870312156109f0578283fd5b84356109fb81610c80565b9350602085013567ffffffffffffffff80821115610a17578485fd5b818701915087601f830112610a2a578485fd5b813581811115610a38578586fd5b886020828501011115610a49578586fd5b6020830195508094505050506040850135610a6381610c80565b939692955090935050565b600060208284031215610a7f578081fd5b81517fffffffff00000000000000000000000000000000000000000000000000000000811681146109b8578182fd5b60008151808452610ac6816020860160208601610c54565b601f017fffffffffffffffffffffffffffffffffffffffffffffffffffffffffffffffe0169290920160200192915050565b60008251610b0a818460208701610c54565b9190910192915050565b73ffffffffffffffffffffffffffffffffffffffff91909116815260200190565b73ffffffffffffffffffffffffffffffffffffffff93841681529183166020830152909116604082015260600190565b73ffffffffffffffffffffffffffffffffffffffff92831681529116602082015260400190565b600073ffffffffffffffffffffffffffffffffffffffff8416825260406020830152610bbb6040830184610aae565b949350505050565b7fffffffff0000000000000000000000000000000000000000000000000000000091909116815260200190565b7fffffffff0000000000000000000000000000000000000000000000000000000092909216825273ffffffffffffffffffffffffffffffffffffffff16602082015260400190565b6000602082526109b86020830184610aae565b90815260200190565b60005b83811015610c6f578181015183820152602001610c57565b838111156109455750506000910152565b73ffffffffffffffffffffffffffffffffffffffff81168114610ca257600080fd5b5056fea264697066735822122095d1482b6b423b23f1a2b1169e3851633304061386e565ad6d75fa907929af6e64736f6c634300060c0033",
  "devdoc": {
    "details": "Owner management features.",
    "kind": "dev",
    "methods": {
      "bootstrap()": {
        "details": "Initializes this feature. The intial owner will be set to this (ZeroEx)      to allow the bootstrappers to call `extend()`. Ownership should be      transferred to the real owner by the bootstrapper after      bootstrapping is complete.",
        "returns": {
          "success": "Magic bytes if successful."
        }
      },
      "migrate(address,bytes,address)": {
        "details": "Execute a migration function in the context of the ZeroEx contract.      The result of the function being called should be the magic bytes      0x2c64c5ef (`keccack('MIGRATE_SUCCESS')`). Only callable by the owner.      Temporarily sets the owner to ourselves so we can perform admin functions.      Before returning, the owner will be set to `newOwner`.",
        "params": {
          "data": "The call data.",
          "newOwner": "The address of the new owner.",
          "target": "The migrator contract address."
        }
      },
      "owner()": {
        "details": "Get the owner of this contract.",
        "returns": {
          "owner_": "The owner of this contract."
        }
      },
      "transferOwnership(address)": {
        "details": "Change the owner of this contract.      Only directly callable by the owner.",
        "params": {
          "newOwner": "New owner address."
        }
      }
    },
    "stateVariables": {
      "FEATURE_NAME": {
        "details": "Name of this feature."
      },
      "FEATURE_VERSION": {
        "details": "Version of this feature."
      }
    },
    "version": 1
  },
  "userdoc": {
    "kind": "user",
    "methods": {},
    "version": 1
  },
  "storageLayout": {
    "storage": [],
    "types": null
  }
}