{
  "address": "0xbB9aeF42B34c2C0466A7E5F7d7B09C3040091Cc7",
  "abi": [
    {
      "anonymous": false,
      "inputs": [
        {
          "indexed": true,
          "internalType": "bytes4",
          "name": "selector",
          "type": "bytes4"
        },
        {
          "indexed": false,
          "internalType": "address",
          "name": "oldImpl",
          "type": "address"
        },
        {
          "indexed": false,
          "internalType": "address",
          "name": "newImpl",
          "type": "address"
        }
      ],
      "name": "ProxyFunctionUpdated",
      "type": "event"
    },
    {
      "inputs": [],
      "name": "FEATURE_NAME",
      "outputs": [
        {
          "internalType": "string",
          "name": "",
          "type": "string"
        }
      ],
      "stateMutability": "view",
      "type": "function"
    },
    {
      "inputs": [],
      "name": "FEATURE_VERSION",
      "outputs": [
        {
          "internalType": "uint256",
          "name": "",
          "type": "uint256"
        }
      ],
      "stateMutability": "view",
      "type": "function"
    },
    {
      "inputs": [
        {
          "internalType": "bytes4",
          "name": "selector",
          "type": "bytes4"
        },
        {
          "internalType": "address",
          "name": "impl",
          "type": "address"
        }
      ],
      "name": "_extendSelf",
      "outputs": [],
      "stateMutability": "nonpayable",
      "type": "function"
    },
    {
      "inputs": [],
      "name": "bootstrap",
      "outputs": [
        {
          "internalType": "bytes4",
          "name": "success",
          "type": "bytes4"
        }
      ],
      "stateMutability": "nonpayable",
      "type": "function"
    },
    {
      "inputs": [
        {
          "internalType": "bytes4",
          "name": "selector",
          "type": "bytes4"
        },
        {
          "internalType": "address",
          "name": "impl",
          "type": "address"
        }
      ],
      "name": "extend",
      "outputs": [],
      "stateMutability": "nonpayable",
      "type": "function"
    },
    {
      "inputs": [
        {
          "internalType": "bytes4",
          "name": "selector",
          "type": "bytes4"
        },
        {
          "internalType": "uint256",
          "name": "idx",
          "type": "uint256"
        }
      ],
      "name": "getRollbackEntryAtIndex",
      "outputs": [
        {
          "internalType": "address",
          "name": "impl",
          "type": "address"
        }
      ],
      "stateMutability": "view",
      "type": "function"
    },
    {
      "inputs": [
        {
          "internalType": "bytes4",
          "name": "selector",
          "type": "bytes4"
        }
      ],
      "name": "getRollbackLength",
      "outputs": [
        {
          "internalType": "uint256",
          "name": "rollbackLength",
          "type": "uint256"
        }
      ],
      "stateMutability": "view",
      "type": "function"
    },
    {
      "inputs": [
        {
          "internalType": "bytes4",
          "name": "selector",
          "type": "bytes4"
        },
        {
          "internalType": "address",
          "name": "targetImpl",
          "type": "address"
        }
      ],
      "name": "rollback",
      "outputs": [],
      "stateMutability": "nonpayable",
      "type": "function"
    }
  ],
  "transactionHash": "0x57157a61ef9843343e7af8dc6e33678d2538de46618bc4660bbbffc5affb112e",
  "args": [],
  "solcInputHash": "efb9fb1223f7541dd446b71a9af96ce5",
  "bytecode": "0x60c0604052610011600160008061002d565b60a05234801561002057600080fd5b503060601b60805261005f565b6bffffffff0000000000000000604084901b1667ffffffff00000000602084901b161763ffffffff8216179392505050565b60805160601c60a051610d256100996000398061014552508061065952806106a352806106ed528061073752806107815250610d256000f3fe608060405234801561001057600080fd5b50600436106100885760003560e01c80636eb224cb1161005b5780636eb224cb146100f55780639db64a4014610108578063dfd007491461011b578063fb969b0a1461012e57610088565b8063031b905c1461008d5780630ee8be1b146100ab5780636ae4b4f7146100c05780636ba6bbc2146100d5575b600080fd5b610095610143565b6040516100a29190610c93565b60405180910390f35b6100be6100b9366004610b02565b610167565b005b6100c861018d565b6040516100a29190610c22565b6100e86100e3366004610b3a565b6101c6565b6040516100a29190610b65565b6100be610103366004610b02565b610237565b6100be610116366004610b02565b6102ee565b610095610129366004610ae6565b6105ee565b610136610631565b6040516100a29190610bad565b7f000000000000000000000000000000000000000000000000000000000000000081565b33301461017f5761017f61017a336107ca565b610882565b610189828261088a565b5050565b6040518060400160405280601681526020017f53696d706c6546756e6374696f6e52656769737472790000000000000000000081525081565b60006101d061097c565b7fffffffff00000000000000000000000000000000000000000000000000000000841660009081526020919091526040902080548390811061020e57fe5b60009182526020909120015473ffffffffffffffffffffffffffffffffffffffff169392505050565b60003073ffffffffffffffffffffffffffffffffffffffff16638da5cb5b6040518163ffffffff1660e01b815260040160206040518083038186803b15801561027f57600080fd5b505afa158015610293573d6000803e3d6000fd5b505050506040513d601f19601f820116820180604052508101906102b79190610ac3565b90503373ffffffffffffffffffffffffffffffffffffffff8216146102e3576102e361017a338361098f565b50610189828261088a565b60003073ffffffffffffffffffffffffffffffffffffffff16638da5cb5b6040518163ffffffff1660e01b815260040160206040518083038186803b15801561033657600080fd5b505afa15801561034a573d6000803e3d6000fd5b505050506040513d601f19601f8201168201806040525081019061036e9190610ac3565b90503373ffffffffffffffffffffffffffffffffffffffff82161461039a5761039a61017a338361098f565b506000806103a6610a4a565b7fffffffff000000000000000000000000000000000000000000000000000000008616600090815260208290526040902054919350915073ffffffffffffffffffffffffffffffffffffffff90811690841681141561040757505050610189565b7fffffffff000000000000000000000000000000000000000000000000000000008516600090815260208490526040902080545b801561052a57600082600183038154811061045257fe5b600091825260209091200154835473ffffffffffffffffffffffffffffffffffffffff909116915083908061048357fe5b60008281526020902081017fffffffffffffffffffffffffffffffffffffffffffffffffffffffffffffffff90810180547fffffffffffffffffffffffff000000000000000000000000000000000000000016905501905573ffffffffffffffffffffffffffffffffffffffff8181169088161415610502575061052a565b507fffffffffffffffffffffffffffffffffffffffffffffffffffffffffffffffff0161043b565b8061053c5761053c61017a8888610a65565b7fffffffff0000000000000000000000000000000000000000000000000000000087166000818152602086905260409081902080547fffffffffffffffffffffffff00000000000000000000000000000000000000001673ffffffffffffffffffffffffffffffffffffffff8a16179055517f2ae221083467de52078b0096696ab88d8d53a7ecb44bb65b56a2bab687598367906105dd9086908a90610b86565b60405180910390a250505050505050565b60006105f861097c565b7fffffffff0000000000000000000000000000000000000000000000000000000092909216600090815260209290925250604090205490565b600061067d7f6eb224cb000000000000000000000000000000000000000000000000000000007f000000000000000000000000000000000000000000000000000000000000000061088a565b6106c77f0ee8be1b000000000000000000000000000000000000000000000000000000007f000000000000000000000000000000000000000000000000000000000000000061088a565b6107117f9db64a40000000000000000000000000000000000000000000000000000000007f000000000000000000000000000000000000000000000000000000000000000061088a565b61075b7fdfd00749000000000000000000000000000000000000000000000000000000007f000000000000000000000000000000000000000000000000000000000000000061088a565b6107a57f6ba6bbc2000000000000000000000000000000000000000000000000000000007f000000000000000000000000000000000000000000000000000000000000000061088a565b507fd150751b0000000000000000000000000000000000000000000000000000000090565b60607ff0ec779b0bcda6d84abf99ee2c67647d1100ebbb553a9c2d1c2ba1579592832c826040516024016107fe9190610b65565b604080517fffffffffffffffffffffffffffffffffffffffffffffffffffffffffffffffe08184030181529190526020810180517bffffffffffffffffffffffffffffffffffffffffffffffffffffffff167fffffffff00000000000000000000000000000000000000000000000000000000909316929092179091529050919050565b805160208201fd5b600080610895610a4a565b7fffffffff0000000000000000000000000000000000000000000000000000000086166000818152602083815260408083208054878452828520805460018101825581875285872001805473ffffffffffffffffffffffffffffffffffffffff9384167fffffffffffffffffffffffff0000000000000000000000000000000000000000918216811790925596889052948890528254909516908b161790555194965092945091927f2ae221083467de52078b0096696ab88d8d53a7ecb44bb65b56a2bab6875983679061096c9085908990610b86565b60405180910390a2505050505050565b6000806109896001610a9b565b92915050565b60607f1de45ad18e8a4484220a3ca14f4d977641addbaba5a344b1384dc2aa78a2e34d83836040516024016109c5929190610b86565b604080517fffffffffffffffffffffffffffffffffffffffffffffffffffffffffffffffe08184030181529190526020810180517bffffffffffffffffffffffffffffffffffffffffffffffffffffffff167fffffffff0000000000000000000000000000000000000000000000000000000090931692909217909152905092915050565b600080610a5561097c565b610a5d610ab6565b915091509091565b60607fa0425c2dc08feeb46e95a8e23b3c6d740f439b9610c5a973cad3b7eca6ccfe6383836040516024016109c5929190610bda565b60006080826008811115610aab57fe5b600101901b92915050565b6000806109896000610a9b565b600060208284031215610ad4578081fd5b8151610adf81610c9c565b9392505050565b600060208284031215610af7578081fd5b8135610adf81610cc1565b60008060408385031215610b14578081fd5b8235610b1f81610cc1565b91506020830135610b2f81610c9c565b809150509250929050565b60008060408385031215610b4c578182fd5b8235610b5781610cc1565b946020939093013593505050565b73ffffffffffffffffffffffffffffffffffffffff91909116815260200190565b73ffffffffffffffffffffffffffffffffffffffff92831681529116602082015260400190565b7fffffffff0000000000000000000000000000000000000000000000000000000091909116815260200190565b7fffffffff0000000000000000000000000000000000000000000000000000000092909216825273ffffffffffffffffffffffffffffffffffffffff16602082015260400190565b6000602080835283518082850152825b81811015610c4e57858101830151858201604001528201610c32565b81811115610c5f5783604083870101525b50601f017fffffffffffffffffffffffffffffffffffffffffffffffffffffffffffffffe016929092016040019392505050565b90815260200190565b73ffffffffffffffffffffffffffffffffffffffff81168114610cbe57600080fd5b50565b7fffffffff0000000000000000000000000000000000000000000000000000000081168114610cbe57600080fdfea264697066735822122096cc5f38568a3664dc63a8234e56460f07f7dea83a40a7a7cbf0056d84eda76c64736f6c634300060c0033",
  "devdoc": {
    "details": "Basic registry management features.",
    "kind": "dev",
    "methods": {
      "_extendSelf(bytes4,address)": {
        "details": "Register or replace a function.      Only callable from within.      This function is only used during the bootstrap process and      should be deregistered by the deployer after bootstrapping is      complete.",
        "params": {
          "impl": "The implementation contract for the function.",
          "selector": "The function selector."
        }
      },
      "bootstrap()": {
        "details": "Initializes this feature, registering its own functions.",
        "returns": {
          "success": "Magic bytes if successful."
        }
      },
      "extend(bytes4,address)": {
        "details": "Register or replace a function.      Only directly callable by an authority.",
        "params": {
          "impl": "The implementation contract for the function.",
          "selector": "The function selector."
        }
      },
      "getRollbackEntryAtIndex(bytes4,uint256)": {
        "details": "Retrieve an entry in the rollback history for a function.",
        "params": {
          "idx": "The index in the rollback history.",
          "selector": "The function selector."
        },
        "returns": {
          "impl": "An implementation address for the function at         index `idx`."
        }
      },
      "getRollbackLength(bytes4)": {
        "details": "Retrieve the length of the rollback history for a function.",
        "params": {
          "selector": "The function selector."
        },
        "returns": {
          "rollbackLength": "The number of items in the rollback history for         the function."
        }
      },
      "rollback(bytes4,address)": {
        "details": "Roll back to a prior implementation of a function.      Only directly callable by an authority.",
        "params": {
          "selector": "The function selector.",
          "targetImpl": "The address of an older implementation of the function."
        }
      }
    },
    "stateVariables": {
      "FEATURE_NAME": {
        "details": "Name of this feature."
      },
      "FEATURE_VERSION": {
        "details": "Version of this feature."
      }
    },
    "version": 1
  },
  "userdoc": {
    "kind": "user",
    "methods": {},
    "version": 1
  },
  "storageLayout": {
    "storage": [],
    "types": null
  }
}