{
  "address": "0x5eC5d187C401b7a970d37D3adaB8D5bFCA7AcC11",
  "abi": [
    {
      "constant": true,
      "inputs": [],
      "name": "getProxyId",
      "outputs": [
        {
          "internalType": "bytes4",
          "name": "",
          "type": "bytes4"
        }
      ],
      "payable": false,
      "stateMutability": "pure",
      "type": "function"
    },
    {
      "constant": true,
      "inputs": [
        {
          "internalType": "bytes",
          "name": "assetData",
          "type": "bytes"
        },
        {
          "internalType": "address",
          "name": "from",
          "type": "address"
        },
        {
          "internalType": "address",
          "name": "to",
          "type": "address"
        },
        {
          "internalType": "uint256",
          "name": "amount",
          "type": "uint256"
        }
      ],
      "name": "transferFrom",
      "outputs": [],
      "payable": false,
      "stateMutability": "view",
      "type": "function"
    }
  ],
  "transactionHash": "0x3894fee0f8b3eafce16e56688f54d789fefa5c7bec1f5ec4718761bcb93641be",
  "args": [],
  "solcInputHash": "bd279127cccaced22aef07aad44a1173",
  "bytecode": "0x608060405234801561001057600080fd5b50610505806100206000396000f3fe608060405234801561001057600080fd5b50600436106100365760003560e01c8063a85e59e41461003b578063ae25532e146100d3575b600080fd5b6100d16004803603608081101561005157600080fd5b81019060208101813564010000000081111561006c57600080fd5b82018360208201111561007e57600080fd5b803590602001918460018302840111640100000000831117156100a057600080fd5b919350915073ffffffffffffffffffffffffffffffffffffffff813581169160208101359091169060400135610110565b005b6100db6103a5565b604080517fffffffff000000000000000000000000000000000000000000000000000000009092168252519081900360200190f35b6000606060006101656004898990508a8a8080601f01602080910402602001604051908101604052809392919081815260200183838082843760009201919091525092949392505063ffffffff6103c5169050565b806020019051606081101561017957600080fd5b8151602083018051604051929492938301929190846401000000008211156101a057600080fd5b9083019060208201858111156101b557600080fd5b82516401000000008111828201881017156101cf57600080fd5b82525081516020918201929091019080838360005b838110156101fc5781810151838201526020016101e4565b50505050905090810190601f1680156102295780820380516001836020036101000a031916815260200191505b5060405260200180519060200190929190505050925092509250600060608473ffffffffffffffffffffffffffffffffffffffff16846040518082805190602001908083835b602083106102ac57805182527fffffffffffffffffffffffffffffffffffffffffffffffffffffffffffffffe0909201916020918201910161026f565b6001836020036101000a038019825116818451168082178552505050505050905001915050600060405180830381855afa9150503d806000811461030c576040519150601f19603f3d011682016040523d82523d6000602084013e610311565b606091505b50915091508161032357805160208201fd5b8051602082012083811461039857604080517f08c379a000000000000000000000000000000000000000000000000000000000815260206004820152601d60248201527f554e45585045435445445f5354415449435f43414c4c5f524553554c54000000604482015290519081900360640190fd5b5050505050505050505050565b600060405180806104b06021913960210190506040518091039020905090565b6060818311156103e3576103e36103de60008585610408565b6104a7565b83518211156103fc576103fc6103de6001848751610408565b50819003910190815290565b6060632800659560e01b8484846040516024018084600781111561042857fe5b60ff1681526020018381526020018281526020019350505050604051602081830303815290604052907bffffffffffffffffffffffffffffffffffffffffffffffffffffffff19166020820180517bffffffffffffffffffffffffffffffffffffffffffffffffffffffff838183161783525050505090509392505050565b805160208201fdfe53746174696343616c6c28616464726573732c62797465732c6279746573333229a265627a7a723158203a363ecb412a979281b02088c867de685c03cf9d09a610b3a958834fbb77dcfb64736f6c63430005110032",
  "devdoc": {
    "methods": {
      "getProxyId()": {
        "details": "Gets the proxy id associated with the proxy address.",
        "return": "Proxy id."
      },
      "transferFrom(bytes,address,address,uint256)": {
        "details": "Makes a staticcall to a target address and verifies that the data returned matches the expected return data.",
        "params": {
          "amount": "This value is ignored.",
          "assetData": "Byte array encoded with staticCallTarget, staticCallData, and expectedCallResultHash",
          "from": "This value is ignored.",
          "to": "This value is ignored."
        }
      }
    }
  },
  "userdoc": {
    "methods": {}
  },
  "storageLayout": {
    "storage": [],
    "types": null
  }
}