{
  "address": "0x1fE4F7197F13010e2AA655A9811E4C85F20F0B7d",
  "abi": [
    {
      "inputs": [],
      "stateMutability": "nonpayable",
      "type": "constructor"
    },
    {
      "anonymous": false,
      "inputs": [
        {
          "indexed": false,
          "internalType": "address",
          "name": "quoteSigner",
          "type": "address"
        }
      ],
      "name": "QuoteSignerUpdated",
      "type": "event"
    },
    {
      "anonymous": false,
      "inputs": [
        {
          "indexed": true,
          "internalType": "address",
          "name": "taker",
          "type": "address"
        },
        {
          "indexed": false,
          "internalType": "address",
          "name": "inputToken",
          "type": "address"
        },
        {
          "indexed": false,
          "internalType": "address",
          "name": "outputToken",
          "type": "address"
        },
        {
          "indexed": false,
          "internalType": "uint256",
          "name": "inputTokenAmount",
          "type": "uint256"
        },
        {
          "indexed": false,
          "internalType": "uint256",
          "name": "outputTokenAmount",
          "type": "uint256"
        }
      ],
      "name": "TransformedERC20",
      "type": "event"
    },
    {
      "anonymous": false,
      "inputs": [
        {
          "indexed": false,
          "internalType": "address",
          "name": "transformerDeployer",
          "type": "address"
        }
      ],
      "name": "TransformerDeployerUpdated",
      "type": "event"
    },
    {
      "inputs": [],
      "name": "FEATURE_NAME",
      "outputs": [
        {
          "internalType": "string",
          "name": "",
          "type": "string"
        }
      ],
      "stateMutability": "view",
      "type": "function"
    },
    {
      "inputs": [],
      "name": "FEATURE_VERSION",
      "outputs": [
        {
          "internalType": "uint256",
          "name": "",
          "type": "uint256"
        }
      ],
      "stateMutability": "view",
      "type": "function"
    },
    {
      "inputs": [
        {
          "components": [
            {
              "internalType": "address payable",
              "name": "taker",
              "type": "address"
            },
            {
              "internalType": "contract IERC20TokenV06",
              "name": "inputToken",
              "type": "address"
            },
            {
              "internalType": "contract IERC20TokenV06",
              "name": "outputToken",
              "type": "address"
            },
            {
              "internalType": "uint256",
              "name": "inputTokenAmount",
              "type": "uint256"
            },
            {
              "internalType": "uint256",
              "name": "minOutputTokenAmount",
              "type": "uint256"
            },
            {
              "components": [
                {
                  "internalType": "uint32",
                  "name": "deploymentNonce",
                  "type": "uint32"
                },
                {
                  "internalType": "bytes",
                  "name": "data",
                  "type": "bytes"
                }
              ],
              "internalType": "struct ITransformERC20Feature.Transformation[]",
              "name": "transformations",
              "type": "tuple[]"
            }
          ],
          "internalType": "struct ITransformERC20Feature.TransformERC20Args",
          "name": "args",
          "type": "tuple"
        }
      ],
      "name": "_transformERC20",
      "outputs": [
        {
          "internalType": "uint256",
          "name": "outputTokenAmount",
          "type": "uint256"
        }
      ],
      "stateMutability": "payable",
      "type": "function"
    },
    {
      "inputs": [],
      "name": "createTransformWallet",
      "outputs": [
        {
          "internalType": "contract IFlashWallet",
          "name": "wallet",
          "type": "address"
        }
      ],
      "stateMutability": "nonpayable",
      "type": "function"
    },
    {
      "inputs": [],
      "name": "getQuoteSigner",
      "outputs": [
        {
          "internalType": "address",
          "name": "signer",
          "type": "address"
        }
      ],
      "stateMutability": "view",
      "type": "function"
    },
    {
      "inputs": [],
      "name": "getTransformWallet",
      "outputs": [
        {
          "internalType": "contract IFlashWallet",
          "name": "wallet",
          "type": "address"
        }
      ],
      "stateMutability": "view",
      "type": "function"
    },
    {
      "inputs": [],
      "name": "getTransformerDeployer",
      "outputs": [
        {
          "internalType": "address",
          "name": "deployer",
          "type": "address"
        }
      ],
      "stateMutability": "view",
      "type": "function"
    },
    {
      "inputs": [
        {
          "internalType": "address",
          "name": "transformerDeployer",
          "type": "address"
        }
      ],
      "name": "migrate",
      "outputs": [
        {
          "internalType": "bytes4",
          "name": "success",
          "type": "bytes4"
        }
      ],
      "stateMutability": "nonpayable",
      "type": "function"
    },
    {
      "inputs": [
        {
          "internalType": "contract IERC20TokenV06",
          "name": "token",
          "type": "address"
        },
        {
          "internalType": "address",
          "name": "to",
          "type": "address"
        },
        {
          "internalType": "uint256",
          "name": "amount",
          "type": "uint256"
        }
      ],
      "name": "sendBalanceTo",
      "outputs": [],
      "stateMutability": "nonpayable",
      "type": "function"
    },
    {
      "inputs": [
        {
          "internalType": "address",
          "name": "quoteSigner",
          "type": "address"
        }
      ],
      "name": "setQuoteSigner",
      "outputs": [],
      "stateMutability": "nonpayable",
      "type": "function"
    },
    {
      "inputs": [
        {
          "internalType": "address",
          "name": "transformerDeployer",
          "type": "address"
        }
      ],
      "name": "setTransformerDeployer",
      "outputs": [],
      "stateMutability": "nonpayable",
      "type": "function"
    },
    {
      "inputs": [
        {
          "internalType": "contract IERC20TokenV06",
          "name": "inputToken",
          "type": "address"
        },
        {
          "internalType": "contract IERC20TokenV06",
          "name": "outputToken",
          "type": "address"
        },
        {
          "internalType": "uint256",
          "name": "inputTokenAmount",
          "type": "uint256"
        },
        {
          "internalType": "uint256",
          "name": "minOutputTokenAmount",
          "type": "uint256"
        },
        {
          "components": [
            {
              "internalType": "uint32",
              "name": "deploymentNonce",
              "type": "uint32"
            },
            {
              "internalType": "bytes",
              "name": "data",
              "type": "bytes"
            }
          ],
          "internalType": "struct ITransformERC20Feature.Transformation[]",
          "name": "transformations",
          "type": "tuple[]"
        }
      ],
      "name": "transformERC20",
      "outputs": [
        {
          "internalType": "uint256",
          "name": "outputTokenAmount",
          "type": "uint256"
        }
      ],
      "stateMutability": "payable",
      "type": "function"
    }
  ],
  "transactionHash": "0xfbfdb2741ccb58fc95f6fb3d0c18d9a603455dad7470fae34b08c1df95793334",
  "args": [],
  "solcInputHash": "b2999807f111c54e125f158ae1e8d3f2",
  "bytecode": "0x60c0604052610011600160038161002d565b60a05234801561002057600080fd5b503060601b60805261005f565b6bffffffff0000000000000000604084901b1667ffffffff00000000602084901b161763ffffffff8216179392505050565b60805160601c60a05161324461008560003980610231525080610efb52506132446000f3fe6080604052600436106100c75760003560e01c80636ae4b4f711610074578063a9ca29071161004e578063a9ca2907146101cd578063ce5494bb146101ed578063f028e9be1461021a576100c7565b80636ae4b4f71461017657806387c96419146101985780639f1ec78b146101b8576100c7565b80634d54cdb6116100a55780634d54cdb61461012c57806356ce180a146101415780636259719214610163576100c7565b8063031b905c146100cc578063287b071b146100f7578063415565b014610119575b600080fd5b3480156100d857600080fd5b506100e161022f565b6040516100ee919061245d565b60405180910390f35b34801561010357600080fd5b5061010c610253565b6040516100ee91906121c3565b6100e1610127366004611fb9565b610380565b34801561013857600080fd5b5061010c610403565b34801561014d57600080fd5b5061016161015c366004611e6e565b61042c565b005b6100e161017136600461202d565b610563565b34801561018257600080fd5b5061018b610589565b6040516100ee91906123a4565b3480156101a457600080fd5b506101616101b3366004611e6e565b6105c2565b3480156101c457600080fd5b5061010c6106ee565b3480156101d957600080fd5b506101616101e8366004611f79565b610717565b3480156101f957600080fd5b5061020d610208366004611e6e565b61081c565b6040516100ee919061230d565b34801561022657600080fd5b5061010c610b10565b7f000000000000000000000000000000000000000000000000000000000000000081565b6000803073ffffffffffffffffffffffffffffffffffffffff16638da5cb5b6040518163ffffffff1660e01b815260040160206040518083038186803b15801561029c57600080fd5b505afa1580156102b0573d6000803e3d6000fd5b505050506040513d601f19601f820116820180604052508101906102d49190611e8a565b90503373ffffffffffffffffffffffffffffffffffffffff821614610305576103056103003383610b36565b610bf2565b5060405161031290611cbd565b604051809103906000f08015801561032e573d6000803e3d6000fd5b5090508061033a610bfa565b80547fffffffffffffffffffffffff00000000000000000000000000000000000000001673ffffffffffffffffffffffffffffffffffffffff9290921691909117905590565b60006103f96040518060c001604052803373ffffffffffffffffffffffffffffffffffffffff1681526020018873ffffffffffffffffffffffffffffffffffffffff1681526020018773ffffffffffffffffffffffffffffffffffffffff16815260200186815260200185815260200184815250610c07565b9695505050505050565b600061040d610bfa565b6001015473ffffffffffffffffffffffffffffffffffffffff16905090565b60003073ffffffffffffffffffffffffffffffffffffffff16638da5cb5b6040518163ffffffff1660e01b815260040160206040518083038186803b15801561047457600080fd5b505afa158015610488573d6000803e3d6000fd5b505050506040513d601f19601f820116820180604052508101906104ac9190611e8a565b90503373ffffffffffffffffffffffffffffffffffffffff8216146104d8576104d86103003383610b36565b50806104e2610bfa565b60020180547fffffffffffffffffffffffff00000000000000000000000000000000000000001673ffffffffffffffffffffffffffffffffffffffff929092169190911790556040517ff5550c5eea19b48ac6eb5f03abdc4f59c0a60697abb3d973cd68669703b5c8b9906105589083906121c3565b60405180910390a150565b60003330146105785761057861030033610e0d565b61058182610c07565b90505b919050565b6040518060400160405280600e81526020017f5472616e73666f726d455243323000000000000000000000000000000000000081525081565b60003073ffffffffffffffffffffffffffffffffffffffff16638da5cb5b6040518163ffffffff1660e01b815260040160206040518083038186803b15801561060a57600080fd5b505afa15801561061e573d6000803e3d6000fd5b505050506040513d601f19601f820116820180604052508101906106429190611e8a565b90503373ffffffffffffffffffffffffffffffffffffffff82161461066e5761066e6103003383610b36565b5080610678610bfa565b60010180547fffffffffffffffffffffffff00000000000000000000000000000000000000001673ffffffffffffffffffffffffffffffffffffffff929092169190911790556040517ffd45604abad79c16e23348a137ed8292661be1b8eba6e4806ebed6833b1c046a906105589083906121c3565b60006106f8610bfa565b6002015473ffffffffffffffffffffffffffffffffffffffff16905090565b73ffffffffffffffffffffffffffffffffffffffff8316301415610770576040517f08c379a0000000000000000000000000000000000000000000000000000000008152600401610767906123b7565b60405180910390fd5b6040517fa9059cbb00000000000000000000000000000000000000000000000000000000815273ffffffffffffffffffffffffffffffffffffffff84169063a9059cbb906107c490859085906004016122b9565b602060405180830381600087803b1580156107de57600080fd5b505af11580156107f2573d6000803e3d6000fd5b505050506040513d601f19601f820116820180604052508101906108169190611ea6565b50505050565b60006108477f4d54cdb600000000000000000000000000000000000000000000000000000000610ec5565b6108707f287b071b00000000000000000000000000000000000000000000000000000000610ec5565b6108997ff028e9be00000000000000000000000000000000000000000000000000000000610ec5565b6108c27f87c9641900000000000000000000000000000000000000000000000000000000610ec5565b6108eb7f56ce180a00000000000000000000000000000000000000000000000000000000610ec5565b6109147f9f1ec78b00000000000000000000000000000000000000000000000000000000610ec5565b61093d7f415565b000000000000000000000000000000000000000000000000000000000610ec5565b6109667f6259719200000000000000000000000000000000000000000000000000000000610ec5565b600073ffffffffffffffffffffffffffffffffffffffff163073ffffffffffffffffffffffffffffffffffffffff1663f028e9be6040518163ffffffff1660e01b815260040160206040518083038186803b1580156109c457600080fd5b505afa1580156109d8573d6000803e3d6000fd5b505050506040513d601f19601f820116820180604052508101906109fc9190611e8a565b73ffffffffffffffffffffffffffffffffffffffff161415610a9a573073ffffffffffffffffffffffffffffffffffffffff1663287b071b6040518163ffffffff1660e01b8152600401602060405180830381600087803b158015610a6057600080fd5b505af1158015610a74573d6000803e3d6000fd5b505050506040513d601f19601f82011682018060405250810190610a989190611e8a565b505b81610aa3610bfa565b60010180547fffffffffffffffffffffffff00000000000000000000000000000000000000001673ffffffffffffffffffffffffffffffffffffffff92909216919091179055507f2c64c5ef00000000000000000000000000000000000000000000000000000000919050565b6000610b1a610bfa565b5473ffffffffffffffffffffffffffffffffffffffff16905090565b60607f1de45ad18e8a4484220a3ca14f4d977641addbaba5a344b1384dc2aa78a2e34d8383604051602401610b6c92919061221b565b604080517fffffffffffffffffffffffffffffffffffffffffffffffffffffffffffffffe08184030181529190526020810180517bffffffffffffffffffffffffffffffffffffffffffffffffffffffff167fffffffff000000000000000000000000000000000000000000000000000000009093169290921790915290505b92915050565b805160208201fd5b600080610bec6004610f58565b60007fffffffffffffffffffffffffffffffffffffffffffffffffffffffffffffffff82606001511415610c6a57610c428260200151610f73565b15610c5257346060830152610c6a565b610c6482602001518360000151610fa5565b60608301525b610c72611cca565b610c7a610b10565b73ffffffffffffffffffffffffffffffffffffffff168152610c9a610403565b73ffffffffffffffffffffffffffffffffffffffff16602082015260408301518351610cc691906110e3565b60408201526020830151835182516060860151610ce5939291906111b3565b60005b8360a0015151811015610d2c57610d2482600001518560a001518381518110610d0d57fe5b60200260200101518460200151876000015161123d565b600101610ce8565b50610d3f836040015184600001516110e3565b6060820181905260408201511115610d6c57610d6c6103008460400151836060015184604001510361145f565b60408101516060820151610d7f91611495565b91508260800151821015610da357610da361030084604001518486608001516114b4565b826000015173ffffffffffffffffffffffffffffffffffffffff167f0f6672f78a59ba8e5e5b5d38df3ebc67f3c792e2c9259b8d97d7f00dd78ba1b384602001518560400151866060015186604051610dff9493929190612242565b60405180910390a250919050565b60607ff0ec779b0bcda6d84abf99ee2c67647d1100ebbb553a9c2d1c2ba1579592832c82604051602401610e4191906121c3565b604080517fffffffffffffffffffffffffffffffffffffffffffffffffffffffffffffffe08184030181529190526020810180517bffffffffffffffffffffffffffffffffffffffffffffffffffffffff167fffffffff00000000000000000000000000000000000000000000000000000000909316929092179091529050919050565b6040517f6eb224cb0000000000000000000000000000000000000000000000000000000081523090636eb224cb90610f239084907f00000000000000000000000000000000000000000000000000000000000000009060040161233a565b600060405180830381600087803b158015610f3d57600080fd5b505af1158015610f51573d6000803e3d6000fd5b5050505050565b60006080826008811115610f6857fe5b600101901b92915050565b73ffffffffffffffffffffffffffffffffffffffff811673eeeeeeeeeeeeeeeeeeeeeeeeeeeeeeeeeeeeeeee14919050565b60006110dc8373ffffffffffffffffffffffffffffffffffffffff1663dd62ed3e84306040518363ffffffff1660e01b8152600401610fe592919061221b565b60206040518083038186803b158015610ffd57600080fd5b505afa158015611011573d6000803e3d6000fd5b505050506040513d601f19601f8201168201806040525081019061103591906120e2565b6040517f70a0823100000000000000000000000000000000000000000000000000000000815273ffffffffffffffffffffffffffffffffffffffff8616906370a08231906110879087906004016121c3565b60206040518083038186803b15801561109f57600080fd5b505afa1580156110b3573d6000803e3d6000fd5b505050506040513d601f19601f820116820180604052508101906110d791906120e2565b611572565b9392505050565b60006110ee83610f73565b15611111575073ffffffffffffffffffffffffffffffffffffffff811631610bec565b6040517f70a0823100000000000000000000000000000000000000000000000000000000815273ffffffffffffffffffffffffffffffffffffffff8416906370a08231906111639085906004016121c3565b60206040518083038186803b15801561117b57600080fd5b505afa15801561118f573d6000803e3d6000fd5b505050506040513d601f19601f820116820180604052508101906110dc91906120e2565b34156111fd5760405173ffffffffffffffffffffffffffffffffffffffff8316903480156108fc02916000818181858888f193505050501580156111fb573d6000803e3d6000fd5b505b61120684610f73565b15801561121257508015155b156112285761122384848484611588565b610816565b80341015610816576108166103003483611687565b600061124d8385600001516116bd565b905060608573ffffffffffffffffffffffffffffffffffffffff1663b68df16d8363832b24bb60e01b60405180606001604052803373ffffffffffffffffffffffffffffffffffffffff1681526020018873ffffffffffffffffffffffffffffffffffffffff1681526020018a602001518152506040516024016112d19190612414565b604080517fffffffffffffffffffffffffffffffffffffffffffffffffffffffffffffffe08184030181529181526020820180517bffffffffffffffffffffffffffffffffffffffffffffffffffffffff167fffffffff000000000000000000000000000000000000000000000000000000009485161790525160e085901b909216825261136292916004016121e4565b600060405180830381600087803b15801561137c57600080fd5b505af1158015611390573d6000803e3d6000fd5b505050506040513d6000823e601f3d9081017fffffffffffffffffffffffffffffffffffffffffffffffffffffffffffffffe01682016040526113d69190810190611f06565b905080516020141580611440575080517f13c9929e000000000000000000000000000000000000000000000000000000009061141b9083016020908101908401611ec6565b7fffffffff000000000000000000000000000000000000000000000000000000001614155b15611457576114576103008387602001518461172c565b505050505050565b60607f3ea25a3cae94e681748e39876b75ce362a9159c4618787bc1250e3d9f9c439108383604051602401610b6c9291906122b9565b6000828211156114ae576114ae61030060028585611764565b50900390565b60607f990174d2378c7614a3e4722867cea0a803c0cc16ef92c4f5466ed5bc1d3496da8484846040516024016114ec939291906122df565b604080517fffffffffffffffffffffffffffffffffffffffffffffffffffffffffffffffe08184030181529190526020810180517bffffffffffffffffffffffffffffffffffffffffffffffffffffffff167fffffffff000000000000000000000000000000000000000000000000000000009093169290921790915290509392505050565b600081831061158157816110dc565b5090919050565b73ffffffffffffffffffffffffffffffffffffffff84163014156115d8576040517f08c379a0000000000000000000000000000000000000000000000000000000008152600401610767906123b7565b6040517f23b872dd00000000000000000000000000000000000000000000000000000000815273ffffffffffffffffffffffffffffffffffffffff8416600482015273ffffffffffffffffffffffffffffffffffffffff83166024820152816044820152602081606483600073ffffffffffffffffffffffffffffffffffffffff8a165af13d6001835114602082101516811517821691508161167e57806000843e8083fd5b50505050505050565b60607f96660ab143a5c6a946233c268494b1026bfca53373c9715e0fe96b3c59c850448383604051602401610b6c929190612466565b600060606116ca83611783565b9050805160d50160f81b609460f81b85836040516020016116ee9493929190612144565b604080517fffffffffffffffffffffffffffffffffffffffffffffffffffffffffffffffe08184030181529190528051602090910120949350505050565b60607ff21e5cb42b911ca6b3898f8618760aa7d84fe5d43a7a5ad89aa791c66cafe4138484846040516024016114ec93929190612278565b606063e946c1bb60e01b8484846040516024016114ec93929190612382565b606063ffffffff82166117f55760408051600180825281830190925290602082018180368337019050509050608060f81b816000815181106117c157fe5b60200101907effffffffffffffffffffffffffffffffffffffffffffffffffffffffffffff1916908160001a905350610584565b60808263ffffffff16101561183457604080516001808252818301909252906020820181803683370190505090508160f81b816000815181106117c157fe5b60ff8263ffffffff16116118b35760408051600280825281830190925290602082018180368337019050509050608160f81b8160008151811061187357fe5b60200101907effffffffffffffffffffffffffffffffffffffffffffffffffffffffffffff1916908160001a9053508160f81b816001815181106117c157fe5b61ffff8263ffffffff16116119995760408051600380825281830190925290602082018180368337019050509050608260f81b816000815181106118f357fe5b60200101907effffffffffffffffffffffffffffffffffffffffffffffffffffffffffffff1916908160001a90535080517fff0000000000000000000000000000000000000000000000000000000000000060f084901b16908290600190811061195957fe5b60200101907effffffffffffffffffffffffffffffffffffffffffffffffffffffffffffff1916908160001a9053508160f81b816002815181106117c157fe5b62ffffff8263ffffffff1611611ae65760408051600480825281830190925290602082018180368337019050509050608360f81b816000815181106119da57fe5b60200101907effffffffffffffffffffffffffffffffffffffffffffffffffffffffffffff1916908160001a90535080517fff0000000000000000000000000000000000000000000000000000000000000060e884901b169082906001908110611a4057fe5b60200101907effffffffffffffffffffffffffffffffffffffffffffffffffffffffffffff1916908160001a90535080517fff0000000000000000000000000000000000000000000000000000000000000060f084901b169082906002908110611aa657fe5b60200101907effffffffffffffffffffffffffffffffffffffffffffffffffffffffffffff1916908160001a9053508160f81b816003815181106117c157fe5b60408051600580825281830190925290602082018180368337019050509050608460f81b81600081518110611b1757fe5b60200101907effffffffffffffffffffffffffffffffffffffffffffffffffffffffffffff1916908160001a90535080517fff0000000000000000000000000000000000000000000000000000000000000060e084901b169082906001908110611b7d57fe5b60200101907effffffffffffffffffffffffffffffffffffffffffffffffffffffffffffff1916908160001a90535080517fff0000000000000000000000000000000000000000000000000000000000000060e884901b169082906002908110611be357fe5b60200101907effffffffffffffffffffffffffffffffffffffffffffffffffffffffffffff1916908160001a90535080517fff0000000000000000000000000000000000000000000000000000000000000060f084901b169082906003908110611c4957fe5b60200101907effffffffffffffffffffffffffffffffffffffffffffffffffffffffffffff1916908160001a9053508160f81b81600481518110611c8957fe5b60200101907effffffffffffffffffffffffffffffffffffffffffffffffffffffffffffff1916908160001a905350919050565b610ce08061252f83390190565b6040518060800160405280600073ffffffffffffffffffffffffffffffffffffffff168152602001600073ffffffffffffffffffffffffffffffffffffffff16815260200160008152602001600081525090565b8035610bec81612509565b600082601f830112611d39578081fd5b813567ffffffffffffffff80821115611d50578283fd5b6020611d5f8182850201612474565b838152935080840185820160005b85811015611dfb57813588016040807fffffffffffffffffffffffffffffffffffffffffffffffffffffffffffffffe0838d03011215611dac57600080fd5b611db581612474565b611dc18c888501611e5a565b8152908201359087821115611dd557600080fd5b611de38c8884860101611e07565b81880152855250509183019190830190600101611d6d565b50505050505092915050565b600082601f830112611e17578081fd5b8135611e2a611e258261249b565b612474565b9150808252836020828501011115611e4157600080fd5b8060208401602084013760009082016020015292915050565b803563ffffffff81168114610bec57600080fd5b600060208284031215611e7f578081fd5b81356110dc81612509565b600060208284031215611e9b578081fd5b81516110dc81612509565b600060208284031215611eb7578081fd5b815180151581146110dc578182fd5b600060208284031215611ed7578081fd5b81517fffffffff00000000000000000000000000000000000000000000000000000000811681146110dc578182fd5b600060208284031215611f17578081fd5b815167ffffffffffffffff811115611f2d578182fd5b8201601f81018413611f3d578182fd5b8051611f4b611e258261249b565b818152856020838501011115611f5f578384fd5b611f708260208301602086016124dd565b95945050505050565b600080600060608486031215611f8d578182fd5b8335611f9881612509565b92506020840135611fa881612509565b929592945050506040919091013590565b600080600080600060a08688031215611fd0578081fd5b8535611fdb81612509565b94506020860135611feb81612509565b93506040860135925060608601359150608086013567ffffffffffffffff811115612014578182fd5b61202088828901611d29565b9150509295509295909350565b60006020828403121561203e578081fd5b813567ffffffffffffffff80821115612055578283fd5b9083019060c08286031215612068578283fd5b61207260c0612474565b61207c8684611d1e565b815261208b8660208501611d1e565b602082015261209d8660408501611d1e565b6040820152606083013560608201526080830135608082015260a0830135828111156120c7578485fd5b6120d387828601611d29565b60a08301525095945050505050565b6000602082840312156120f3578081fd5b5051919050565b600081518084526121128160208601602086016124dd565b601f017fffffffffffffffffffffffffffffffffffffffffffffffffffffffffffffffe0169290920160200192915050565b60007fff0000000000000000000000000000000000000000000000000000000000000080871683528086166001840152507fffffffffffffffffffffffffffffffffffffffff0000000000000000000000008460601b16600283015282516121b38160168501602087016124dd565b9190910160160195945050505050565b73ffffffffffffffffffffffffffffffffffffffff91909116815260200190565b600073ffffffffffffffffffffffffffffffffffffffff841682526040602083015261221360408301846120fa565b949350505050565b73ffffffffffffffffffffffffffffffffffffffff92831681529116602082015260400190565b73ffffffffffffffffffffffffffffffffffffffff94851681529290931660208301526040820152606081019190915260800190565b600073ffffffffffffffffffffffffffffffffffffffff85168252606060208301526122a760608301856120fa565b82810360408401526103f981856120fa565b73ffffffffffffffffffffffffffffffffffffffff929092168252602082015260400190565b73ffffffffffffffffffffffffffffffffffffffff9390931683526020830191909152604082015260600190565b7fffffffff0000000000000000000000000000000000000000000000000000000091909116815260200190565b7fffffffff0000000000000000000000000000000000000000000000000000000092909216825273ffffffffffffffffffffffffffffffffffffffff16602082015260400190565b606081016004851061239057fe5b938152602081019290925260409091015290565b6000602082526110dc60208301846120fa565b60208082526024908201527f466978696e546f6b656e5370656e6465722f43414e4e4f545f494e564f4b455f60408201527f53454c4600000000000000000000000000000000000000000000000000000000606082015260800190565b60006020825273ffffffffffffffffffffffffffffffffffffffff80845116602084015280602085015116604084015250604083015160608084015261221360808401826120fa565b90815260200190565b918252602082015260400190565b60405181810167ffffffffffffffff8111828210171561249357600080fd5b604052919050565b600067ffffffffffffffff8211156124b1578081fd5b50601f017fffffffffffffffffffffffffffffffffffffffffffffffffffffffffffffffe01660200190565b60005b838110156124f85781810151838201526020016124e0565b838111156108165750506000910152565b73ffffffffffffffffffffffffffffffffffffffff8116811461252b57600080fd5b5056fe60a060405234801561001057600080fd5b5033606081901b608052610c9b6100456000398061027952806102a7528061039952806103d552806104035250610c9b6000f3fe6080604052600436106100745760003560e01c8063b68df16d1161004e578063b68df16d146100f8578063bc197c811461010b578063c0ee0b8a14610138578063f23a6e611461015a5761007b565b806301ffc9a71461008057806354132d78146100b65780638da5cb5b146100d65761007b565b3661007b57005b600080fd5b34801561008c57600080fd5b506100a061009b366004610a3a565b61017a565b6040516100ad9190610bf5565b60405180910390f35b6100c96100c4366004610851565b61025f565b6040516100ad9190610c2d565b3480156100e257600080fd5b506100eb610397565b6040516100ad9190610afa565b6100c96101063660046107fe565b6103bb565b34801561011757600080fd5b5061012b6101263660046108ab565b6104e8565b6040516100ad9190610c00565b34801561014457600080fd5b506101586101533660046109e0565b610515565b005b34801561016657600080fd5b5061012b610175366004610966565b61051b565b60007fffffffff0000000000000000000000000000000000000000000000000000000082167f01ffc9a700000000000000000000000000000000000000000000000000000000148061020d57507fffffffff0000000000000000000000000000000000000000000000000000000082167f4e2312e000000000000000000000000000000000000000000000000000000000145b8061025957507fffffffff0000000000000000000000000000000000000000000000000000000082167fc0ee0b8a00000000000000000000000000000000000000000000000000000000145b92915050565b60603373ffffffffffffffffffffffffffffffffffffffff7f000000000000000000000000000000000000000000000000000000000000000016146102d0576102d06102cb337f0000000000000000000000000000000000000000000000000000000000000000610546565b6105e8565b60008573ffffffffffffffffffffffffffffffffffffffff168386866040516102fa929190610aea565b60006040518083038185875af1925050503d8060008114610337576040519150601f19603f3d011682016040523d82523d6000602084013e61033c565b606091505b50925090508061038e5761038e6102cb308888888080601f0160208091040260200160405190810160405280939291908181526020018383808284376000920191909152508a92508991506105f09050565b50949350505050565b7f000000000000000000000000000000000000000000000000000000000000000081565b60603373ffffffffffffffffffffffffffffffffffffffff7f00000000000000000000000000000000000000000000000000000000000000001614610427576104276102cb337f0000000000000000000000000000000000000000000000000000000000000000610546565b60008473ffffffffffffffffffffffffffffffffffffffff168484604051610450929190610aea565b600060405180830381855af49150503d806000811461048b576040519150601f19603f3d011682016040523d82523d6000602084013e610490565b606091505b5092509050806104e0576104e06102cb308787878080601f0160208091040260200160405190810160405280939291908181526020018383808284376000920191909152508992506106b4915050565b509392505050565b7fbc197c810000000000000000000000000000000000000000000000000000000098975050505050505050565b50505050565b7ff23a6e61000000000000000000000000000000000000000000000000000000009695505050505050565b6060631de45ad160e01b8383604051602401610563929190610b1b565b604080517fffffffffffffffffffffffffffffffffffffffffffffffffffffffffffffffe08184030181529190526020810180517bffffffffffffffffffffffffffffffffffffffffffffffffffffffff167fffffffff0000000000000000000000000000000000000000000000000000000090931692909217909152905092915050565b805160208201fd5b60607f86945816f737646db7f2d6df01602a2212e8c75829f6940913724c13a83a8178868686868660405160240161062c959493929190610b98565b604080517fffffffffffffffffffffffffffffffffffffffffffffffffffffffffffffffe08184030181529190526020810180517bffffffffffffffffffffffffffffffffffffffffffffffffffffffff167fffffffff0000000000000000000000000000000000000000000000000000000090931692909217909152905095945050505050565b60607f61e5a7320b4cf56a2980a427f39e3071c967bf2f77fffcaae20e4467e160afcc858585856040516024016106ee9493929190610b42565b604080517fffffffffffffffffffffffffffffffffffffffffffffffffffffffffffffffe08184030181529190526020810180517bffffffffffffffffffffffffffffffffffffffffffffffffffffffff167fffffffff00000000000000000000000000000000000000000000000000000000909316929092179091529050949350505050565b60008083601f840112610786578182fd5b50813567ffffffffffffffff81111561079d578182fd5b60208301915083602080830285010111156107b757600080fd5b9250929050565b60008083601f8401126107cf578182fd5b50813567ffffffffffffffff8111156107e6578182fd5b6020830191508360208285010111156107b757600080fd5b600080600060408486031215610812578283fd5b833561081d81610c40565b9250602084013567ffffffffffffffff811115610838578283fd5b610844868287016107be565b9497909650939450505050565b60008060008060608587031215610866578081fd5b843561087181610c40565b9350602085013567ffffffffffffffff81111561088c578182fd5b610898878288016107be565b9598909750949560400135949350505050565b60008060008060008060008060a0898b0312156108c6578384fd5b88356108d181610c40565b975060208901356108e181610c40565b9650604089013567ffffffffffffffff808211156108fd578586fd5b6109098c838d01610775565b909850965060608b0135915080821115610921578586fd5b61092d8c838d01610775565b909650945060808b0135915080821115610945578384fd5b506109528b828c016107be565b999c989b5096995094979396929594505050565b60008060008060008060a0878903121561097e578182fd5b863561098981610c40565b9550602087013561099981610c40565b94506040870135935060608701359250608087013567ffffffffffffffff8111156109c2578283fd5b6109ce89828a016107be565b979a9699509497509295939492505050565b600080600080606085870312156109f5578384fd5b8435610a0081610c40565b935060208501359250604085013567ffffffffffffffff811115610a22578283fd5b610a2e878288016107be565b95989497509550505050565b600060208284031215610a4b578081fd5b81357fffffffff0000000000000000000000000000000000000000000000000000000081168114610a7a578182fd5b9392505050565b60008151808452815b81811015610aa657602081850181015186830182015201610a8a565b81811115610ab75782602083870101525b50601f017fffffffffffffffffffffffffffffffffffffffffffffffffffffffffffffffe0169290920160200192915050565b6000828483379101908152919050565b73ffffffffffffffffffffffffffffffffffffffff91909116815260200190565b73ffffffffffffffffffffffffffffffffffffffff92831681529116602082015260400190565b600073ffffffffffffffffffffffffffffffffffffffff808716835280861660208401525060806040830152610b7b6080830185610a81565b8281036060840152610b8d8185610a81565b979650505050505050565b600073ffffffffffffffffffffffffffffffffffffffff808816835280871660208401525060a06040830152610bd160a0830186610a81565b8460608401528281036080840152610be98185610a81565b98975050505050505050565b901515815260200190565b7fffffffff0000000000000000000000000000000000000000000000000000000091909116815260200190565b600060208252610a7a6020830184610a81565b73ffffffffffffffffffffffffffffffffffffffff81168114610c6257600080fd5b5056fea2646970667358221220946f0a5e2b318bef7e158ee579d699c2bbb03bd118a4622e1db4b46b55d5f0aa64736f6c634300060c0033a2646970667358221220c12a758d25e76bb5f30362a0edcee4ab67bccbab68c65d0fe75cff32fc25540964736f6c634300060c0033",
  "devdoc": {
    "details": "Feature to composably transform between ERC20 tokens.",
    "kind": "dev",
    "methods": {
      "_transformERC20((address,address,address,uint256,uint256,(uint32,bytes)[]))": {
        "details": "Internal version of `transformERC20()`. Only callable from within.",
        "params": {
          "args": "A `TransformERC20Args` struct."
        },
        "returns": {
          "outputTokenAmount": "The amount of `outputToken` received by the taker."
        }
      },
      "createTransformWallet()": {
        "details": "Deploy a new wallet instance and replace the current one with it.      Useful if we somehow break the current wallet instance.      Only callable by the owner.",
        "returns": {
          "wallet": "The new wallet instance."
        }
      },
      "getQuoteSigner()": {
        "details": "Return the optional signer for `transformERC20()` calldata.",
        "returns": {
          "signer": "The signer address."
        }
      },
      "getTransformWallet()": {
        "details": "Return the current wallet instance that will serve as the execution      context for transformations.",
        "returns": {
          "wallet": "The wallet instance."
        }
      },
      "getTransformerDeployer()": {
        "details": "Return the allowed deployer for transformers.",
        "returns": {
          "deployer": "The transform deployer address."
        }
      },
      "migrate(address)": {
        "details": "Initialize and register this feature.      Should be delegatecalled by `Migrate.migrate()`.",
        "params": {
          "transformerDeployer": "The trusted deployer for transformers."
        },
        "returns": {
          "success": "`LibMigrate.SUCCESS` on success."
        }
      },
      "setQuoteSigner(address)": {
        "details": "Replace the optional signer for `transformERC20()` calldata.      Only callable by the owner.",
        "params": {
          "quoteSigner": "The address of the new calldata signer."
        }
      },
      "setTransformerDeployer(address)": {
        "details": "Replace the allowed deployer for transformers.      Only callable by the owner.",
        "params": {
          "transformerDeployer": "The address of the trusted deployer for transformers."
        }
      },
      "transformERC20(address,address,uint256,uint256,(uint32,bytes)[])": {
        "details": "Executes a series of transformations to convert an ERC20 `inputToken`      to an ERC20 `outputToken`.",
        "params": {
          "inputToken": "The token being provided by the sender.        If `0xeee...`, ETH is implied and should be provided with the call.`",
          "inputTokenAmount": "The amount of `inputToken` to take from the sender.        If set to `uint256(-1)`, the entire spendable balance of the taker        will be solt.",
          "minOutputTokenAmount": "The minimum amount of `outputToken` the sender        must receive for the entire transformation to succeed. If set to zero,        the minimum output token transfer will not be asserted.",
          "outputToken": "The token to be acquired by the sender.        `0xeee...` implies ETH.",
          "transformations": "The transformations to execute on the token balance(s)        in sequence."
        },
        "returns": {
          "outputTokenAmount": "The amount of `outputToken` received by the sender."
        }
      }
    },
    "stateVariables": {
      "FEATURE_NAME": {
        "details": "Name of this feature."
      },
      "FEATURE_VERSION": {
        "details": "Version of this feature."
      }
    },
    "version": 1
  },
  "userdoc": {
    "kind": "user",
    "methods": {},
    "version": 1
  },
  "storageLayout": {
    "storage": [],
    "types": null
  }
}