{
  "address": "0x4544291BF64f1c04daC4cbCf22790292c06ee956",
  "abi": [
    {
      "inputs": [
        {
          "internalType": "contract IEtherTokenV06",
          "name": "weth_",
          "type": "address"
        }
      ],
      "stateMutability": "nonpayable",
      "type": "constructor"
    },
    {
      "inputs": [],
      "name": "deployer",
      "outputs": [
        {
          "internalType": "address",
          "name": "",
          "type": "address"
        }
      ],
      "stateMutability": "view",
      "type": "function"
    },
    {
      "inputs": [
        {
          "internalType": "address payable",
          "name": "ethRecipient",
          "type": "address"
        }
      ],
      "name": "die",
      "outputs": [],
      "stateMutability": "nonpayable",
      "type": "function"
    },
    {
      "inputs": [
        {
          "components": [
            {
              "internalType": "address payable",
              "name": "sender",
              "type": "address"
            },
            {
              "internalType": "address payable",
              "name": "taker",
              "type": "address"
            },
            {
              "internalType": "bytes",
              "name": "data",
              "type": "bytes"
            }
          ],
          "internalType": "struct IERC20Transformer.TransformContext",
          "name": "context",
          "type": "tuple"
        }
      ],
      "name": "transform",
      "outputs": [
        {
          "internalType": "bytes4",
          "name": "success",
          "type": "bytes4"
        }
      ],
      "stateMutability": "nonpayable",
      "type": "function"
    },
    {
      "inputs": [],
      "name": "weth",
      "outputs": [
        {
          "internalType": "contract IEtherTokenV06",
          "name": "",
          "type": "address"
        }
      ],
      "stateMutability": "view",
      "type": "function"
    }
  ],
  "transactionHash": "0x86f6351a853ca231c188f4336eb5080fe931601c1506a4eeb38a9098687111e1",
  "args": [
    "0x4fac0386c4045b52756b206db3148201e42b3f62"
  ],
  "solcInputHash": "97c6643a0ac9b0dd63cee9d39e689293",
  "bytecode": "0x60e060405234801561001057600080fd5b50604051610a58380380610a5883398101604081905261002f91610051565b33606090811b60805230811b60a0521b6001600160601b03191660c05261007f565b600060208284031215610062578081fd5b81516001600160a01b0381168114610078578182fd5b9392505050565b60805160601c60a05160601c60c05160601c6109876100d16000398060ae5280610123528061024f528061031052508061042352806104515250806103b952806103e7528061049052506109876000f3fe608060405234801561001057600080fd5b506004361061004c5760003560e01c80633fc8cef314610051578063832b24bb1461006f578063c9353cb51461008f578063d5f39488146100a4575b600080fd5b6100596100ac565b60405161006691906107c1565b60405180910390f35b61008261007d36600461071e565b6100d0565b6040516100669190610809565b6100a261009d366004610702565b6103a1565b005b61005961048e565b7f000000000000000000000000000000000000000000000000000000000000000081565b60006100da6106eb565b6100e760408401846108c2565b8101906100f49190610756565b9050610119816000015173ffffffffffffffffffffffffffffffffffffffff166104b2565b15801561017657507f000000000000000000000000000000000000000000000000000000000000000073ffffffffffffffffffffffffffffffffffffffff16816000015173ffffffffffffffffffffffffffffffffffffffff1614155b156101cf576101cf6101ca600061019060408701876108c2565b8080601f0160208091040260200160405190810160405280939291908181526020018383808284376000920191909152506104e492505050565b6105a0565b60208101517fffffffffffffffffffffffffffffffffffffffffffffffffffffffffffffffff81141561022157815161021e9073ffffffffffffffffffffffffffffffffffffffff16306105a8565b90505b80156103785781516102489073ffffffffffffffffffffffffffffffffffffffff166104b2565b156102d3577f000000000000000000000000000000000000000000000000000000000000000073ffffffffffffffffffffffffffffffffffffffff1663d0e30db0826040518263ffffffff1660e01b81526004016000604051808303818588803b1580156102b557600080fd5b505af11580156102c9573d6000803e3d6000fd5b5050505050610378565b6040517f2e1a7d4d00000000000000000000000000000000000000000000000000000000815273ffffffffffffffffffffffffffffffffffffffff7f00000000000000000000000000000000000000000000000000000000000000001690632e1a7d4d906103459084906004016108b9565b600060405180830381600087803b15801561035f57600080fd5b505af1158015610373573d6000803e3d6000fd5b505050505b507f13c9929e000000000000000000000000000000000000000000000000000000009392505050565b3373ffffffffffffffffffffffffffffffffffffffff7f0000000000000000000000000000000000000000000000000000000000000000161461040b5761040b6101ca337f000000000000000000000000000000000000000000000000000000000000000061067f565b3073ffffffffffffffffffffffffffffffffffffffff7f00000000000000000000000000000000000000000000000000000000000000001614610475576104756101ca307f00000000000000000000000000000000000000000000000000000000000000006106b5565b8073ffffffffffffffffffffffffffffffffffffffff16ff5b7f000000000000000000000000000000000000000000000000000000000000000081565b73ffffffffffffffffffffffffffffffffffffffff811673eeeeeeeeeeeeeeeeeeeeeeeeeeeeeeeeeeeeeeee14919050565b60607f505ff6a4f24a0aa989a95ffe4c8d435d76fb30dea162a3e3022e749867722deb838360405160240161051a929190610836565b604080517fffffffffffffffffffffffffffffffffffffffffffffffffffffffffffffffe08184030181529190526020810180517bffffffffffffffffffffffffffffffffffffffffffffffffffffffff167fffffffff000000000000000000000000000000000000000000000000000000009093169290921790915290505b92915050565b805160208201fd5b60006105b3836104b2565b156105d6575073ffffffffffffffffffffffffffffffffffffffff81163161059a565b6040517f70a0823100000000000000000000000000000000000000000000000000000000815273ffffffffffffffffffffffffffffffffffffffff8416906370a08231906106289085906004016107c1565b60206040518083038186803b15801561064057600080fd5b505afa158015610654573d6000803e3d6000fd5b505050506040513d601f19601f8201168201806040525081019061067891906107a9565b9392505050565b60607f5cec653b364cca3880afa73ceff506d0651d11d26abbbe4a56460aa933b21b08838360405160240161051a9291906107e2565b60607fb5cf2cd09307d6c717473134badbb9761c2c97d7565566c2a71eba6cd6fc514d838360405160240161051a9291906107e2565b604080518082019091526000808252602082015290565b600060208284031215610713578081fd5b81356106788161092c565b60006020828403121561072f578081fd5b813567ffffffffffffffff811115610745578182fd5b820160608185031215610678578182fd5b600060408284031215610767578081fd5b6040516040810181811067ffffffffffffffff82111715610786578283fd5b60405282356107948161092c565b81526020928301359281019290925250919050565b6000602082840312156107ba578081fd5b5051919050565b73ffffffffffffffffffffffffffffffffffffffff91909116815260200190565b73ffffffffffffffffffffffffffffffffffffffff92831681529116602082015260400190565b7fffffffff0000000000000000000000000000000000000000000000000000000091909116815260200190565b60006002841061084257fe5b83825260206040818401528351806040850152825b8181101561087357858101830151858201606001528201610857565b818111156108845783606083870101525b50601f017fffffffffffffffffffffffffffffffffffffffffffffffffffffffffffffffe01692909201606001949350505050565b90815260200190565b60008083357fffffffffffffffffffffffffffffffffffffffffffffffffffffffffffffffe18436030181126108f6578283fd5b83018035915067ffffffffffffffff821115610910578283fd5b60200191503681900382131561092557600080fd5b9250929050565b73ffffffffffffffffffffffffffffffffffffffff8116811461094e57600080fd5b5056fea2646970667358221220680b1bb3b058b968a24b14afd85d93eeb77705c96a211de8f841af4b777c25c864736f6c634300060c0033",
  "devdoc": {
    "details": "A transformer that wraps or unwraps WETH.",
    "kind": "dev",
    "methods": {
      "constructor": {
        "details": "Construct the transformer and store the WETH address in an immutable.",
        "params": {
          "weth_": "The weth token."
        }
      },
      "die(address)": {
        "details": "Destruct this contract. Only callable by the deployer and will not      succeed in the context of a delegatecall (from another contract).",
        "params": {
          "ethRecipient": "The recipient of ETH held in this contract."
        }
      },
      "transform((address,address,bytes))": {
        "details": "Wraps and unwraps WETH.",
        "params": {
          "context": "Context information."
        },
        "returns": {
          "success": "The success bytes (`LibERC20Transformer.TRANSFORMER_SUCCESS`)."
        }
      }
    },
    "stateVariables": {
      "MAX_UINT256": {
        "details": "Maximum uint256 value."
      },
      "weth": {
        "details": "The WETH contract address."
      }
    },
    "version": 1
  },
  "userdoc": {
    "kind": "user",
    "methods": {},
    "version": 1
  },
  "storageLayout": {
    "storage": [],
    "types": null
  }
}