{
  "address": "0x21d1C5A6CeD48B9b05aEF5eFD88FB1ED5EC46D7E",
  "abi": [
    {
      "inputs": [
        {
          "internalType": "address",
          "name": "bootstrapper",
          "type": "address"
        }
      ],
      "stateMutability": "nonpayable",
      "type": "constructor"
    },
    {
      "stateMutability": "payable",
      "type": "fallback"
    },
    {
      "inputs": [
        {
          "internalType": "bytes4",
          "name": "selector",
          "type": "bytes4"
        }
      ],
      "name": "getFunctionImplementation",
      "outputs": [
        {
          "internalType": "address",
          "name": "impl",
          "type": "address"
        }
      ],
      "stateMutability": "view",
      "type": "function"
    },
    {
      "stateMutability": "payable",
      "type": "receive"
    }
  ],
  "transactionHash": "0x34218e2be2d1d98852f5d5b4a206faa0893032ae19e8a34a716cef99de3c72d0",
  "args": [
    "0x9Af2AdB2e7FF27e637D605C11B40f8606934E4A7"
  ],
  "solcInputHash": "40192fd2cf3a1dee7bf2d46c4d1fb982",
  "bytecode": "0x608060405234801561001057600080fd5b50604051610db8380380610db883398101604081905261002f916100fc565b60008160405161003e906100ef565b610048919061012a565b604051809103906000f080158015610064573d6000803e3d6000fd5b5090508061007a6100b760201b6102db1760201c565b6373f208d560e01b60009081526020919091526040902080546001600160a01b0319166001600160a01b03929092169190911790555061013e9050565b6000806100ce60006100d460201b6102ee1760201c565b92915050565b600060808260088111156100e457fe5b600101901b92915050565b6107c0806105f883390190565b60006020828403121561010d578081fd5b81516001600160a01b0381168114610123578182fd5b9392505050565b6001600160a01b0391909116815260200190565b6104ab8061014d6000396000f3fe6080604052600436106100225760003560e01c8063972fdd261461013857610029565b3661002957005b600061006f600080368080601f016020809104026020016040519081016040528093929190818152602001838380828437600092019190915250929392505061016e9050565b9050600061007c826101ba565b905073ffffffffffffffffffffffffffffffffffffffff81166100aa576100aa6100a583610213565b6102cb565b600060608273ffffffffffffffffffffffffffffffffffffffff166000366040516100d69291906103f5565b600060405180830381855af49150503d8060008114610111576040519150601f19603f3d011682016040523d82523d6000602084013e610116565b606091505b50915091508161012957610129816102cb565b610132816102d3565b50505050005b34801561014457600080fd5b506101586101533660046103ae565b6101ba565b6040516101659190610405565b60405180910390f35b6000816004018351101561018f5761018f6100a56003855185600401610309565b5001602001517fffffffff000000000000000000000000000000000000000000000000000000001690565b60006101c46102db565b7fffffffff0000000000000000000000000000000000000000000000000000000092909216600090815260209290925250604090205473ffffffffffffffffffffffffffffffffffffffff1690565b60607f734e6e1c6ec3f883cac8d13d3e7390b280f5e94424662aa29e27394ed56586c9826040516024016102479190610426565b604080517fffffffffffffffffffffffffffffffffffffffffffffffffffffffffffffffe08184030181529190526020810180517bffffffffffffffffffffffffffffffffffffffffffffffffffffffff167fffffffff00000000000000000000000000000000000000000000000000000000909316929092179091529050919050565b805160208201fd5b805160208201f35b6000806102e860006102ee565b92915050565b600060808260088111156102fe57fe5b600101901b92915050565b6060632800659560e01b84848460405160240161032893929190610453565b604080517fffffffffffffffffffffffffffffffffffffffffffffffffffffffffffffffe08184030181529190526020810180517bffffffffffffffffffffffffffffffffffffffffffffffffffffffff167fffffffff000000000000000000000000000000000000000000000000000000009093169290921790915290509392505050565b6000602082840312156103bf578081fd5b81357fffffffff00000000000000000000000000000000000000000000000000000000811681146103ee578182fd5b9392505050565b6000828483379101908152919050565b73ffffffffffffffffffffffffffffffffffffffff91909116815260200190565b7fffffffff0000000000000000000000000000000000000000000000000000000091909116815260200190565b606081016008851061046157fe5b93815260208101929092526040909101529056fea2646970667358221220b780d6efb266af57adacd4cf51c7403cb570539a7b7d7ef2b8ff6eea3ce73fd764736f6c634300060c003360e060405234801561001057600080fd5b506040516107c03803806107c083398101604081905261002f91610051565b33606090811b60805230811b60a0521b6001600160601b03191660c05261007f565b600060208284031215610062578081fd5b81516001600160a01b0381168114610078578182fd5b9392505050565b60805160601c60a05160601c60c05160601c6107006100c060003980610121528061014f5250806070528061021652508060af528060dd52506107006000f3fe608060405234801561001057600080fd5b50600436106100365760003560e01c806335f469941461003b57806373f208d514610045575b600080fd5b610043610058565b005b61004361005336600461050e565b610109565b3073ffffffffffffffffffffffffffffffffffffffff7f0000000000000000000000000000000000000000000000000000000000000000161461009757fe5b3373ffffffffffffffffffffffffffffffffffffffff7f0000000000000000000000000000000000000000000000000000000000000000161461010657610106610101337f00000000000000000000000000000000000000000000000000000000000000006102ba565b610375565b33ff5b3373ffffffffffffffffffffffffffffffffffffffff7f0000000000000000000000000000000000000000000000000000000000000000161461017357610173610101337f000000000000000000000000000000000000000000000000000000000000000061037d565b600061017d6103b3565b7f73f208d5000000000000000000000000000000000000000000000000000000006000908152602091909152604080822080547fffffffffffffffffffffffff00000000000000000000000000000000000000001673ffffffffffffffffffffffffffffffffffffffff94851617905580517f35f4699400000000000000000000000000000000000000000000000000000000815290517f0000000000000000000000000000000000000000000000000000000000000000909316926335f469949260048084019391929182900301818387803b15801561025d57600080fd5b505af1158015610271573d6000803e3d6000fd5b505050506102b58383838080601f0160208091040260200160405190810160405280939291908181526020018383808284376000920191909152506103c692505050565b505050565b60607fabeb420c997af2b939cfae9ef422a08b8467cc0cf89064c140b7edf8a22cedc283836040516024016102f0929190610609565b604080517fffffffffffffffffffffffffffffffffffffffffffffffffffffffffffffffe08184030181529190526020810180517bffffffffffffffffffffffffffffffffffffffffffffffffffffffff167fffffffff0000000000000000000000000000000000000000000000000000000090931692909217909152905092915050565b805160208201fd5b60607fb84f6d63d81ee2a3bc5c6658be21fc96c31d7cdc4dc460ea0d6f7b7218b5b4b383836040516024016102f0929190610609565b6000806103c060006104bd565b92915050565b600060608373ffffffffffffffffffffffffffffffffffffffff16836040516103ef91906105ed565b600060405180830381855af49150503d806000811461042a576040519150601f19603f3d011682016040523d82523d6000602084013e61042f565b606091505b509150915081158061044357508051602014155b806104a5575080517fd150751b000000000000000000000000000000000000000000000000000000009061048090830160209081019084016105a6565b7fffffffff000000000000000000000000000000000000000000000000000000001614155b156104b7576104b761010185836104d8565b50505050565b600060808260088111156104cd57fe5b600101901b92915050565b60607fd19d65df6830e3cb0da1e12b8e9738e2dc473f830d8af813bcc031eb5a1675d183836040516024016102f0929190610630565b600080600060408486031215610522578283fd5b833573ffffffffffffffffffffffffffffffffffffffff81168114610545578384fd5b9250602084013567ffffffffffffffff80821115610561578384fd5b818601915086601f830112610574578384fd5b813581811115610582578485fd5b876020828501011115610593578485fd5b6020830194508093505050509250925092565b6000602082840312156105b7578081fd5b81517fffffffff00000000000000000000000000000000000000000000000000000000811681146105e6578182fd5b9392505050565b600082516105ff81846020870161069e565b9190910192915050565b73ffffffffffffffffffffffffffffffffffffffff92831681529116602082015260400190565b600073ffffffffffffffffffffffffffffffffffffffff8416825260406020830152825180604084015261066b81606085016020870161069e565b601f017fffffffffffffffffffffffffffffffffffffffffffffffffffffffffffffffe016919091016060019392505050565b60005b838110156106b95781810151838201526020016106a1565b838111156104b7575050600091015256fea2646970667358221220826c20375b96dc832e4d1319be2076703c8a15f3f7113e70788399322dbdf3cc64736f6c634300060c0033",
  "devdoc": {
    "details": "An extensible proxy contract that serves as a universal entry point for      interacting with the 0x protocol.",
    "kind": "dev",
    "methods": {
      "constructor": {
        "details": "Construct this contract and register the `BootstrapFeature` feature.      After constructing this contract, `bootstrap()` should be called      by `bootstrap()` to seed the initial feature set.",
        "params": {
          "bootstrapper": "Who can call `bootstrap()`."
        }
      },
      "getFunctionImplementation(bytes4)": {
        "details": "Get the implementation contract of a registered function.",
        "params": {
          "selector": "The function selector."
        },
        "returns": {
          "impl": "The implementation contract address."
        }
      }
    },
    "version": 1
  },
  "userdoc": {
    "kind": "user",
    "methods": {},
    "version": 1
  },
  "storageLayout": {
    "storage": [],
    "types": null
  }
}